:100000000C9489000C94B1000C94B1000C94160E61
:100010000C94160E0C94160E0C94B1000C94B100B6
:100020000C94B1000C94B1000C94B1000C94040534
:100030000C94B1000C94B1000C94B1000C94B1007C
:100040000C94CC0D0C94B1000C94BC0A0C94960A40
:100050000C94B1000C94B1000C94B1000C94B1005C
:100060000C9403110C94B100D9030004C7031A04C3
:100070003A04780463047804780478046F04E9038C
:100080004B095C095C095C095C095C095C095C0959
:100090005C0939095C09A0085C09F0085C097E0864
:1000A00026085C095C095C095C095C0900075C09BD
:1000B000DD075C096A0800000000240027002A0010
:1000C00000000000250028002B00040404040404A0
:1000D00004040202020202020303030303030102F7
:1000E00004081020408001020408102001020408C6
:1000F00010200000000800020100000304070000B7
:10010000000000000000000000002300260029007D
:10011000EF1711241FBECFEFD8E0DEBFCDBF25E023
:10012000A4E6B2E001C01D92AA3CB207E1F712E0DA
:10013000A0E0B1E0E6EEF4E302C005900D92A43633
:10014000B107D9F710E0C9E8D0E004C02197FE015B
:100150000E94B318C838D107C9F70E9487140C94BD
:10016000711A0C940000A82FB0E0AC54BD4F9C91C4
:10017000292F30E0F901EE0FFF1F2E0F3F1FF9016D
:10018000E958FA4FE081F0E09F01220F331FE20FA0
:10019000F31FEE5AFA4F80818F7B80838091B202E9
:1001A000981306C0992379F091509093B2020BC036
:1001B000882349F0E091B302EF5FE093B302F0E0EF
:1001C000ED59FD4F90838FEF8C9308959EEF980F1C
:1001D000923180F4E82FF0E0DF01AF50BB4F9C91EB
:1001E000913041F4EE0FFF1FE95FFA4F6083718396
:1001F0000C94EE0A0895CF93883080F54091040363
:100200005091050321E030E0672B81F4B90102C071
:10021000660F771F8A95E2F7CB018095909584232E
:100220009523909305038093040318C0082E02C001
:10023000220F331F0A94E2F7242B352B309305034A
:10024000209304039091CE02911108C0C82F0E9400
:10025000760BBC018C2FCF910C94F212CF910895A4
:10026000BF92CF92DF92EF92FF920F931F93CF93A3
:10027000DF9300D0CDB7DEB7833008F081C0282FE0
:10028000220F220F220F285F273108F026E1B62E19
:10029000F82EE82EEE0CEE0CEE0C30E0CC24C394DD
:1002A000E21610F58EEF8E0D8231D8F40E2D10E08F
:1002B000F801EF50FB4F9081923098F4DD24D394F5
:1002C0008C2D8B2109F4D12C000F111F913009F0D6
:1002D00043C03C29F801E95FFA4F8D2D90E09183EE
:1002E0008083CC0CE394DCCFF1100AC03C7FF894FF
:1002F0008BB1632F609568233B21632B6BB92AC0B8
:1003000081E0F8121AC02B2D2323F89495B1832F86
:100310008F7380958923922F9F73892B85B988B11C
:10032000229526952695237032953695369533700D
:1003300030958323822B88B90DC03F70F89488B123
:10034000632F660F660F609568233B21330F330FD1
:10035000632B68B9789414C0DD2009F4BBCFF80191
:10036000E95FFA4F80819181019709F4B3CF62E090
:100370008E2D2A8339830E943A0B2A813981AACF94
:100380000F900F90DF91CF911F910F91FF90EF9001
:10039000DF90CF90BF9008956F927F928F929F923F
:1003A000AF92BF92CF92DF92EF92FF920F931F9383
:1003B000CF93DF931F92CDB7DEB7982F3B018631E5
:1003C00008F004C1082F10E0F801EF50FB4F8081C6
:1003D000833009F490C0843009F0F8C09250923113
:1003E00008F0EDC0F801EC54FD4FE080F12C6701FE
:1003F000CC0CDD1C603282E078070CF042C077FD47
:1004000005C0653B710524F4DB0104C0A0E001C018
:10041000A4EBB0E0F601EE0DFF1DE958FA4F818123
:1004200028E830E04901881A910887FD9394880CE8
:10043000991C880C991C092C000CAA08BB08828105
:1004400028E532E0281B310987FD3395220F331F41
:10045000220F331FA901330F660B770B9A01AB01F3
:10046000281939094A095B090E94381A24EB30E03F
:1004700040E050E00E940E1A820E931EA41EB51E8C
:1004800001C04B01F601EE0DFF1DE958FA4F208126
:100490002C3008F094C0318188E890E0831B9109EA
:1004A00037FD9395880F991F880F991F8816990615
:1004B00084F0828148E552E0481B510987FD53953D
:1004C000440F551F440F551FC401481559050CF41E
:1004D000CA010297880F991F4FB7F89430E0F901CD
:1004E000EE0FFF1F2E0F3F1FF901EE5AFA4F9283B6
:1004F00081834FBF64C0933049F08BEF890F823006
:1005000028F087EF890F833008F059C061E0892F08
:1005100099830E943A0B99816114710411F460E08F
:1005200005C08FEF6816710429F461E0892F0E94DD
:10053000EE0A45C0F801EE50FF4FE491E330F9F0C8
:1005400048F4E130B9F0E230A1F584B5806284BDB1
:1005500068BC35C0E730E9F0E83019F1E43049F51E
:100560008091800080628093800070928B00609206
:100570008A0025C084B5806884BD67BC20C0809196
:10058000800080688093800070928900609288006B
:1005900016C08091B00080688093B0006092B30074
:1005A0000EC08091B00080628093B0006092B40071
:1005B00006C080E8681671040CF0B7CFB0CF000F0A
:1005C000111FF801E95FFA4F718260820F90DF918D
:1005D000CF911F910F91FF90EF90DF90CF90BF9040
:1005E000AF909F908F907F906F900895DB019091D6
:1005F000B2029C30A8F53091B302682F70E033232B
:1006000069F0E32FF0E0ED59FD4F8081FB01EC54E0
:10061000FD4F808331503093B30207C0FB01EC548F
:10062000FD4F90839F5F9093B202FB01EC54FD4F0E
:10063000808190E09C01220F331F820F931F1A16B6
:100640001B0634F4141615061CF49A01AD0104C0FF
:1006500020E639E040E252E089589A4F0C9431127A
:1006600081E691E00C9442138F929F92AF92BF92D9
:10067000CF92DF92EF92FF920F931F93CF93DF936E
:100680001F92CDB7DEB7C82ED12C96012A553B4F0D
:100690004901F901E55BFF4F90819F3709F457C18C
:1006A000963041F49091CD02992321F06630710586
:1006B00009F02FC17B01182F0EEF080F0231F8F45B
:1006C00064307105E1F0F601EC54FD4F80818C300F
:1006D000B0F490E0FC01EE0FFF1F8E0F9F1FFC0196
:1006E000E958FA4F808190E0FC01EE0FFF1F8E0F5A
:1006F0009F1FFC01EE5AFA4F808186FD10C192EFD8
:10070000910F983068F461E070E082E0E816F1043F
:1007100011F060E070E0892F99830E94FB009981BD
:10072000023118F5E12FE695E695E695812F877061
:10073000F0E0E053FD4FE114F10421F02BE0E2166C
:10074000F10449F421E030E001C0220F8A95EAF774
:100750008081282B09C021E030E001C0220F8A955A
:10076000EAF720958081282320835601AA0CBB1C20
:10077000F501E95FFA4F118210823CE0E316F104C3
:1007800008F0B6C0F701EC5CFF4F0C94B31898303A
:1007900008F0DDC0023120F460E0812F0E943A0BA6
:1007A000F401E55BFF4F80818F3709F4D0C082E010
:1007B0009DC0023108F0CBC060E0812F0E943A0B4F
:1007C000F401E55BFF4F80818F3709F4C0C01082D0
:1007D000BEC0023108F0BBC062E0812F0E943A0B1C
:1007E000F401E55BFF4F80818F3711F08BE0808350
:1007F000F501E95FFA4F81E090E091838083A7C023
:10080000023108F0A4C0F401E55BFF4F8081833022
:1008100021F460E0812F0E94EE0A61E0812F0E94A6
:100820003A0BF401E55BFF4F80818F3709F48FC0ED
:1008300081E05CC0133049F08BEF810F823028F0EB
:1008400087EF810F833008F082C061E0812F0E9422
:100850003A0B61E0812F0E943A0B60E0812F0E94E9
:10086000EE0AF401E55BFF4F80818F3709F46FC01A
:1008700083E03CC0023108F06AC0F401E55BFF4F41
:1008800080818F3711F084E08083F601EC54FD4FB6
:1008900080818F3F09F447C090E0FC01EE0FFF1FFD
:1008A0008E0F9F1FFC01E958FA4F808190E0FC01F8
:1008B000EE0FFF1F8E0F9F1FFC01EE5AFA4F808133
:1008C00086FD45C030C01251123008F040C0F4011E
:1008D000E55BFF4F80818F37D1F186E007C0F401DF
:1008E000E55BFF4F80818F3791F18AE080832FC0D5
:1008F00085E791E00F90DF91CF911F910F91FF90CD
:10090000EF90DF90CF90BF90AF909F908F900C941E
:1009100042131092CD029FEF90930001CBCE812F16
:100920000E94B300ECCE4FEF5FEF6FEF7FEF812FB0
:100930000F90DF91CF911F910F91FF90EF90DF907B
:10094000CF90BF90AF909F908F900C94F6020F9035
:10095000DF91CF911F910F91FF90EF90DF90CF909B
:10096000BF90AF909F908F9008950F931F93CF9358
:10097000DF9381E08093CE028BE995E00E94A90E7F
:100980008091CD02882329F01092CD028FEF8093C1
:1009900000011092D3021092D0021092CA0210925B
:1009A000D4021092D1021092CB021092D502109272
:1009B000D2021092CC0204EB12E0C0E0DFEF82EF33
:1009C0008C0F883018F462E070E006C08EEF8C0F58
:1009D000823128F461E070E08C2F0E943403F8012A
:1009E000D1938F01CF5FC63151F71092050310925A
:1009F00004031092B3021092B2021092CE02DF9161
:100A0000CF911F910F9108951F920F920FB60F92E1
:100A100011242F933F934F935F936F937F938F9303
:100A20009F93AF93BF93EF93FF938091CF0287FF84
:100A300005C010928500109284001BC02091CF0247
:100A4000022E000C330B8091760590E028173907B1
:100A500084F48091CF02082E000C990BFC01EE0F5C
:100A6000FF1F8E0F9F1FFC01EE5AFA4F808186FDFB
:100A700015C08091CF028F5F8093CF022091CF026B
:100A8000022E000C330B8091760590E02817390771
:100A9000C4F48091CF028C3064F113C08091CF02F6
:100AA000082E000C990BFC01EE0FFF1F8E0F9F1FED
:100AB000FC01EE5AFA4F808160E08F730E94EE0ACB
:100AC000D8CF8091840090918500049680349C4911
:100AD00018F480E49CE905C0809184009091850021
:100AE000049690938900809388008FEF8093CF02C3
:100AF0003BC020918400309185008091CF02082E68
:100B0000000C990BFC01EE0FFF1F8E0F9F1FFC01C5
:100B1000EE5AFA4F81819281820F931F9093890040
:100B2000809388008091CF02082E000C990BFC0165
:100B3000EE0FFF1F8E0F9F1FFC01EE5AFA4F8081B0
:100B400086FF12C08091CF02082E000C990BFC0189
:100B5000EE0FFF1F8E0F9F1FFC01EE5AFA4F808190
:100B600061E08F730E94EE0AFF91EF91BF91AF9108
:100B70009F918F917F916F915F914F913F912F91B5
:100B80000F900FBE0F901F9018950F931F93CF9348
:100B9000082F10E0F801E053FD4F9081C62FC923C4
:100BA00006531D4F411104C0D8019C919C1771F14F
:100BB000682F8091A6049091A704DC01ED91FC912F
:100BC0006F7060690190F081E02D09958091A60415
:100BD0009091A704DC01ED91FC916C2F6F7701904F
:100BE000F081E02D09958091A6049091A704DC0185
:100BF000ED91FC916C2F70E0660F672F661F770BED
:100C00000190F081E02D0995F801C083CF911F91EB
:100C10000F910895833020F5282F30E0F901ED522F
:100C2000FD4F6083672BE1F0F901E053FD4F9081A8
:100C3000811103C069B16C7F0FC0813049F463B189
:100C400036B140E4349F900111246F73622B04C0CD
:100C500066B16C7366956695692341E00C94C50591
:100C60000895CF92DF92EF92FF920F931F93CF934D
:100C7000DF931F92CDB7DEB7082F6B01142F6F3FA4
:100C80008FEF780709F181E08093E5030093070473
:100C90001092E6031092080486E495E029830E94EE
:100CA000120D2981822F0E944E13E091B002F09123
:100CB000B102E230F10550F0EE0FFF1FEE0FFF1F03
:100CC00035973197F1F702C0C12CD12C8091E40304
:100CD0008111FCCF212F113208F020E281E08093B6
:100CE000E4038093E3039FEF9093E2031092E10308
:100CF000920F9093E0038093BF038091BF03902FE6
:100D0000990F892B8093BF038091BE03813061F4DA
:100D10001092BE038091BF038093BB008091BC0002
:100D200083FDF8CF85EC01C085EE8093BC008091F7
:100D3000E4038130E1F38091E103821710F4209104
:100D4000E103A0ECB3E04EE053E0FA018E2F841BE8
:100D5000821718F48D918193F9CF10922F0320936D
:100D60002E03E12EF12C30E0E216F3061CF486E8A7
:100D700091E005C02E153F0524F483EA91E00E941E
:100D8000421300937002C0927102C12CD12CCE1478
:100D9000DF0434F490912E0380912F03981310C038
:100DA00062E0610F40E752E087E70F90DF91CF915B
:100DB0001F910F91FF90EF90DF90CF900C9409134B
:100DC00086E495E00E94C60CF601E059FD4F82834F
:100DD0008FEFC81AD80ADBCFEF92FF920F931F93C1
:100DE000CF93DF9390E0FC01E056F109EB31F10580
:100DF00008F062C2EA01162FE05CFF4F0C94B318B2
:100E00002981922F987125FF03C08FEB91E05AC082
:100E1000888131E026FB222720F92327983069F1C9
:100E200060F4911149C23093E50380930704109256
:100E3000E6031092080402E007C0903109F43CC0B8
:100E4000983109F46DC038C2011778F4FE01E00F43
:100E5000F11D8181608120E8829F6019112486E460
:100E600095E00E94120D0E5FEFCF81E00E944E13BD
:100E700083E191E00197F1F71FC24A816B8116303F
:100E800069F430E8639FB0011124640F711D9D81E6
:100E90004C81E0E89E9F4019112406C0F0E86F9F46
:100EA000401911246FEF7FEFDF91CF911F910F91C8
:100EB000FF90EF900C943106E0910001E73054F080
:100EC0008FED91E0DF91CF911F910F91FF90EF9007
:100ED0000C9442139A814B81663069F430E8439F49
:100EE000A0011124490F511D3D819C8160E8369F6E
:100EF0009019112406C0F0E84F9F901911244FEF6C
:100F00005FEFEF5FE093000135E0E302F0011124B1
:100F1000E452FD4F80835283418393832483CCC169
:100F200020910001121614F08FEF44C090E0622F60
:100F3000022E000C770B35E0492F50E0641775073F
:100F400074F0349FF001359FF00D1124E452FD4FF1
:100F50004081481302C085E026C09F5FEDCF90E03E
:100F6000FACF9830F8F4FA0131968E9FD0018F9F16
:100F7000B00D1124A452BD4F3C91849FF001859F78
:100F8000F00D1124E452FD4F308311964D915C9188
:100F900012975283418313963C911397338314968F
:100FA0003C9134839F5F492F50E064177507CCF65E
:100FB0008FEF820F809300017FC12881898160E8D3
:100FC000869FC0011124820F911D009721F09093FC
:100FD000B1028093B0028091CD0281116DC1C0E059
:100FE0008EEE8C0F823028F466E070E08C2F0E9429
:100FF0003403CF5FC631A1F781E08093CD02109218
:101000002F0310922E031092E60310920804109200
:10101000E4038093E3031092BE0361E082E10E9447
:10102000EE0A61E083E10E94EE0A8091B9008E7FB2
:101030008093B9008091B9008D7F8093B90088E4D6
:101040008093B80085E48093BC0036C1653008F415
:1010500033C11881F9800A81EB80CC818EEF810F3A
:10106000823108F029C1E12FF0E0EC54FD4F2081DE
:101070002C30B0F430E0F901EE0FFF1F2E0F3F1FB0
:10108000F901E958FA4F208130E0F901EE0FFF1F16
:101090002E0F3F1FF901EE5AFA4F808186FD08C1DD
:1010A00080E8C89FA00111244E0D511D90E8099FB2
:1010B000B00111246F0D711D812F0E94F60264E0B2
:1010C00070E0812FDF91CF911F910F91FF90EF90F2
:1010D0000C943403623008F4EFC028818981E0E881
:1010E0008E9FC0011124820F911D009711F481E0A1
:1010F00090E09093020180930101DEC0623008F419
:10110000DBC0698170E0123091F08A81F0E88F9F36
:10111000C0011124682B792B133049F08B8190E0AA
:1011200090E4899F902D88271124682B792B888142
:10113000DF91CF911F910F91FF90EF900C94CC0114
:1011400080EF0E94AB138CE60E94AB13CEEF84EFCE
:101150008C0F883038F482E00E94AB138AE00E9442
:10116000AB1309C0C13039F483E00E94AB1388E0AF
:101170000E94AB1308C08DEF8C0F8230A8F389EF6B
:101180008C0F833088F3C23130F484E00E94AB13BB
:101190008EE00E94AB1380EF8C0F823030F486E03B
:1011A0000E94AB1381E00E94AB138FE70E94AB1348
:1011B000CF5FC43121F1C23150F680E00E94AB1301
:1011C00081E00E94AB138BE00E94AB1381E00E9490
:1011D000AB1381E00E94AB1381E00E94AB13B7CF49
:1011E000662309F469C0C88180EF0E94AB138EE6C4
:1011F0000E94AB138C2F0E94AB13C63148F087EFCF
:10120000DF91CF911F910F91FF90EF900C94AB1352
:10121000D0E0FE01EF50FB4F80810E94AB13CC0F5A
:10122000DD1F8E01095F1A4FF80180818F770E94C0
:10123000AB13F801808191819C012078232B39F038
:10124000880F892F881F990B8F770E94AB13C95F76
:10125000DA4F888199819C012227307C232B79F2F7
:10126000990F880B990F982F881F8F770E94AB13C7
:10127000C6CF80EF0E94AB138AE60E94AB13C2EF89
:10128000C83010F48C2F01C08FE70E94AB13CF5FE2
:10129000C830B1F7B4CF9A01462F60E68BE995E0EC
:1012A000DF91CF911F910F91FF90EF900C94C70E9B
:1012B000812F0E94B300F4CEDF91CF911F910F9147
:1012C000FF90EF900895CF92DF92EF92FF920F93ED
:1012D0001F93CF93DF936C017A018B01C0E0D0E0C4
:1012E000CE15DF0589F0D8016D918D01D601ED9104
:1012F000FC910190F081E02DC6010995892B11F434
:101300007E0102C02196ECCFC701DF91CF911F91E2
:101310000F91FF90EF90DF90CF900895FC01918D99
:10132000828D981761F0828DDF01A80FB11D5D9647
:101330008C91928D9F5F9F73928F90E008958FEFB5
:101340009FEF0895FC01918D828D981731F0828D69
:10135000E80FF11D858D90E008958FEF9FEF0895C0
:10136000FC01918D228D892F90E0805C9F4F821B24
:1013700091098F739927089589E094E00E94B0093C
:1013800021E0892B09F420E0822F0895FC01848D4F
:10139000DF01A80FB11DA35ABF4F2C91848D90E09F
:1013A00001968F739927848FA689B7892C93A0897A
:1013B000B1898C9180648C93938D848D981306C031
:1013C0000288F389E02D80818F7D80830895EF92DC
:1013D000FF920F931F93CF93DF93EC0181E0888FEF
:1013E0009B8D8C8D981305C0E889F989808185FDD6
:1013F00024C0F62E0B8D10E00F5F1F4F0F731127C7
:10140000E02E8C8DE8120CC00FB607FCFACFE889ED
:10141000F989808185FFF5CFCE010E94C609F1CF01
:101420008B8DFE01E80FF11DE35AFF4FF0820B8F09
:10143000EA89FB898081806207C0EE89FF89608329
:10144000E889F98980818064808381E090E0DF9180
:10145000CF911F910F91FF90EF900895CF93DF935D
:10146000EC01888D8823C9F0EA89FB89808185FD9C
:1014700005C0A889B9898C9186FD0FC00FB607FCFD
:10148000F5CF808185FFF2CFA889B9898C9185FF3E
:10149000EDCFCE010E94C609E7CFDF91CF9108952D
:1014A00080E090E0892B29F00E94BC0981110C9406
:1014B000000008950E94FA198F929F92AF92BF92F6
:1014C000CF92DF92EF92FF926B017C010E94A70DF9
:1014D0004B015C01C114D104E104F104F1F00E945C
:1014E000A70DDC01CB0188199909AA09BB09883E1F
:1014F0009340A105B10570F321E0C21AD108E108BB
:10150000F10888EE880E83E0981EA11CB11CC1145E
:10151000D104E104F10419F7DDCFFF90EF90DF90E3
:10152000CF90BF90AF909F908F9008951F920F9291
:101530000FB60F9211242F933F934F935F936F93A6
:101540007F938F939F93AF93BF93EF93FF9389E024
:1015500094E00E94C609FF91EF91BF91AF919F91D6
:101560008F917F916F915F914F913F912F910F904C
:101570000FBE0F901F9018951F920F920FB60F92EB
:1015800011242F938F939F93EF93FF93E09119046E
:10159000F0911A048081E0911F04F091200482FDF3
:1015A00012C09081809122048F5F8F732091230459
:1015B000821751F0E0912204F0E0E75FFB4F958F36
:1015C0008093220401C08081FF91EF919F918F91C0
:1015D0002F910F900FBE0F901F90189590E0FC0177
:1015E000EE50FF4F3491FC01E252FF4F2491FC0179
:1015F000E653FF4FE491EE2309F43BC0332339F166
:10160000333091F038F43130A9F0323001F584B53F
:101610008F7D12C0373091F03830A1F03430B9F4FA
:10162000809180008F7D03C0809180008F778093B0
:1016300080000DC084B58F7784BD09C08091B00053
:101640008F7703C08091B0008F7D8093B000F0E071
:10165000EE0FFF1FE054FF4FA591B4918FB7F894A0
:10166000EC91611103C020952E2301C02E2B2C93E9
:101670008FBF0895CF93DF9390E0FC01E252FF4FBC
:101680002491FC01E653FF4F8491882361F190E09F
:10169000880F991FFC01EA54FF4FC591D491FC01BA
:1016A000E054FF4FA591B491611109C09FB7F89420
:1016B0008881209582238883EC912E230BC0623091
:1016C00061F49FB7F8943881822F809583238883B3
:1016D000EC912E2B2C939FBF06C08FB7F894E88116
:1016E0002E2B28838FBFDF91CF9108958E3008F085
:1016F0008E508770806480937C0080917A00806433
:1017000080937A0080917A0086FDFCCF80917800EA
:101710002091790090E0922B08952091DA02309187
:10172000DB022817390771F49091B8038091B70351
:10173000981741F0E091B803F0E0E958FC4F808140
:1017400090E008958FEF9FEF089508951F93CF9332
:10175000DF93DC015C962D913C915D97211531055D
:1017600039F481E090E013969C938E9312973DC0DC
:101770005196ED91FC91529750969C915097892FDC
:1017800080951FB75E964C915E9741FB772770F965
:1017900041FD6095F8944081772311F0492B01C0F9
:1017A00048234083E9012197F1F748E0508160FF29
:1017B00002C0592B01C058235083E9012197F1F74A
:1017C0006695415099F7772321F090818923808392
:1017D00003C08081982B90831FBF5C968D919C9154
:1017E0005D970197F1F721E030E0C901DF91CF91DA
:1017F0001F9108952091DA023091DB0228173907F2
:1018000071F48091B7032091B80390E0805C9F4F02
:10181000821B910960E470E00E949F18089580E0A7
:1018200090E008952091DA023091DB022817390701
:10183000B9F49091B8038091B703981789F0E091BB
:10184000B803F0E0E958FC4F80812091B80330E004
:101850002F5F3F4F2F7333272093B80390E00895F5
:101860008FEF9FEF0895E091DA02F091DB02E81725
:10187000F90769F4A389B4899C91858980958923A6
:101880008C931092DB021092DA0281E0089580E0DE
:101890000895CF93DF93EC018A8D9B8D892BF1F016
:1018A0008091DA029091DB028C179D07B9F00097C6
:1018B00011F00E94330C8E8D8E7F8E8F1092B703A5
:1018C0001092B803D093DB02C093DA02EB89FC8953
:1018D00090818D89892B808381E001C080E0DF9138
:1018E000CF91089508954A30510551F4E62FF0E064
:1018F000EF50FB4F80818F3729F08AE0808302C050
:1019000080E0089581E0089585ED8093BC0080918A
:10191000BC0084FDFCCF1092E40308954091520373
:10192000262F30E0240F311D21323105DCF42091C7
:10193000E4032430C9F4FC0180E090E0861758F4F9
:10194000309152032191DC01A05DBC4FA30FB11D6A
:101950002C930196F3CF80915203680F609352034A
:1019600080E0089581E0089582E008950895E0916F
:101970002F0380912E03E81730F4F0E0E25FFC4F74
:10198000808190E008958FEF9FEF089590912F034D
:1019900080912E03981750F4E92FF0E0E25FFC4F9E
:1019A000208130E09F5F90932F0302C02FEF3FEF25
:1019B000C901089580912E0390E020912F03821B8E
:1019C00091090895CF92DF92EF92FF920F931F93A8
:1019D000CF93DF937C01262F972F8A018091E50317
:1019E000882391F0C62FD72F6E01C40ED51ECC15BB
:1019F000DD0571F06991D701ED91FC910190F081C5
:101A0000E02DC7010995F3CF642F822F0E948E0C21
:101A1000C801DF91CF911F910F91FF90EF90DF9060
:101A2000CF900895CF93DF931F92CDB7DEB7698330
:101A30002091E5032223D1F020910804203240F0C8
:101A400021E030E0FC013383228380E090E015C088
:101A50008091E603E82FF0E0E951FC4F99819083F3
:101A60008F5F8093E6038093080405C061E0CE0198
:101A700001960E948E0C81E090E00F90DF91CF9153
:101A800008950F931F93CF93DF93EC01162F042F2C
:101A90001B821A8288EE93E0A0E0B0E08C839D83E5
:101AA000AE83BF8381E191E0998388831F8A1E8A78
:101AB000198E188E1B8E1A8E1D8E1C8E6E8D6E7F4B
:101AC00020FB61F96E8F6695617081E06827842F35
:101AD0000E94EE0A61E0802F0E943A0B402F50E0F6
:101AE000FA01E252FF4FE491E88BFA01E653FF4F0F
:101AF000E491F0E0EE0FFF1FE054FF4F85919491C9
:101B00009A8B898B60E0812F0E943A0B8E8D81FD2C
:101B100004C061E0812F0E94EE0A1C87612F70E0F3
:101B2000FB01E252FF4FE491ED87FB01E653FF4FCB
:101B3000E491F0E0EE0FFF1FEA5FFE4F8591949174
:101B40009F878E87DF91CF911F910F9108953FB7A7
:101B5000F8948091BA039091BB03A091BC03B0911B
:101B6000BD0326B5A89B05C02F3F19F00196A11D06
:101B7000B11D3FBFBA2FA92F982F8827820F911D23
:101B8000A11DB11DBC01CD0142E0660F771F881F6A
:101B9000991F4A95D1F708951F920F920FB60F9291
:101BA00011242F933F938F939F93AF93BF93809173
:101BB000D6029091D702A091D802B091D90230916B
:101BC000B90323E0230F2D3720F40196A11DB11D89
:101BD00005C026E8230F0296A11DB11D2093B9036D
:101BE0008093D6029093D702A093D802B093D902E3
:101BF0008091BA039091BB03A091BC03B091BD0347
:101C00000196A11DB11D8093BA039093BB03A093CD
:101C1000BC03B093BD03BF91AF919F918F913F9152
:101C20002F910F900FBE0F901F9018951F920F923B
:101C30000FB60F9211242F933F934F935F936F939F
:101C40007F938F939F93AF93BF93EF93FF93E09115
:101C5000DA02F091DB02309709F451C0968DA68527
:101C6000B785858591FF04C09C91892329F447C0DD
:101C70009C91892309F043C0A389B4899C918589EB
:101C8000809589238C93868997890197F1F7608DD8
:101C9000718DA685B785558538E020E0CB01019789
:101CA000F1F7822F90E095958795282F4C91452349
:101CB00009F02068315091F7868D81FD2095809143
:101CC000B70390E001968F7399273091B8033817C6
:101CD00049F0A091B703B0E0A958BC4F2C93809372
:101CE000B70303C0868D8160868F828D938D0197A7
:101CF000F1F7A389B4899C918589892B8C93FF91F5
:101D0000EF91BF91AF919F918F917F916F915F9173
:101D10004F913F912F910F900FBE0F901F901895EC
:101D2000FC01693069F028F4683081F483A194A142
:101D300008956A3041F06B3049F481A592A5089569
:101D400085A196A1089587A190A5089580E090E0CF
:101D500008951F93CF93DF93EC0118E0612FCE011C
:101D60000E94900E009711F00E9462191F5F1C30B4
:101D7000A9F78FEF8AA3FE013A96A29611921192CB
:101D8000EC17FD07D9F7DF91CF911F9108958F923E
:101D90009F92AF92BF92CF92DF92EF92FF920F93FA
:101DA0001F93CF93DF93EC01042F7901603609F084
:101DB000FFC1D9018C91182F1F70807F803309F4E7
:101DC00059C130F4803171F0803209F430C1F2C170
:101DD000803609F4D4C1803709F4DFC1803509F0B9
:101DE000E9C1A0C1F9018280912CA12CB12CA7E0FE
:101DF000880C991CAA1CBB1CAA95D1F7838190E082
:101E0000A0E0B0E02EE0880F991FAA1FBB1F2A9503
:101E1000D1F7882A992AAA2ABB2A8181882A1830D0
:101E200060F4612FCE010E94900E009709F4C2C1A8
:101E3000B501A4010E942014BDC1453068F00481A1
:101E4000F580193001F118F4183059F04EC01A30ED
:101E500059F11B30D1F149C086E492E00E9442134F
:101E6000A7C18BA19CA1892B09F03FC08FE190E015
:101E70000E94CD186C0120E04F2D602F0E94410D73
:101E8000DCA2CBA232C08DA19EA1892B71F58FE17E
:101E900090E00E94CD186C0120E04F2D602F0E9431
:101EA000410DDEA2CDA221C08FA198A5892BE9F416
:101EB0008FE190E00E94CD186C0120E04F2D602F43
:101EC0000E94410DD8A6CFA210C089A59AA5892B42
:101ED00061F48FE190E00E94CD186C0120E04F2D5D
:101EE000602F0E94410DDAA6C9A6612FCE010E9483
:101EF000900EEC01892B09F45DC1E02FF0E0EF506A
:101F0000FB4F80818F3711F08AE08083EF2DF0E066
:101F1000EF50FB4F80818F3711F08AE080831B8E5A
:101F20001A8E198E188E1F8A1E8A60E079E08DE362
:101F300090E0A50194010E940E1AF90124303105A8
:101F400018F0C901039702C081E090E09D8F8C8F4B
:101F50006C85663108F069C0C90196958795843112
:101F6000910510F0439702C081E090E09F8B8E8B2B
:101F7000369718F0C901059702C081E090E0998F6B
:101F8000888FC901880F991F280F391F369527950B
:101F9000369527952D30310518F02C50310902C0A7
:101FA00021E030E03B8F2A8F90916800683050F03C
:101FB00021E06E3008F420E081E001C0880F2A950E
:101FC000EAF701C084E0892B809368008C85883013
:101FD00038F08E3040F0863148F020E030E008C024
:101FE0002DE630E005C02BE630E002C02CE630E004
:101FF0003C8B2B8B883030F491E001C0990F8A958F
:10200000EAF70EC0282F30E08E3018F4285031093E
:1020100002C02E50310991E001C0990F2A95EAF7CC
:102020009D8B8C8D9D8D0197F1F7CE01BEC0612FE8
:10203000CE010E94900E5C01892B09F4BBC01E2DBD
:10204000CE2DDF2D22969C2F9150911B901708F0DA
:10205000B1C0D501ED91FC918881DE0111976C91A1
:10206000B0E88B9F601911240190F081E02DC5012B
:102070000995E8CFF9018181811127C02AA1273074
:102080000CF098C0812F90E0FC013596EE0FFF1FF9
:10209000EC0FFD1F433070F0D70113968C91B0E820
:1020A0008B9FC0011124D70112963C91832B918301
:1020B000808302C01182108281E0820F8AA3C80F40
:1020C000D11D87FDDA951A8375C0813009F072C081
:1020D0009AA119161CF08FEF8AA36CC080E0492FDB
:1020E000092E000C550B282F30E04217530744F0FF
:1020F000FE01E20FF31F2281211761F08F5FF3CF02
:1021000080E008C0883028F4FE01E20FF31F23812D
:1021100022838F5F282F30E0421753079CF791509E
:102120009AA348C0612FCE010E94900EEC01009747
:1021300009F440C01830E8F4E881F9810284F3859D
:10214000E02D0995EA89FB8980818F7E8083EA8969
:10215000FB898081877F8083EA89FB8980818F77F3
:102160008083EA89FB8980818F7D80838A8D898F36
:1021700021C00E94330CCE010E9462191BC0612F46
:10218000CE010E94900E0097A9F0DC01ED91FC9128
:102190000284F385E02D09950DC0183058F0612FA9
:1021A000CE010E94900E009729F00E94490C02C0B7
:1021B00080E001C081E0DF91CF911F910F91FF90EE
:1021C000EF90DF90CF90BF90AF909F908F90089549
:1021D000FC01158216821782DC011896885B9F4FDE
:1021E0001D92A817B907E1F71C92DF01A75BBF4F4B
:1021F0001D921C92E756FF4F0190F081E02D309721
:1022000009F0099408951F920F920FB60F921124AE
:102210002F933F934F935F936F937F938F939F93EE
:10222000AF93BF93EF93FF938091B900887F80367F
:1022300009F49CC068F5883209F45BC090F48031E1
:1022400009F454C038F4882309F4F6C0883009F43E
:102250004DC0F6C0883109F44CC0803209F45DC02D
:10226000EFC0803409F468C048F4803309F455C0E5
:10227000883309F0E5C08093E203D8C0803509F4C3
:102280004FC0883509F45DC0883409F0D9C0D6C084
:10229000883909F4C7C0A8F4883709F467C038F44E
:1022A000883609F463C0803709F460C0C9C0883833
:1022B00009F4B8C0803909F45FC0803809F0C0C0A3
:1022C0005BC0803B09F486C038F4803A09F466C0EC
:1022D000883A09F47FC0B4C0803C09F4A7C0883CA8
:1022E00009F4A4C0883B09F48AC0AAC08091BF0346
:1022F00010C09091E1038091E003981770F5E09190
:10230000E10381E08E0F8093E103F0E0E054FC4FA5
:1023100080818093BB0085EC86C08093E2038EC0F1
:10232000E091E10381E08E0F8093E1038091BB0097
:10233000F0E0E054FC4F80839091E1038091E00352
:102340006EC0E091E10381E08E0F8093E103809104
:10235000BB00F0E0E054FC4F80838091E3038111E7
:102360006DC081E08093BE0384EA61C083E0809306
:10237000E40310927603CFCF80917603803208F089
:1023800051C0E091760381E08E0F809376038091B7
:10239000BB00F0E0EA5AFC4F8083BDCF85EC809310
:1023A000BC001092E40380917603803230F4E09117
:1023B0007603F0E0EA5AFC4F10826091760370E0F9
:1023C000E0915403F091550386E593E0099510924E
:1023D000760336C084E08093E40310925303109296
:1023E0005203E0915003F0915103099580915203FB
:1023F000811105C081E08093520310923003E09177
:10240000530381E08E0F80935303F0E0E05DFC4FB7
:1024100080818093BB009091530380915203981761
:1024200008F479CF85E88093BC000AC085EC8093DE
:10243000BC001092E40304C01092E2030E94840CDA
:10244000FF91EF91BF91AF919F918F917F916F918C
:102450005F914F913F912F910F900FBE0F901F9062
:102460001895DF92EF92FF920F931F93CF93DF9314
:10247000EC01D62E7A01890188818C3008F06AC07F
:1024800061E08D2D0E943A0B8881E82FF0E09F01DA
:10249000220F331FE20FF31FEE5AFA4F9D2D9F7349
:1024A0002081207CD22ED92AD08260E272E0AB015A
:1024B0004E195F0957FF02C04D5F5F4F5595479515
:1024C00055954795498340E659E09A01201B310B09
:1024D00037FF02C02D5F3F4F3595279535952795DE
:1024E0002A836CE00E9493189CE0899FB00111241C
:1024F00040E050E09A01260F371FF901EE0FFF1F51
:102500002E0F3F1FF901EE5AFA4F908196FD16C02B
:102510004F5F5F4F4C30510569F781110FC010922A
:10252000800082E0809381001092850010928400E8
:10253000B19A80916F00826080936F00E881F0E033
:10254000CF01880F991FE80FF91FEE5AFA4F8081CB
:10255000806480838881DF91CF911F910F91FF90DC
:10256000EF90DF9008950F931F93CF93DF93EC01CB
:1025700006EA14E0D8018D919C91DC01ED91FC916B
:102580006C2F6F770190F081E02D0995F801808123
:102590009181DC01ED91FC91CC0FCD2FCC1FDD0B97
:1025A0006C2F6F770190F081E02DDF91CF911F911B
:1025B0000F9109948091A6049091A704DC01ED91FC
:1025C000FC910190F081E02D67EF09948091A604C1
:1025D0009091A704DC01ED91FC910190F081E02D38
:1025E00060EF0994CF93DF93EB01A091A604B09123
:1025F000A704ED91FC9111978F70682F606E019088
:10260000F081E02DCD010995CE01DF91CF910C94A1
:10261000B312EF92FF920F931F93CF93DF9300D0EB
:102620001F92CDB7DEB7162F4A835B8389830E9442
:10263000E612A091A604B091A704ED91FC91119728
:102640000190F081E02D8981682FCD0109954A81A3
:10265000042FE42E5B81F52E8E2D801B811738F41C
:10266000F70181917F0190E00E94B312F5CF0F90A6
:102670000F900F90DF91CF911F910F91FF90EF90EE
:102680000C94DA12FC0101900020E9F73197BF01A8
:10269000681B790BAC0181E70C940913382F20914A
:1026A000080490910704213208F049C08091E403A6
:1026B0008111FCCF42E04093E4033093E3033FEF0A
:1026C0003093E2031092E1032093E003A7EEB3E01E
:1026D00040EC53E0FA013E2F341B321718F43D91C1
:1026E0003193F9CF1092BF032091BF03990F922B22
:1026F0009093BF039091BE03913061F41092BE039A
:102700009091BF039093BB009091BC0093FDF8CFD4
:1027100095EC01C095EE9093BC009091E40392304B
:10272000E1F39091E2039F3F79F08091E2038032E0
:1027300041F08091E203803331F084E005C081E014
:1027400003C082E001C083E01092E6031092080407
:102750001092E5030895A091A604B091A704ED910D
:10276000FC9111970190F081E02D682FCD01099423
:10277000CF93DF93C6EAD4E088819981DC01ED91A3
:10278000FC910190F081E02D69EF09958881998194
:10279000DC01ED91FC910190F081E02D62E0099562
:1027A00088819981DC01ED91FC910190F081E02D0F
:1027B00065E0DF91CF910994CF930E94E61280915A
:1027C000A6049091A704DC01ED91FC910190F081A9
:1027D000E02D69E709958091A6049091A704DC019A
:1027E000ED91FC91A091A904B091AA040190F0810F
:1027F000E02D6C9109958091A6049091A704DC01CD
:10280000ED91FC91A091A904B091AA040190F081EE
:10281000E02D11966C910995C2E08091A804C8172B
:1028200060F4E091A904F091AA04EC0FF11D8081FD
:1028300090E00E94B312CF5FF0CFCF910C94DA12E8
:10284000CF92DF92EF92FF920F931F93CF93DF937C
:10285000EC016A017B01E889F98982E080834115F6
:10286000514E61057105B1F060E079E08DE390E0D3
:10287000A70196010E94401A89019A01015011098D
:102880002109310936952795179507959801011566
:102890001041A8F0E889F989108260E874E88EE1B7
:1028A00090E0A70196010E94401ADA01C901019740
:1028B000A109B109B695A795979587959C01EC85D7
:1028C000FD853083EE85FF852083188EEC89FD8998
:1028D00086E08083EA89FB89808180618083EA8940
:1028E000FB89808188608083EA89FB898081806898
:1028F0008083EA89FB8980818F7D8083DF91CF91FE
:102900001F910F91FF90EF90DF90CF9008957894F2
:1029100084B5826084BD84B5816084BD85B58260E4
:1029200085BD85B5816085BD80916E008160809395
:102930006E001092810080918100826080938100FE
:10294000809181008160809381008091800081600E
:10295000809380008091B10084608093B100809169
:10296000B00081608093B00080917A008460809391
:102970007A0080917A00826080937A0080917A0058
:10298000816080937A0080917A00806880937A00D9
:102990001092C10089E18093A8048091A9049091CC
:1029A000AA040E946219C091A804D0E0CE01019649
:1029B0000E94CD189093AA048093A904FC01EC0F07
:1029C000FD1F108222E0DC012C9325E011962C9350
:1029D000AE01425051096EE272E002960E94FF1968
:1029E0008CEC91E0909334058093330580E391E083
:1029F00090933605809335058BEF90E090933805E2
:102A0000809337058AE096E090933A0580933905E4
:102A100084E393E090933C0580933B0586EE90E041
:102A200090933E0580933D058CEE96E0909344058F
:102A30008093430585EB94E09093400580933F0598
:102A400081E08093450540E051EE60E070E089E070
:102A500094E00E94201489E094E09093A70480936E
:102A6000A60480914505811150C061E08DE00E946F
:102A70003A0B62ED70E080E090E00E945C0A61E059
:102A80008DE00E94EE0A68E270E080E090E00E9433
:102A90005C0A60E08DE00E94EE0A62ED70E080E08A
:102AA00090E00E945C0A61E08DE00E94EE0A68E21C
:102AB00070E080E090E00E945C0A60E08DE00E949F
:102AC000EE0A6AEF70E080E090E00E945C0AC0E0ED
:102AD00062ED70E080E090E00E945C0A61E08DE0D1
:102AE0000E94EE0A68E270E080E090E00E945C0ADA
:102AF00060E08DE00E94EE0ACF5FC53049F76DE7D8
:102B000070E080E090E00E945C0A0E94B81380911F
:102B1000A80481110E94DC130E94B50411E002E0B8
:102B200035E0F32E8091D302882349F069B180917A
:102B3000D00268236C7F40E080E00E94C505809150
:102B4000D402882379F063B196B1B0E49B9FC001B1
:102B500011246F73862B6091D102682340E081E0DD
:102B60000E94C5058091D5028823D9F066B16C73A7
:102B7000669566958091D202682340E082E00E94CB
:102B8000C5050FC08091A6049091A704DC01ED91CA
:102B9000FC910680F781E02D09958F3FBFEF9B07E1
:102BA00071F48091A6049091A704DC01ED91FC9151
:102BB0000480F581E02D0995892B21F71DC1382F5F
:102BC0002091EE04222309F466C0873F09F054C027
:102BD0001092EE048091AE04813751F0893709F0EC
:102BE0003DC08091A8048823E1F20E94DC13D9CF74
:102BF000E0914105F0914205309799F22091EF0460
:102C00003091F004C901019797FDC9019595879509
:102C1000682FAEEAB4E040E050E030E04E5F5F4F36
:102C2000361768F4EA01CA55DB4F2F812C9378855B
:102C3000C0E87C9F201911242D933F5FEFCF992787
:102C4000DC01AA55BB4F17968C911797882311F07A
:102C500018961C928EEA94E00995A3CFE091430563
:102C6000F0914405309709F49CCF6091EF046150D6
:102C70004FEA54E0099595CF2091EF043091F0048C
:102C8000F901EA55FB4F80872F5F3F4F3093F004E7
:102C90002093EF0486CF2091AB04222309F469C06E
:102CA00087FD67C09FEF920F9093AB04E92FF0E090
:102CB000EA55FB4F8087911174CF8091AC04882333
:102CC00009F46FCF803D09F445C050F4803901F11B
:102CD000803C09F04BC0E0913705F09138053EC0CB
:102CE000843F39F1853F51F1803E09F03FC0E091CA
:102CF0003305F09134053097C9F18091AE046091AD
:102D0000AF0470E020E8829F600D711D11242BC07C
:102D1000E0913505F0913605309741F18091AE0490
:102D20006091AF0470E090E8899F600D711D1124DF
:102D30001AC0E0913B05F0913C0504C0E0913D05CF
:102D4000F0913E05309791F06091AE0470E0809173
:102D5000AF040BC0E0913905F0913A05309731F09E
:102D60006091AE0470E08091AD0409951092AC04BE
:102D700018CF303F38F4282F207F30E08F708093B9
:102D8000AD0402C09C013327203F310559F17CF48A
:102D9000203C310511F124F420393105D9F001CF5F
:102DA000203D3105D1F0203E3105A1F0FACE293F7A
:102DB0003105F9F034F4C901845F9109029750F0AC
:102DC000F0CE2F3F310509F0ECCE86EA94E00E9468
:102DD000E810E7CE0093AB0402C01093AB0420933D
:102DE000AC04DFCE1093EE041092F0041092EF04C6
:102DF000D8CE0E94B813D5CE8FB7F8948090D60263
:102E00009090D702A090D802B090D9028FBF809244
:102E10000A0390920B03A0920C03B0920D038091D1
:102E2000060390910703A0910803B0910903409114
:102E300001015091020160E070E0881A990AAA0A23
:102E4000BB0A481559056A057B0530F08091BD0520
:102E500087FD7DC0B12C65C0840F951FA61FB71FCD
:102E60008093060390930703A0930803B09309038C
:102E700091EFC92E94E0D92EC2EFC830B8F4F60114
:102E80008081823099F480910403909105030C2E87
:102E900002C0959587950A94E2F780FF07C08C2FB2
:102EA0000E94760BBC018C2F0E94F212CF5FFFEFC5
:102EB000CF1ADF0AC83009F78091000187FDC6CF1D
:102EC000C0E02C2F30E080910001082E000C990BFF
:102ED000821793070CF4BACFF29EF001F39EF00D27
:102EE0001124E452FD4F61817281248143818081EC
:102EF0000E943106CF5FE5CFFC01E556FA4FE28034
:102F0000EE2DF0E0EE0FFF1FEB55FA4FC080D180A1
:102F10006E2D8BE995E00E94900EEC01892B61F4F7
:102F2000B3948B2D90E02091BD05022E000C330B45
:102F3000281739070CF70BC027E02E1558F480919D
:102F4000DA029091DB02C817D90751F703C00E943B
:102F5000500AE8CDE881F9810480F581E02DCE01A9
:102F6000099518161906E4F680EF0E94AB1380E667
:102F70000E94AB138E2D80640E94AB13C114D10448
:102F800051F0E881F9810480F581E02DCE010995A9
:102F9000C816D90644F0E881F9810480F581E02D56
:102FA000CE0109956C011C141D04ACF4E881F98173
:102FB0000680F781E02DCE010995E82E8F770E94DB
:102FC000AB138E2D881F8827881F0E94AB1381E0CA
:102FD000C81AD108E8CF87EF0E94AB13A1CFCF92D8
:102FE000DF92EF92FF9210920C0410920B0478EE95
:102FF000C72E73E0D72EE12CF12CC0920D04D09295
:103000000E04E0920F04F092100481E291E090939C
:103010000A048093090485EC90E090931604809351
:10302000150484EC90E0909318048093170480ECCE
:1030300090E090931A048093190481EC90E09093AF
:103040001C0480931B0482EC90E090931E048093F8
:103050001D0486EC90E09093200480931F0410924E
:10306000220410922304109224041092250410923A
:10307000A8041092AA041092A9041092450586EAA9
:1030800094E00E94E8101092490510924805C09201
:103090004A05D0924B05E0924C05F0924D0581E334
:1030A00091E0909347058093460589E591E09093E0
:1030B0009C0580939B051092BF051092BE0510924F
:1030C000C1051092C0051092C3051092C20510925E
:1030D000C5051092C4058FEF8093BD0580917605DC
:1030E000A7E7B5E09FEF48EB5BE08C3078F48C937A
:1030F000282F30E0F901EE0FFF1F2E0F3F1FF901BF
:10310000EE5AFA4F528341838F5F01C09C9313960E
:1031100025E0AB39B20749F780937605FF90EF9031
:10312000DF90CF900895991B79E004C0991F9617FE
:1031300008F0961B881F7A95C9F78095089597FB2C
:10314000072E16F4009407D077FD09D00E94B91815
:1031500007FC05D03EF4909581959F4F089570959A
:1031600061957F4F0895EE0FFF1F0590F491E02DBC
:103170000994AA1BBB1B51E107C0AA1FBB1FA617BE
:10318000B70710F0A61BB70B881F991F5A95A9F710
:1031900080959095BC01CD010895CF93DF93823047
:1031A000910510F482E090E0E091C805F091C90526
:1031B00020E030E0C0E0D0E0309711F14081518153
:1031C00048175907C0F04817590761F48281938165
:1031D000209719F09B838A832BC09093C905809315
:1031E000C80526C02115310519F04217530718F4F8
:1031F0009A01BE01DF01EF010280F381E02DDCCFF7
:103200002115310509F1281B390B2430310590F4C3
:1032100012968D919C9113976115710521F0FB0118
:103220009383828304C09093C9058093C805FD01F0
:10323000329644C0FD01E20FF31F81939193225017
:1032400031092D933C933AC02091C6053091C705B2
:10325000232B41F420910501309106013093C705DD
:103260002093C605209103013091040121153105F9
:1032700041F42DB73EB74091070150910801241B3E
:10328000350BE091C605F091C705E217F307A0F4EE
:103290002E1B3F0B2817390778F0AC014E5F5F4FAC
:1032A0002417350748F04E0F5F1F5093C705409312
:1032B000C6058193919302C0E0E0F0E0CF01DF9179
:1032C000CF9108950F931F93CF93DF93009709F445
:1032D0008CC0FC013297138212820091C8051091B4
:1032E000C9050115110581F420813181820F931FD9
:1032F0002091C6053091C7052817390779F5F09355
:10330000C705E093C60571C0D80140E050E0AE1794
:10331000BF0750F412962D913C911397AD012115E2
:10332000310509F1D901F3CF9D01DA0133832283FD
:1033300060817181860F971F8217930769F4EC01F2
:1033400028813981260F371F2E5F3F4F318320831D
:103350008A819B8193838283452B29F4F093C9054D
:10336000E093C80542C01396FC93EE931297ED01CB
:10337000499159919E01240F351FE217F30771F40B
:1033800080819181840F951F029611969C938E9354
:103390008281938113969C938E931297E0E0F0E0E4
:1033A000D80112968D919C911397009719F0F8010E
:1033B0008C01F6CF8D919C9198012E5F3F4F820F2B
:1033C000931F2091C6053091C7052817390769F466
:1033D000309729F41092C9051092C80502C01382D3
:1033E00012821093C7050093C605DF91CF911F91FC
:1033F0000F91089581E090E0F8940C94711AFB010C
:10340000DC014150504048F001900D920020C9F776
:1034100001C01D9241505040E0F70895052E97FBE2
:103420001EF400940E94251A57FD07D00E94401AEE
:1034300007FC03D04EF40C94251A50954095309516
:1034400021953F4F4F4F5F4F089590958095709510
:1034500061957F4F8F4F9F4F08950E94621AA59FDD
:10346000900DB49F900DA49F800D911D112408957F
:10347000B7FF0C942D1A0E942D1A821B930B0895EE
:10348000A1E21A2EAA1BBB1BFD010DC0AA1FBB1F68
:10349000EE1FFF1FA217B307E407F50720F0A21BDA
:1034A000B30BE40BF50B661F771F881F991F1A9447
:1034B00069F760957095809590959B01AC01BD0171
:1034C000CF010895A29FB001B39FC001A39F700DCB
:1034D000811D1124911DB29F700D811D1124911D1C
:0634E0000895F894FFCFEF
:1034E600FF13000000CA0580000100000000000074
:1034F60000A60B6309FA0B120C8D0BA50B0000003E
:1035060000E7096309B0098E09A2092E0A00000026
:1035160000120DE20CDA0CC60CB70CB60C0000005B
:10352600005A0A63095A0A5A0A5A0A5A0A00000035
:10353600005A0A630900000000720C730CC70EA93A
:103546000E4D617820736572766F732061747461B5
:103556006368656400556E6B6E6F776E2070696E7A
:10356600206D6F6465004932433A20546F6F206DB9
:10357600616E792062797465732072656365697618
:103586006564004932433A20546F6F2066657720A0
:103596006279746573207265636569766564003166
:1035A600302D6269742061646472657373696E6735
:1035B600206E6F7420737570706F7274656400741A
:1035C6006F6F206D616E7920717565726965730024
:1035D600433A5C55736572735C4A6F6F785C4465F9
:1035E600736B746F705C5374616E64617264466968
:1035F600726D617461506C75735C5374616E646155
:1036060072644669726D617461506C75735C537453
:10361600616E646172644669726D617461506C7545
:10362600732E696E6F0053706563696679207365E2
:103636007269616C20525820616E64205458207063
:04364600696E730036
:00000001FF
