:100000000C9459010C9483010C9483010C9483018A
:100010000C9483010C9483010C9483010C94830150
:100020000C9483010C94F7160C94F7160C94F716A5
:100030000C9483010C9483010C9483010C94830130
:100040000C9483010C9417080C9483010C94830185
:100050000C9483010C9483010C9483010C94471637
:100060000C9483010C942F150C9405150C948301AA
:100070000C9483010C9483010C9483010C948301F0
:100080000C94E9070C9483010C9483010C94830174
:100090000C94DB140C94B1140C9483010C943D105B
:1000A0000C9483010C9483010C94BB070C94830182
:1000B0000C9483010C9483010C9483010C948D07A0
:1000C0000C9483010C9483010C9483010C94871489
:1000D0000C945D140C9483010C9433140C94091447
:1000E0000C9483010D061E061E061E061E061E0625
:1000F0001E061E061E06FB051E065F051E06BA0529
:100100001E063D05E5041E061E061E061E061E06EC
:10011000BF031E069C041E06290536093B0940093B
:100120004A095409CD095E0966096E0978098209F0
:100130008C099B09A509CD09AF09B909C309000CB0
:10014000270CEE0B410C5D0C9B0C860C9B0C9B0C46
:100150009B0C920C100C6F0D720D750D8C0D8C0D8F
:100160008C0D8C0D780D7D0D820D870D0113041300
:10017000F312F712FD123B1308130C13121316138C
:100180001A132013241328133B132E133213361380
:1001900000002100240027002A002D003000330039
:1001A00001010000040107010A01000022002500EE
:1001B00028002B002E003100340002010000050150
:1001C00008010B01000020002300260029002C005C
:1001D0002F0032000001000003010601090105059E
:1001E0000505070508080808020202020A0A0808AD
:1001F00004040404010101010101010103030303DB
:1002000003030303040707070C0C0C0C0C0C0C0C69
:100210000202020206060606060606060B0B0B0B7A
:100220000B0B0B0B0102102020080810204010209F
:1002300040800201020108040201010204081020AA
:1002400040808040201008040201800402018040A8
:100250002010080402010804020101020408102011
:100260004080010204081020408000000A0B0209AF
:100270000C0D0E0807030401000000000000000040
:10028000000000000000000000000000000000006E
:10029000000000000000121110000000000000002B
:1002A000000000000000000000000000000000004E
:1002B000E71F11241FBECFEFD1E2DEBFCDBF2AE082
:1002C000ACE5B3E001C01D92AA36B207E1F713E036
:1002D000A0E0B2E0E4E4F6E400E00BBF02C0079067
:1002E0000D92AC35B107D9F711E0C9E5D1E004C0F2
:1002F0002197FE010E945F21C835D107C9F70E94EE
:100300005F190C9420230C94000080918F0490E0DE
:1003100020919004821B91090895CF92DF92EF9271
:10032000FF920F931F93CF93DF937C01262F972F7C
:100330008A0180914605882391F0C62FD72F6E0140
:10034000C40ED51ECC15DD0571F06991D701ED9174
:10035000FC910190F081E02DC7010995F3CF642F46
:10036000822F0E946F11C801DF91CF911F910F91D1
:10037000FF90EF90DF90CF900895CF93DF931F927F
:10038000CDB7DEB76983209146052223D1F02091B5
:100390006905203240F021E030E0FC013383228304
:1003A00080E090E015C080914705E82FF0E0E85B21
:1003B000FA4F998190838F5F8093470580936905F9
:1003C00005C061E0CE0101960E946F1181E090E0CE
:1003D0000F90DF91CF910895CF92DF92EF92FF922D
:1003E0000F931F93CF93DF936C018B017A01EC0184
:1003F000C550DC4F888187FF04C0FB011182108249
:1004000024C08CE08C9D90018D9D300D112488813D
:10041000A901480F511D87FD5A958091AA0990E0C6
:100420004817590794F48881A901480F511D87FD89
:100430005A95CA01FA01EE0FFF1F8E0F9F1FFC0194
:10044000E65EF64F808186FD19C088818F5F8883C4
:100450008CE08C9D90018D9D300D11248881A90127
:10046000480F511D87FD5A958091AA0990E04817C1
:100470005907BCF488818C3044F113C08881280F5F
:10048000311D87FD3A95F901EE0FFF1F2E0F3F1F1B
:10049000F901E65EF64F808160E08F730E9482155D
:1004A000D4CFF80180819181049680349C4918F45E
:1004B00080E49CE904C0F801808191810496F701F1
:1004C000918380838FEF888345C0F80140815181FB
:1004D0008881B901680F711D87FD7A95CB01FB01F9
:1004E000EE0FFF1F8E0F9F1FFC01E65EF64F81810E
:1004F0009281840F951FF701918380838881A901E0
:10050000480F511D87FD5A95CA01FA01EE0FFF1FD2
:100510008E0F9F1FFC01E65EF64F808186FF1AC09A
:100520008881280F311D87FD3A95F901EE0FFF1FD5
:100530002E0F3F1FF901E65EF64F808161E08F7359
:10054000DF91CF911F910F91FF90EF90DF90CF90AF
:100550000C948215DF91CF911F910F91FF90EF9036
:10056000DF90CF900895AF92BF92CF92DF92EF923B
:10057000FF920F931F93CF93DF931F92CDB7DEB7F8
:10058000893008F092C0982F990F990F990F985FB2
:10059000973408F096E4D62EB82EBB0CBB0CBB0CDF
:1005A000FB2CA12CCC24C394F91610F58EEF8F0DE3
:1005B0008434D8F40F2D10E0F801E75DF74F208167
:1005C000223098F4EE24E3948C2D8D2109F4E12C53
:1005D000000F111F213009F055C0AC28F801E15976
:1005E000F74F2E2D30E031832083CC0CF394DCCFF9
:1005F000A0FE05C06D2D61708B2D0E948215A1FE9D
:1006000006C06D2D627081E08B0D0E948215A2FEE6
:1006100006C06D2D647082E08B0D0E948215A3FED2
:1006200006C06D2D687083E08B0D0E948215A4FEBC
:1006300006C06D2D607184E08B0D0E948215A5FEB1
:1006400006C06D2D607285E08B0D0E948215A6FE9E
:1006500006C06D2D607486E08B0D0E948215A7FE8A
:1006600024C06D2D607887E08B0D0F90DF91CF91C6
:100670001F910F91FF90EF90DF90CF90BF90AF90C0
:100680000C948215EE2009F4A9CFF801E159F74F37
:10069000208131812130310509F4A0CF62E08F2D16
:1006A00099830E94B215998199CF0F90DF91CF91D4
:1006B0001F910F91FF90EF90DF90CF90BF90AF9080
:1006C00008950F931F93CF93DF9381E08093FA03F4
:1006D0008BE39AE00E948F0D8091F903882329F023
:1006E0001092F9038FEF80930002CCE5D3E0A0EFE6
:1006F000B3E0E5E6F3E089E08E0F119219921D92C6
:100700008E13FBCF0AEA13E0C0E0DFEF8AEC8C0F18
:10071000803118F462E070E006C08EEF8C0F8434F4
:1007200028F461E070E08C2F0E945B0BF801D193FC
:100730008F01CF5FC63451F710929D0310929C0336
:100740001092A9031092A8031092FA03DF91CF919F
:100750001F910F910895EF92FF920F931F93CF93E4
:10076000DF9390E0FC01E056F109EB31F10508F070
:1007700065C2EA01162FEE58FF4F0C945F212981C4
:10078000922F987125FF03C08FEA92E05AC08881AA
:1007900031E026FB222720F92327983069F160F405
:1007A00091114CC23093460580936805109247051D
:1007B0001092690502E007C0903109F43CC09831FD
:1007C00009F46DC03BC2011778F4FE01E00FF11D82
:1007D0008181608120E8829F601911248EE099E078
:1007E0000E94BD010E5FEFCF81E00E94261883E1D9
:1007F00091E00197F1F722C24A816B81163069F4CA
:1008000030E8639FB0011124640F711D9D814C81FC
:10081000E0E89E9F4019112406C0F0E86F9F401940
:1008200011246FEF7FEFDF91CF911F910F91FF9018
:10083000EF900C942F0AE0910002E73054F08FEC17
:1008400092E0DF91CF911F910F91FF90EF900C9468
:100850001A189A814B81663069F430E8439FA001F1
:100860001124490F511D3D819C8160E8369F9019EC
:10087000112406C0F0E84F9F901911244FEF5FEF4D
:10088000EF5FE093000235E0E302F0011124EC5841
:10089000FC4F80835283418393832483CFC1209173
:1008A0000002121614F08FEF44C090E0622F022E67
:1008B000000C770B35E0492F50E06417750774F092
:1008C000349FF001359FF00D1124EC58FC4F40810E
:1008D000481302C085E026C09F5FEDCF90E0FACFBD
:1008E0009830F8F4FA0131968E9FD0018F9FB00DA9
:1008F0001124AC58BC4F3C91849FF001859FF00DB2
:100900001124EC58FC4F308311964D915C91129755
:100910005283418313963C911397338314963C91F1
:1009200034839F5F492F50E064177507CCF68FEF33
:10093000820F8093000282C12881898160E8869FAE
:10094000C0011124820F911D009721F09093A703FD
:100950008093A6038091F903811170C1C0E08CEEF1
:100960008C0F823028F466E070E08C2F0E945B0BC5
:10097000CF5FC634A1F781E08093F9031092900411
:1009800010928F0410924705109269051092450548
:100990008093440510921F0561E084E10E94821556
:1009A00061E085E10E9482158091B9008E7F80937D
:1009B000B9008091B9008D7F8093B90088E480935D
:1009C000B80085E48093BC0039C1653008F436C1B5
:1009D0001881F9800A81EB80CC818EEF810F8434FD
:1009E00008F02CC1E12FF0E0E655FC4F20812033C8
:1009F000B0F430E0F901EE0FFF1F2E0F3F1FF90199
:100A0000E555F64F208130E0F901EE0FFF1F2E0F64
:100A10003F1FF901E65EF64F808186FD0BC180E83D
:100A2000C89FA00111244E0D511D90E8099FB001EF
:100A300011246F0D711D812F0E941D0B64E070E069
:100A4000812FDF91CF911F910F91FF90EF900C9428
:100A50005B0B623008F4F2C028818981E0E88E9F48
:100A6000C0011124820F911D009711F481E090E0E4
:100A70009093020280930102E1C0623008F4DEC06C
:100A8000698170E0123091F08A81F0E88F9FC00197
:100A90001124682B792B133049F08B8190E090E47E
:100AA000899F902D88271124682B792B8881DF91CD
:100AB000CF911F910F91FF90EF900C945A0880EF07
:100AC0000E9483188CE60E948318CEEFD2E0DC0FE0
:100AD000C43490F480E00E94831881E00E9483185F
:100AE0008BE00E94831881E00E94831881E00E94BD
:100AF000831881E00E9483188CEC8C0F803138F4CD
:100B000082E00E9483188AE00E94831802C0CC30E1
:100B100020F086ED8C0F833030F483E00E94831840
:100B200088E00E948318C43430F484E00E94831863
:100B30008EE00E9483188EEE8C0F823030F486E0B7
:100B40000E94831881E00E9483186D2F8BE39AE046
:100B50000E94400D8FE70E948318CF5FC43409F0D4
:100B6000B5CF87EFDF91CF911F910F91FF90EF905D
:100B70000C948318662309F461C0C88180EF0E9439
:100B800083188EE60E9483188C2F0E948318C63427
:100B900040F7D0E0FE01E75DF74F80810E948318A7
:100BA000CC0FDD1F8E010159174FF80180818F771F
:100BB0000E948318F801808191819C012078232B69
:100BC00039F0880F892F881F990B8F770E9483181F
:100BD000C159D74F888199819C012227307C232BD2
:100BE00009F4BFCF990F880B990F982F881F8F7723
:100BF0000E948318B6CF80EF0E9483188AE60E9475
:100C00008318CAECC03110F48C2F01C08FE70E940A
:100C10008318CF5FC031B1F7A4CF9A01462F60E6A9
:100C20008BE39AE0DF91CF911F910F91FF90EF90AE
:100C30000C94AD0D812F0E94EA0AF1CEDF91CF9185
:100C40001F910F91FF90EF9008950F931F93CF93F3
:100C5000DF93082F893008F078C090E0FC01EB5951
:100C6000FC4F6083672B09F470C0FC01E45AFC4F11
:100C70001081D02FDD0FDD0FDD0F8EEF8D0F84344F
:100C800008F053C010FF51C08D2F0E945915892BB9
:100C900009F44BC0C1E08FEF8D0F843448F411FF8D
:100CA00007C081E08D0F0E945915892B09F03FC0C4
:100CB00012FF06C082E08D0F0E945915892BC9F5DD
:100CC00013FF06C083E08D0F0E945915892B99F5FB
:100CD00014FF06C084E08D0F0E945915892B69F519
:100CE00015FF06C085E08D0F0E945915892B39F537
:100CF000D03491F016FF06C086E08D0F0E94591582
:100D0000892BF9F4DF3340F417FF06C087E08D0F1D
:100D10000E945915892BB9F441E06C2F802FDF9187
:100D2000CF911F910F910C94EA09C0E0B4CFC2603B
:100D3000BFCFC460C5CFC860CBCFC061D1CFC062C8
:100D4000D7CFC064DFCFC068E7CFDF91CF911F91CD
:100D50000F910895CF93803180F540919C0350917D
:100D60009D0321E030E0672B81F4B90102C0660FDA
:100D7000771F8A95E2F7CB01809590958423952380
:100D800090939D0380939C0318C0082E02C0220FED
:100D9000331F0A94E2F7242B352B30939D032093C5
:100DA0009C039091FA03911108C0C82F0E94EE1580
:100DB000BC018C2FCF910C94CA17CF910895DF926C
:100DC000EF92FF920F931F93CF93DF93EC01D62EF8
:100DD0007A0189018881803308F06AC061E08D2D35
:100DE0000E94B2158881E82FF0E09F01220F331F87
:100DF000E20FF31FE65EF64F9D2D9F732081207C4E
:100E0000D22ED92AD08260E272E0AB014E195F097E
:100E100057FF02C04D5F5F4F5595479555954795D4
:100E2000498340E659E09A01201B310B37FF02C08D
:100E30002D5F3F4F35952795359527952A836CE093
:100E40000E943F219CE0899FB001112440E050E0C6
:100E50009A01260F371FF901EE0FFF1F2E0F3F1FBC
:100E6000F901E65EF64F908196FD16C04F5F5F4F29
:100E70004C30510569F7813021F51092800082E0F5
:100E8000809381001092850010928400B19A809125
:100E90006F00826080936F00E881F0E0CF01880FDF
:100EA000991FE80FF91FE65EF64F8081806480830A
:100EB0008881DF91CF911F910F91FF90EF90DF908C
:100EC0000895823061F41092900080939100109206
:100ED00095001092940088BB80937100DDCF833021
:100EE00069F41092A00082E08093A1001092A50006
:100EF0001092A40089BB80937200CECF8111CCCF19
:100F00001092200182E0809321011092250110921D
:100F100024018ABB80937300BFCF1F920F920FB63C
:100F20000F9211240BB60F922F933F934F935F9321
:100F30006F937F938F939F93AF93BF93EF93FF93A1
:100F400048E251E064E271E080E090E00E94EC0150
:100F5000FF91EF91BF91AF919F918F917F916F9191
:100F60005F914F913F912F910F900BBE0F900FBE4D
:100F70000F901F9018951F920F920FB60F92112489
:100F80000BB60F922F933F934F935F936F937F9383
:100F90008F939F93AF93BF93EF93FF9348EA50E0F3
:100FA00064EA70E083E090E00E94EC01FF91EF9131
:100FB000BF91AF919F918F917F916F915F914F9171
:100FC0003F912F910F900BBE0F900FBE0F901F906F
:100FD00018951F920F920FB60F9211240BB60F9215
:100FE0002F933F934F935F936F937F938F939F9331
:100FF000AF93BF93EF93FF9348E950E064E970E04B
:1010000082E090E00E94EC01FF91EF91BF91AF91DF
:101010009F918F917F916F915F914F913F912F9110
:101020000F900BBE0F900FBE0F901F9018951F9240
:101030000F920FB60F9211240BB60F922F933F937E
:101040004F935F936F937F938F939F93AF93BF93D0
:10105000EF93FF9348E850E064E870E081E090E0AF
:101060000E94EC01FF91EF91BF91AF919F918F9101
:101070007F916F915F914F913F912F910F900BBE98
:101080000F900FBE0F901F9018959EEF980F9434FD
:1010900080F4E82FF0E0DF01A75DB74F9C9191301D
:1010A00041F4EE0FFF1FE159F74F608371830C94F9
:1010B000821508956F927F928F929F92AF92BF9206
:1010C000CF92DF92EF92FF920F931F93CF93DF9314
:1010D0001F92CDB7DEB7982F3B01863408F06AC166
:1010E000082F10E0F801E75DF74F8081833009F4A5
:1010F00090C0843009F05EC19250943408F053C11E
:10110000F801E655FC4FE080F12C6701CC0CDD1CAA
:10111000603282E078070CF042C077FD05C0653B85
:10112000710524F4DB0104C0A0E001C0A4EBB0E031
:10113000F601EE0DFF1DE555F64F818128E830E000
:101140004901881A910887FD9394880C991C880C92
:10115000991C092C000CAA08BB08828128E532E002
:10116000281B310987FD3395220F331F220F331FB0
:10117000A901330F660B770B9A01AB0128193909C6
:101180004A095B090E94E72224EB30E040E050E08E
:101190000E94BD22820E931EA41EB51E01C04B01EB
:1011A000F601EE0DFF1DE555F64F2081203308F0C6
:1011B000FAC0318188E890E0831B910937FD93954F
:1011C000880F991F880F991F8816990684F08281CD
:1011D00048E552E0481B510987FD5395440F551FC0
:1011E000440F551FC401481559050CF4CA01029754
:1011F000880F991F4FB7F89430E0F901EE0FFF1FE9
:101200002E0F3F1FF901E65EF64F928381834FBF99
:10121000CAC08EEF890F8C3028F084ED890F83309F
:1012200008F0C1C061E0892F99830E94B2159981AD
:101230006114710411F460E005C08FEF6816710449
:1012400029F461E0892F0E948215ADC0F801E659AA
:10125000FD4FE4914E2F50E0FA013197E231F10554
:1012600008F09BC0E357FF4F0C945F2184B5806862
:1012700084BD67BC98C084B5806284BD68BC93C0DF
:1012800080918000806880938000709289006092D5
:10129000880089C080918000806280938000709275
:1012A0008B0060928A007FC080918000886080936C
:1012B000800070928D0060928C0075C08091B000AB
:1012C00080688093B0006092B3006DC08091B000E0
:1012D00080628093B0006092B40065C080919000FD
:1012E00080688093900070929900609298005BC033
:1012F0008091900080628093900070929B00609239
:101300009A0051C080919000886080939000709204
:101310009D0060929C0047C08091A00080688093EF
:10132000A0008091A0008F7B8093A0007092A90004
:101330006092A80038C08091A00080628093A000D5
:101340007092AB006092AA002EC08091A0008860CD
:101350008093A0007092AD006092AC0024C0809198
:1013600020018068809320017092290160922801F9
:101370001AC08091200180628093200170922B011D
:1013800060922A0110C08091200188608093200122
:1013900070922D0160922C0106C080E868167104DD
:1013A0000CF04FCF48CF000F111FF801E159F74F54
:1013B000718260820F90DF91CF911F910F91FF900A
:1013C000EF90DF90CF90BF90AF909F908F907F90E5
:1013D0006F9008950F931F93CF93082F10E0F8019B
:1013E000E45AFC4F9081C62FC92300511C4F411174
:1013F00004C0D8019C919C1771F1682F8091DE0781
:101400009091DF07DC01ED91FC916F7060690190B4
:10141000F081E02D09958091DE079091DF07DC01D6
:10142000ED91FC916C2F6F770190F081E02D099583
:101430008091DE079091DF07DC01ED91FC916C2F2C
:1014400070E0660F672F661F770B0190F081E02D2B
:101450000995F801C083CF911F910F910895CF9204
:10146000DF92EF92FF920F931F93CF93DF931F9220
:10147000CDB7DEB7082F6B01142F6F3F8FEF7807C2
:1014800009F181E0809346050093680510924705B5
:10149000109269058EE099E029830E94BD0129819F
:1014A000822F0E942618E091A603F091A703E23054
:1014B000F10550F0EE0FFF1FEE0FFF1F359731972C
:1014C000F1F702C0C12CD12C809145058111FCCFD0
:1014D000212F113208F020E281E0809345058093AE
:1014E00044059FEF9093430510924205920F90930D
:1014F00041058093200580912005902F990F892B1D
:101500008093200580911F05813061F410921F05A2
:10151000809120058093BB008091BC0083FDF8CFB3
:1015200085EC01C085EE8093BC008091450581303B
:10153000E1F380914205821710F420914205A1E267
:10154000B5E04FE654E0FA018E2F841B821718F4A1
:101550008D918193F9CF1092900420938F04E12E06
:10156000F12C30E0E216F3061CF480EE92E005C0A8
:101570002E153F0524F48DEF92E00E941A18009377
:101580002F04C0923004C12CD12CCE14DF0434F4CB
:1015900090918F0480919004981310C062E0610FC5
:1015A0004FE254E087E70F90DF91CF911F910F91A9
:1015B000FF90EF90DF90CF900C94E1178EE099E0D0
:1015C0000E94030DF601E15DFB4F82838FEFC81A85
:1015D000D80ADBCFA82FB0E0A655BC4F9C91292F8D
:1015E00030E0F901EE0FFF1F2E0F3F1FF901E55507
:1015F000F64FE081F0E09F01220F331FE20FF31F4F
:10160000E65EF64F80818F7B80838091A8039813DC
:1016100006C0992379F091509093A8030BC08823BA
:1016200049F0E091A903EF5FE093A903F0E0E250F5
:10163000FC4F90838FEF8C930895DB019091A8036A
:101640009033A8F53091A903682F70E0332369F037
:10165000E32FF0E0E250FC4F8081FB01E655FC4FA8
:10166000808331503093A90307C0FB01E655FC4F3E
:1016700090839F5F9093A803FB01E655FC4F808108
:1016800090E09C01220F331F820F931F1A161B0636
:1016900034F4141615061CF49A01AD0104C020E6BA
:1016A00039E040E252E08555964F0C94DF0689E11F
:1016B00093E00C941A188F929F92AF92BF92CF92A0
:1016C000DF92EF92FF920F931F93CF93DF931F92BE
:1016D000CDB7DEB7C82ED12C96012252384F490122
:1016E000F901E55BFF4F90819F3709F453C19630B4
:1016F00041F49091F903992321F06630710509F0C6
:101700002BC17B01182F0EEF080F0434F8F464305E
:101710007105E1F0F601E655FC4F80818033B0F4AD
:1017200090E0FC01EE0FFF1F8E0F9F1FFC01E5559F
:10173000F64F808190E0FC01EE0FFF1F8E0F9F1F80
:10174000FC01E65EF64F808186FD0CC19AEC910F9C
:10175000903168F461E070E082E0E816F10411F085
:1017600060E070E0892F99830E94AA069981043471
:1017700018F5E12FE695E695E695812F8770F0E064
:10178000E45AFC4FE114F10421F02BE0E216F104DD
:1017900049F421E030E001C0220F8A95EAF7808108
:1017A000282B09C021E030E001C0220F8A95EAF71A
:1017B00020958081282320835601AA0CBB1CF501AB
:1017C000E159F74F118210823CE0E316F10408F072
:1017D000B2C0F701E156FF4F0C945F21903108F041
:1017E000D9C0043420F460E0812F0E94B215F401C6
:1017F000E55BFF4F80818F3709F4CCC082E099C050
:10180000043408F0C7C060E0812F0E94B215F401D3
:10181000E55BFF4F80818F3709F4BCC01082BAC0EE
:10182000043408F0B7C062E0812F0E94B215F401C1
:10183000E55BFF4F80818F3711F08BE08083F501EE
:10184000E159F74F81E090E091838083A3C0043495
:1018500008F0A0C0F401E55BFF4F8081833021F4E4
:1018600060E0812F0E94821561E0812F0E94B215F5
:10187000F401E55BFF4F80818F3709F48BC081E075
:1018800058C00C3028F084ED810F833008F082C0FE
:1018900061E0812F0E94B21561E0812F0E94B21594
:1018A00060E0812F0E948215F401E55BFF4F80818B
:1018B0008F3709F46FC083E03CC0043408F06AC07D
:1018C000F401E55BFF4F80818F3711F084E0808366
:1018D000F601E655FC4F80818F3F09F447C090E048
:1018E000FC01EE0FFF1F8E0F9F1FFC01E555F64F09
:1018F000808190E0FC01EE0FFF1F8E0F9F1FFC0107
:10190000E65EF64F808186FD45C030C0145112302E
:1019100008F040C0F401E55BFF4F80818F37D1F1C3
:1019200086E007C0F401E55BFF4F80818F3791F1BE
:101930008AE080832FC08DE293E00F90DF91CF91FA
:101940001F910F91FF90EF90DF90CF90BF90AF90DD
:101950009F908F900C941A181092F9039FEF909318
:101960000002CFCE812F0E94EA0AF0CE4FEF5FEF48
:101970006FEF7FEF812F0F90DF91CF911F910F912C
:10198000FF90EF90DF90CF90BF90AF909F908F909F
:101990000C941D0B0F90DF91CF911F910F91FF9031
:1019A000EF90DF90CF90BF90AF909F908F90089571
:1019B0004A30510551F4E62FF0E0E75DF74F8081A2
:1019C0008F3729F08AE0808302C080E0089581E0AB
:1019D000089585ED8093BC008091BC0084FDFCCF10
:1019E0001092450508950895E091900480918F0428
:1019F000E81730F4F0E0E159FB4F808190E0089562
:101A00008FEF9FEF08959091900480918F04981725
:101A100050F4E92FF0E0E159FB4F208130E09F5F67
:101A20009093900402C02FEF3FEFC9010895CF9328
:101A3000DF93EC018A8D9B8D892BF1F080917203ED
:101A4000909173038C179D07B9F0009711F00E94D5
:101A500075178E8D8E7F8E8F1092D8041092D904B8
:101A6000D0937303C0937203EB89FC8990818D89B5
:101A7000892B808381E001C080E0DF91CF910895C0
:101A8000CF9382EF860F8630E0F4C62F8AE00E9463
:101A90008318C33151F0C23151F0C13151F0C0311E
:101AA00051F0CF3051F087E009C082E007C083E0F9
:101AB00005C084E003C085E001C086E0CF910C94AE
:101AC0008318CF910895DC01462F50E0FA01319739
:101AD000EB30F10508F5E555FF4F0C945F2184EAE2
:101AE00096E0089587E096E008958AE695E00895E7
:101AF00093968D919C919497089595968D919C9134
:101B00009697089597968D919C9198970895999698
:101B10008D919C919A97089580E090E008951F938D
:101B2000CF93DF93EC0118E0612FCE010E94630D8B
:101B3000009711F00E9411221F5F1C30A9F78FEF50
:101B40008AA3FE013A96A29611921192EC17FD0714
:101B5000D9F7DF91CF911F9108958F929F92AF9205
:101B6000BF92CF92DF92EF92FF920F931F93CF938A
:101B7000DF93EC01042F7901603609F04AC2D901E4
:101B80008C91182F1F70807F803309F4A4C130F42A
:101B9000803171F0803209F47BC13DC2803609F496
:101BA0001FC2803709F42AC2803509F034C2EBC164
:101BB000F9018280912CA12CB12C67E0880C991C32
:101BC000AA1CBB1C6A95D1F7838190E0A0E0B0E02D
:101BD0007EE0880F991FAA1FBB1F7A95D1F7882A2C
:101BE000992AAA2ABB2A8181882A1830B0F5612F48
:101BF000CE010E94630DEC01892B09F40CC2115037
:101C0000133028F5212F30E0F901E05FFD4F80818E
:101C1000F901E35FFD4FE0818823C9F0EE23B9F0BD
:101C2000282F30E02252384FD901A55BBF4F9C913D
:101C30009F3711F09AE09C93F0E0E75DF74F9081B9
:101C40009F3711F09AE0908360E00E94B215B501D1
:101C5000A401CE010E94F818DEC1453068F004816D
:101C6000F580193001F118F4183059F04EC01A30CF
:101C700059F11B30D1F149C08EE393E00E941A184C
:101C8000C8C18BA19CA1892B09F03FC08FE190E0D6
:101C90000E947C216C0120E04F2D602F0E94911644
:101CA000DCA2CBA232C08DA19EA1892B71F58FE160
:101CB00090E00E947C216C0120E04F2D602F0E945B
:101CC0009116DEA2CDA221C08FA198A5892BE9F49F
:101CD0008FE190E00E947C216C0120E04F2D602F6D
:101CE0000E949116D8A6CFA210C089A59AA5892BCB
:101CF00061F48FE190E00E947C216C0120E04F2D87
:101D0000602F0E949116DAA6C9A6612FCE010E940B
:101D1000630DEC01892B09F47EC1E02FF0E0E75D53
:101D2000F74F80818F3711F08AE08083EF2DF0E04C
:101D3000E75DF74F80818F3711F08AE080831B8E3B
:101D40001A8E198E188E1F8A1E8A60E079E08DE344
:101D500090E0A50194010E94BD22F90124303105D3
:101D600018F0C901039702C081E090E09D8F8C8F2D
:101D70008C8516EF180F143048F09EEC980F9430B5
:101D800028F092EC980F983008F080C0B901769551
:101D900067956431710518F06351710902C061E003
:101DA00070E07F8B6E8B369720F0B901655071091A
:101DB00002C061E070E0798F688FB901660F771F0C
:101DC000260F371F36952795369527952D303105E7
:101DD00018F02C50310902C021E030E03B8F2A8FEF
:101DE000143060F09EEC980F943040F092EC980F15
:101DF000983008F412C1A0E0B0E011C1A8E6B0E04C
:101E0000E8E6F0E09081143018F08E53883010F03E
:101E100081E001C084E0892B8C938C8596EF980F2C
:101E2000943058F02EEC280F243038F022EC280F94
:101E3000283030F020E030E005C02BE630E002C072
:101E40002DE630E03C8B2B8B943010F49AEF0BC0D6
:101E5000823381F0833381F0843381F092EC980FE8
:101E6000983070F492EC980F81E001C0880F9A9539
:101E7000EAF707C088E005C084E003C082E001C043
:101E800081E08D8B8C8D9D8D0197F1F7CE01BEC0C9
:101E9000612FCE010E94630D5C01892B09F4BBC048
:101EA0001E2DCE2DDF2D22969C2F9150911B901729
:101EB00008F0B1C0D501ED91FC918881DE01119748
:101EC0006C91B0E88B9F601911240190F081E02D96
:101ED000C5010995E8CFF9018181811127C02AA1A7
:101EE00027300CF098C0812F90E0FC013596EE0F62
:101EF000FF1FEC0FFD1F433070F0D70113968C913C
:101F0000B0E88B9FC0011124D70112963C91832B1E
:101F10009183808302C01182108281E0820F8AA3A4
:101F2000C80FD11D87FDDA951A8375C0813009F07D
:101F300072C09AA119161CF08FEF8AA36CC080E0C2
:101F4000492F092E000C550B282F30E0421753075C
:101F500044F0FE01E20FF31F2281211761F08F5F31
:101F6000F3CF80E008C0883028F4FE01E20FF31FB1
:101F7000238122838F5F282F30E0421753079CF77D
:101F800091509AA348C0612FCE010E94630DEC01CD
:101F9000009709F440C01830E8F4E881F981028420
:101FA000F385E02D0995EA89FB8980818F7E808306
:101FB000EA89FB898081877F8083EA89FB89808128
:101FC0008F778083EA89FB8980818F7D80838A8DEA
:101FD000898F21C00E947517CE010E9411221BC05B
:101FE000612FCE010E94630D0097A9F0DC01ED91F5
:101FF000FC910284F385E02D09950DC0183058F04E
:10200000612FCE010E94630D009729F00E94170DE9
:1020100002C080E00AC081E008C0A8E6B0E09830C5
:1020200008F4EECEE0E0F0E0EDCEDF91CF911F912D
:102030000F91FF90EF90DF90CF90BF90AF909F9067
:102040008F900895FC01158216821782DC01189684
:10205000885B9F4F1D92A817B907E1F71C92DF011B
:10206000A75BBF4F1D921C92E75DFE4F0190F08170
:10207000E02D309709F0099408951F920F920FB642
:102080000F9211240BB60F922F933F934F935F93B0
:102090006F937F938F939F93AF93BF93EF93FF9330
:1020A0008091B900887F803609F49CC068F5883239
:1020B00009F45BC090F4803109F454C038F48823EB
:1020C00009F4F6C0883009F44DC0F6C0883109F42F
:1020D0004CC0803209F45DC0EFC0803409F468C0A0
:1020E00048F4803309F455C0883309F0E5C0809383
:1020F0004305D8C0803509F44FC0883509F45DC068
:10210000883409F0D9C0D6C0883909F4C7C0A8F40A
:10211000883709F467C038F4883609F463C080371B
:1021200009F460C0C9C0883809F4B8C0803909F41E
:102130005FC0803809F0C0C05BC0803B09F486C036
:1021400038F4803A09F466C0883A09F47FC0B4C014
:10215000803C09F4A7C0883C09F4A4C0883B09F47A
:102160008AC0AAC08091200510C09091420580913C
:102170004105981770F5E091420581E08E0F80933C
:102180004205F0E0EF5DFA4F80818093BB0085EC63
:1021900086C0809343058EC0E091420581E08E0F9A
:1021A000809342058091BB00F0E0EF5DFA4F8083A1
:1021B00090914205809141056EC0E091420581E019
:1021C0008E0F809342058091BB00F0E0EF5DFA4FE7
:1021D00080838091440581116DC081E080931F054B
:1021E00084EA61C083E0809345051092D704CFCF85
:1021F0008091D704803208F051C0E091D70481E08B
:102200008E0F8093D7048091BB00F0E0E954FB4F20
:102210008083BDCF85EC8093BC00109245058091F2
:10222000D704803230F4E091D704F0E0E954FB4F5A
:1022300010826091D70470E0E091B504F091B6048B
:1022400087EB94E009951092D70436C084E0809320
:1022500045051092B4041092B304E091B104F091DA
:10226000B20409958091B304811105C081E0809387
:10227000B30410929104E091B40481E08E0F809336
:10228000B404F0E0EF56FB4F80818093BB00909147
:10229000B4048091B304981708F479CF85E880934B
:1022A000BC000AC085EC8093BC001092450504C0B8
:1022B000109243050E94E90CFF91EF91BF91AF91FD
:1022C0009F918F917F916F915F914F913F912F914E
:1022D0000F900BBE0F900FBE0F901F90189540915E
:1022E000B304262F30E0240F311D21323105DCF4F8
:1022F000209145052430C9F4FC0180E090E0861768
:1023000058F43091B3042191DC01AF56BB4FA30FB9
:10231000B11D2C930196F3CF8091B304680F6093A5
:10232000B30480E0089581E0089582E00895CF929B
:10233000DF92EF92FF920F931F93CF93DF936C0185
:102340007A018B01C0E0D0E0CE15DF0589F0D8011D
:102350006D918D01D601ED91FC910190F081E02D00
:10236000C6010995892B11F47E0102C02196ECCF9C
:10237000C701DF91CF911F910F91FF90EF90DF90F8
:10238000CF900895FC01A089B1898C91A689B78965
:1023900082FD0FC09C91818D8F5F8F73228D82177C
:1023A00049F0218DDF01A20FB11D5D969C93818FB5
:1023B00008958C910895FC01918D828D981761F09C
:1023C000828DDF01A80FB11D5D968C91928D9F5F6C
:1023D0009F73928F90E008958FEF9FEF0895FC0117
:1023E000918D828D981731F0828DE80FF11D858DCA
:1023F00090E008958FEF9FEF0895FC01918D228D5D
:10240000892F90E0805C9F4F821B91098F739927E1
:1024100008958AE695E00E94FD1121E0892B09F4D8
:1024200020E0822F089587E096E00E94FD1121E0D0
:10243000892B09F420E0822F089584EA96E00E9417
:10244000FD1121E0892B09F420E0822F089581E419
:1024500097E00E94FD1121E0892B09F420E0822FF2
:102460000895FC01848DDF01A80FB11DA35ABF4F51
:102470002C91848D90E001968F739927848FA68983
:10248000B7892C93A089B1898C9180648C93938DAA
:10249000848D981306C00288F389E02D80818F7D9A
:1024A00080830895EF92FF920F931F93CF93DF9352
:1024B000EC0181E0888F9B8D8C8D981305C0E88995
:1024C000F989808185FD24C0F62E0B8D10E00F5F09
:1024D0001F4F0F731127E02E8C8DE8120CC00FB622
:1024E00007FCFACFE889F989808185FFF5CFCE0115
:1024F0000E943112F1CF8B8DFE01E80FF11DE35ADE
:10250000FF4FF0820B8FEA89FB898081806207C0D0
:10251000EE89FF896083E889F989808180648083FE
:1025200081E090E0DF91CF911F910F91FF90EF90AC
:102530000895CF93DF93EC01888D8823C9F0EA8951
:10254000FB89808185FD05C0A889B9898C9186FDAC
:102550000FC00FB607FCF5CF808185FFF2CFA889A9
:10256000B9898C9185FFEDCFCE010E943112E7CF62
:10257000DF91CF91089580E090E0892B21F00E94B7
:102580002712811119C080E090E0892B21F00E9470
:102590001D12811114C080E090E0892B21F00E946F
:1025A000131281110FC080E090E0892B81F00E940E
:1025B000091281110AC008950E940000E4CF0E9410
:1025C0000000E9CF0E940000EECF0C9400000895B7
:1025D00090E0FC013197E231F10508F04CC0EA547B
:1025E000FF4F0C945F21809180008F7703C0809112
:1025F00080008F7D80938000089580918000877F88
:10260000F9CF84B58F7702C084B58F7D84BD0895DE
:102610008091B0008F7703C08091B0008F7D809350
:10262000B0000895809190008F7707C0809190004E
:102630008F7D03C080919000877F809390000895E4
:102640008091A0008F7707C08091A0008F7D03C08C
:102650008091A000877F8093A00008958091200141
:102660008F7707C0809120018F7D03C0809120016A
:10267000877F8093200108953FB7F89480911B05D0
:1026800090911C05A0911D05B0911E0526B5A89B33
:1026900005C02F3F19F00196A11DB11D3FBFBA2FF4
:1026A000A92F982F8827820F911DA11DB11DBC0154
:1026B000CD0142E0660F771F881F991F4A95D1F719
:1026C000089520917203309173032817390771F42C
:1026D0009091D9048091D804981741F0E091D904E1
:1026E000F0E0E652FB4F808190E008958FEF9FEF7E
:1026F000089508951F93CF93DF93DC015C962D918D
:102700003C915D972115310539F481E090E01396F5
:102710009C938E9312973DC05196ED91FC915297E8
:1027200050969C915097892F80951FB75E964C913B
:102730005E9741FB772770F941FD6095F8944081E1
:10274000772311F0492B01C048234083E9012197E9
:10275000F1F748E0508160FF02C0592B01C05823B7
:102760005083E9012197F1F76695415099F7772356
:1027700021F090818923808303C08081982B9083EE
:102780001FBF5C968D919C915D970197F1F721E0B9
:1027900030E0C901DF91CF911F910895209172031C
:1027A000309173032817390771F48091D804209170
:1027B000D90490E0805C9F4F821B910960E470E037
:1027C0000E944B21089580E090E0089520917203CB
:1027D0003091730328173907B9F49091D904809187
:1027E000D804981789F0E091D904F0E0E652FB4F45
:1027F00080812091D90430E02F5F3F4F2F73332722
:102800002093D90490E008958FEF9FEF08950E94E0
:10281000A9221F920F920FB60F9211240BB60F929E
:102820002F933F934F935F936F937F938F939F93D8
:10283000AF93BF93EF93FF938AE695E00E94311226
:10284000FF91EF91BF91AF919F918F917F916F9188
:102850005F914F913F912F910F900BBE0F900FBE44
:102860000F901F9018951F920F920FB60F92112480
:102870000BB60F922F933F934F935F936F937F937A
:102880008F939F93AF93BF93EF93FF938AE695E067
:102890000E94C211FF91EF91BF91AF919F918F91D3
:1028A0007F916F915F914F913F912F910F900BBE50
:1028B0000F900FBE0F901F9018951F920F920FB69A
:1028C0000F9211240BB60F922F933F934F935F9368
:1028D0006F937F938F939F93AF93BF93EF93FF93E8
:1028E00087E096E00E943112FF91EF91BF91AF9186
:1028F0009F918F917F916F915F914F913F912F9118
:102900000F900BBE0F900FBE0F901F9018951F9247
:102910000F920FB60F9211240BB60F922F933F9385
:102920004F935F936F937F938F939F93AF93BF93D7
:10293000EF93FF9387E096E00E94C211FF91EF9121
:10294000BF91AF919F918F917F916F915F914F91C7
:102950003F912F910F900BBE0F900FBE0F901F90C5
:1029600018951F920F920FB60F9211240BB60F926B
:102970002F933F934F935F936F937F938F939F9387
:10298000AF93BF93EF93FF9384EA96E00E943112D6
:10299000FF91EF91BF91AF919F918F917F916F9137
:1029A0005F914F913F912F910F900BBE0F900FBEF3
:1029B0000F901F9018951F920F920FB60F9211242F
:1029C0000BB60F922F933F934F935F936F937F9329
:1029D0008F939F93AF93BF93EF93FF9384EA96E017
:1029E0000E94C211FF91EF91BF91AF919F918F9182
:1029F0007F916F915F914F913F912F910F900BBEFF
:102A00000F900FBE0F901F9018951F920F920FB648
:102A10000F9211240BB60F922F933F934F935F9316
:102A20006F937F938F939F93AF93BF93EF93FF9396
:102A300081E497E00E943112FF91EF91BF91AF9135
:102A40009F918F917F916F915F914F913F912F91C6
:102A50000F900BBE0F900FBE0F901F9018951F92F6
:102A60000F920FB60F9211240BB60F922F933F9334
:102A70004F935F936F937F938F939F93AF93BF9386
:102A8000EF93FF9381E497E00E94C211FF91EF91D1
:102A9000BF91AF919F918F917F916F915F914F9176
:102AA0003F912F910F900BBE0F900FBE0F901F9074
:102AB0001895CF93DF93282F30E0F901E659FD4FA9
:102AC0008491F901EC5DFD4FD491F901E252FE4F82
:102AD000C491CC2391F081110E94E812EC2FF0E018
:102AE000EE0FFF1FEC53FE4FA591B491EC91ED2337
:102AF00081E090E021F480E002C080E090E0DF918E
:102B0000CF9108951F93CF93DF93282F30E0F901E1
:102B1000E659FD4F8491F901EC5DFD4FD491F90127
:102B2000E252FE4FC491CC23C9F0162F81110E94AE
:102B3000E812EC2FF0E0EE0FFF1FE655FE4FA591D7
:102B4000B4918FB7F894111105C09C91ED2FE095C9
:102B5000E92302C0EC91ED2BEC938FBFDF91CF9175
:102B60001F910895CF93DF9390E0FC01EC5DFD4F42
:102B70002491FC01E252FE4F8491882361F190E0A0
:102B8000880F991FFC01E057FE4FC591D491FC01BD
:102B9000E655FE4FA591B491611109C09FB7F89415
:102BA0008881209582238883EC912E230BC062308C
:102BB00061F49FB7F8943881822F809583238883AE
:102BC000EC912E2B2C939FBF06C08FB7F894E88111
:102BD0002E2B28838FBFDF91CF910895863308F085
:102BE000865390917B00282F2870977F922B90938B
:102BF0007B008770806480937C0080917A00806481
:102C000080937A0080917A0086FDFCCF80917800D5
:102C10002091790090E0922B08958F929F92AF922D
:102C2000BF92CF92DF92EF92FF926B017C010E94E4
:102C30003C134B015C01C114D104E104F104F1F037
:102C40000E943C13DC01CB0188199909AA09BB0930
:102C5000883E9340A105B10570F321E0C21AD10866
:102C6000E108F10888EE880E83E0981EA11CB11CD3
:102C7000C114D104E104F10419F7DDCFFF90EF9006
:102C8000DF90CF90BF90AF909F908F9008951F924C
:102C90000F920FB60F9211242F933F938F939F9310
:102CA000AF93BF9380916E0390916F03A0917003D7
:102CB000B091710330911A0523E0230F2D3720F4D2
:102CC0000196A11DB11D05C026E8230F0296A11D86
:102CD000B11D20931A0580936E0390936F03A09308
:102CE0007003B093710380911B0590911C05A09116
:102CF0001D05B0911E050196A11DB11D80931B05F8
:102D000090931C05A0931D05B0931E05BF91AF9134
:102D10009F918F913F912F910F900FBE0F901F9019
:102D200018950F931F93CF93DF93EC01162F042F69
:102D30001B821A8288EE93E0A0E0B0E08C839D8332
:102D4000AE83BF8387E192E0998388831F8A1E8ABE
:102D5000198E188E1B8E1A8E1D8E1C8E6E8D6E7F98
:102D600020FB61F96E8F6695617081E06827842F82
:102D70000E94821561E0802F0E94B215402F50E022
:102D8000FA01EC5DFD4FE491E88BFA01E252FE4F4F
:102D9000E491F0E0EE0FFF1FE655FE4F8591949110
:102DA0009A8B898B60E0812F0E94B2158E8D81FDF8
:102DB00004C061E0812F0E9482151C87612F70E0A2
:102DC000FB01EC5DFD4FE491ED87FB01E252FE4F0C
:102DD000E491F0E0EE0FFF1FEC53FE4F85919491CC
:102DE0009F878E87DF91CF911F910F9108951F923A
:102DF0000F920FB60F9211240BB60F922F933F93A1
:102E00004F935F936F937F938F939F93AF93BF93F2
:102E1000EF93FF93E0917203F0917303309709F4FD
:102E200051C0968DA685B785858591FF04C09C917C
:102E3000892329F447C09C91892309F043C0A389C1
:102E4000B4899C918589809589238C9386899789FB
:102E50000197F1F7608D718DA685B785558538E0AE
:102E600020E0CB010197F1F7822F90E095958795AF
:102E7000282F4C91452309F02068315091F7868D19
:102E800081FD20958091D80490E001968F73992759
:102E90003091D904381749F0A091D804B0E0A65277
:102EA000BB4F2C938093D80403C0868D8160868F9E
:102EB000828D938D0197F1F7A389B4899C918589BF
:102EC000892B8C93FF91EF91BF91AF919F918F913F
:102ED0007F916F915F914F913F912F910F900BBE1A
:102EE0000F900FBE0F901F901895E0917203F09114
:102EF0007303E817F90769F4A389B4899C9185895C
:102F0000809589238C93109273031092720381E051
:102F1000089580E008950F931F93CF93DF93EC0102
:102F20000EED17E0D8018D919C91DC01ED91FC91A3
:102F30006C2F6F770190F081E02D0995F801808169
:102F40009181DC01ED91FC91CC0FCD2FCC1FDD0BDD
:102F50006C2F6F770190F081E02DDF91CF911F9161
:102F60000F9109948091DE079091DF07DC01ED91CC
:102F7000FC910190F081E02D67EF09948091DE07CC
:102F80009091DF07DC01ED91FC910190F081E02D43
:102F900060EF0994CF93DF93EB01A091DE07B0912E
:102FA000DF07ED91FC9111978F70682F606E019093
:102FB000F081E02DCD010995CE01DF91CF910C94E8
:102FC0008B17EF92FF920F931F93CF93DF9300D055
:102FD0001F92CDB7DEB7162F4A835B8389830E9489
:102FE000BE17A091DE07B091DF07ED91FC9111971C
:102FF0000190F081E02D8981682FCD0109954A81EA
:10300000042FE42E5B81F52E8E2D801B811738F462
:10301000F70181917F0190E00E948B17F5CF0F900F
:103020000F900F90DF91CF911F910F91FF90EF9034
:103030000C94B217FC0101900020E9F73197BF0111
:10304000681B790BAC0181E70C94E117382F2091B4
:10305000690590916805213208F049C080914505C5
:103060008111FCCF42E040934505309344053FEF8A
:10307000309343051092420520934105A8E4B5E042
:1030800041E255E0FA013E2F341B321718F43D910E
:103090003193F9CF1092200520912005990F922BA2
:1030A0009093200590911F05913061F410921F05B7
:1030B000909120059093BB009091BC0093FDF8CFB8
:1030C00095EC01C095EE9093BC009091450592302F
:1030D000E1F3909143059F3F79F080914305803261
:1030E00041F080914305803331F084E005C081E0F8
:1030F00003C082E001C083E0109247051092690589
:10310000109246050895A091DE07B091DF07ED917A
:10311000FC9111970190F081E02D682FCD01099469
:10312000CF93DF93CEEDD7E088819981DC01ED91DB
:10313000FC910190F081E02D69EF099588819981DA
:10314000DC01ED91FC910190F081E02D62E00995A8
:1031500088819981DC01ED91FC910190F081E02D55
:1031600065E0DF91CF910994CF930E94BE178091C3
:10317000DE079091DF07DC01ED91FC910190F08179
:10318000E02D69E709958091DE079091DF07DC016A
:10319000ED91FC91A091E107B091E2070190F081DF
:1031A000E02D6C9109958091DE079091DF07DC019D
:1031B000ED91FC91A091E107B091E2070190F081BF
:1031C000E02D11966C910995C2E08091E007C81737
:1031D00060F4E091E107F091E207EC0FF11D8081CE
:1031E00090E00E948B17CF5FF0CFCF910C94B21775
:1031F000CF92DF92EF92FF920F931F93CF93DF93C3
:10320000EC016A017B01E889F98982E0808341153C
:10321000514E61057105B1F060E079E08DE390E019
:10322000A70196010E94EF2289019A01015011091C
:1032300021093109369527951795079598010115AC
:103240001041A8F0E889F989108260E874E88EE1FD
:1032500090E0A70196010E94EF22DA01C9010197CF
:10326000A109B109B695A795979587959C01EC851D
:10327000FD853083EE85FF852083188EEC89FD89DE
:1032800086E08083EA89FB89808180618083EA8986
:10329000FB89808188608083EA89FB8980818068DE
:1032A0008083EA89FB8980818F7D8083DF91CF9144
:1032B0001F910F91FF90EF90DF90CF900895789439
:1032C00084B5826084BD84B5816084BD85B582602B
:1032D00085BD85B5816085BD80916E0081608093DC
:1032E0006E00109281008091810082608093810045
:1032F0008091810081608093810080918000816055
:10330000809380008091B10084608093B1008091AF
:10331000B00081608093B0008091910082608093C2
:103320009100809191008160809391008091900044
:103330008160809390008091A10082608093A100C1
:103340008091A10081608093A1008091A0008160A4
:103350008093A0008091210182608093210180915F
:1033600021018160809321018091200181608093FF
:10337000200180917A00846080937A0080917A00A5
:10338000826080937A0080917A00816080937A00D5
:1033900080917A00806880937A001092C10082E167
:1033A0008093E0078091E1079091E2070E9411224B
:1033B000C091E007D0E0CE0101960E947C2190935D
:1033C000E2078093E107FC01EC0FFD1F108222E071
:1033D000DC012C9325E011962C93AE01425051094B
:1033E0006EE972E002960E94AE228AE598E0909320
:1033F000FC088093FB0883EB92E09093FE08809397
:10340000FD088AEA96E0909300098093FF0885E220
:1034100096E090930209809301098BE59BE09093DD
:1034200004098093030985E498E09093060980934A
:1034300005098BEA93E090930C0980930B0981E6D0
:1034400093E0909308098093070981E080930D0928
:1034500040E051EE60E070E081E497E00E94F818EF
:1034600081E497E09093DF078093DE0780910D0958
:10347000811150C061E08DE00E94B21562ED70E0F4
:1034800080E090E00E940D1661E08DE00E948215C0
:1034900068E270E080E090E00E940D1660E08DE050
:1034A0000E94821562ED70E080E090E00E940D16AF
:1034B00061E08DE00E94821568E270E080E090E0BB
:1034C0000E940D1660E08DE00E9482156AEF70E0A8
:1034D00080E090E00E940D16C0E062ED70E080E0B8
:1034E00090E00E940D1661E08DE00E94821568E276
:1034F00070E080E090E00E940D1660E08DE00E9498
:103500008215CF5FC53049F76DE770E080E090E04D
:103510000E940D160E9490188091E00781110E9470
:10352000B4180E94610315E0AA24A39402E08091DC
:1035300065038823C1F1F0905C03F2FE76C482E05B
:103540000E945915892B09F470C4C4E0F3FE06C02B
:1035500083E00E945915892B09F069C4F4FE06C066
:1035600084E00E945915892B09F063C4F5FE06C05A
:1035700085E00E945915892B09F05DC4F6FE06C04E
:1035800086E00E945915892B09F057C4F7FE06C042
:1035900087E00E945915892B09F051C440E06C2F37
:1035A00080E00E94EA0980916603882309F448C0FC
:1035B000F0905D03F0FE45C488E00E945915892B08
:1035C00009F43FC4C1E0F1FE06C089E00E9459152C
:1035D000892B09F038C4F2FE06C08AE00E94591512
:1035E000892B09F032C4F3FE06C08BE00E94591506
:1035F000892B09F02CC4F4FE06C08CE00E945915FA
:10360000892B09F026C4F5FE06C08DE00E945915ED
:10361000892B09F020C4F6FE06C08EE00E945915E1
:10362000892B09F01AC4F7FE06C08FE00E945915D5
:10363000892B09F014C440E06C2F81E00E94EA0954
:1036400080916703882309F448C0F0905E03F0FE80
:1036500008C480E10E945915892B09F402C4C1E015
:10366000F1FE06C081E10E945915892B09F0FBC3C8
:10367000F2FE06C082E10E945915892B09F0F5C3BC
:10368000F3FE06C083E10E945915892B09F0EFC3B0
:10369000F4FE06C084E10E945915892B09F0E9C3A4
:1036A000F5FE06C085E10E945915892B09F0E3C398
:1036B000F6FE06C086E10E945915892B09F0DDC38C
:1036C000F7FE06C087E10E945915892B09F0D7C380
:1036D00040E06C2F82E00E94EA0980916803882311
:1036E00009F448C0F0905F03F0FECBC388E10E946C
:1036F0005915892B09F4C5C3C1E0F1FE06C089E163
:103700000E945915892B09F0BEC3F2FE06C08AE15A
:103710000E945915892B09F0B8C3F3FE06C08BE14E
:103720000E945915892B09F0B2C3F4FE06C08CE142
:103730000E945915892B09F0ACC3F5FE06C08DE136
:103740000E945915892B09F0A6C3F6FE06C08EE12A
:103750000E945915892B09F0A0C3F7FE06C08FE11E
:103760000E945915892B09F09AC340E06C2F83E021
:103770000E94EA0980916903882309F448C0F09007
:103780006003F0FE8EC380E20E945915892B09F474
:1037900088C3C1E0F1FE06C081E20E945915892B61
:1037A00009F081C3F2FE06C082E20E945915892BFE
:1037B00009F07BC3F3FE06C083E20E945915892BF2
:1037C00009F075C3F4FE06C084E20E945915892BE6
:1037D00009F06FC3F5FE06C085E20E945915892BDA
:1037E00009F069C3F6FE06C086E20E945915892BCE
:1037F00009F063C3F7FE06C087E20E945915892BC2
:1038000009F05DC340E06C2F84E00E94EA098091DA
:103810006A03882309F448C0F0906103F0FE51C3A5
:1038200088E20E945915892B09F44BC3C1E0F1FECF
:1038300006C089E20E945915892B09F044C3F2FEA3
:1038400006C08AE20E945915892B09F03EC3F3FE97
:1038500006C08BE20E945915892B09F038C3F4FE8B
:1038600006C08CE20E945915892B09F032C3F5FE7F
:1038700006C08DE20E945915892B09F02CC3F6FE73
:1038800006C08EE20E945915892B09F026C3F7FE67
:1038900006C08FE20E945915892B09F020C340E031
:1038A0006C2F85E00E94EA0980916B03882309F45C
:1038B00048C0F0906203F0FE14C380E30E945915E3
:1038C000892B09F40EC3C1E0F1FE06C081E30E941A
:1038D0005915892B09F007C3F2FE06C082E30E9446
:1038E0005915892B09F001C3F3FE06C083E30E943A
:1038F0005915892B09F0FBC2F4FE06C084E30E942F
:103900005915892B09F0F5C2F5FE06C085E30E9422
:103910005915892B09F0EFC2F6FE06C086E30E9416
:103920005915892B09F0E9C2F7FE06C087E30E940A
:103930005915892B09F0E3C240E06C2F86E00E9404
:10394000EA0980916C03882309F448C0F09063036E
:10395000F0FED7C288E30E945915892B09F4D1C221
:10396000C1E0F1FE06C089E30E945915892B09F0D8
:10397000CAC2F2FE06C08AE30E945915892B09F0DB
:10398000C4C2F3FE06C08BE30E945915892B09F0CF
:10399000BEC2F4FE06C08CE30E945915892B09F0C3
:1039A000B8C2F5FE06C08DE30E945915892B09F0B7
:1039B000B2C2F6FE06C08EE30E945915892B09F0AB
:1039C000ACC2F7FE06C08FE30E945915892B09F09F
:1039D000A6C240E06C2F87E00E94EA0980916D0347
:1039E000882309F448C0F0906403F0FE9AC280E492
:1039F0000E945915892B09F494C2C1E0F1FE06C05A
:103A000081E40E945915892B09F08DC2F2FE06C08F
:103A100082E40E945915892B09F087C2F3FE06C083
:103A200083E40E945915892B09F081C2F4FE06C077
:103A300084E40E945915892B09F07BC2F5FE06C06B
:103A400085E40E945915892B09F075C240E06C2F5E
:103A500088E00E94EA090FC08091DE079091DF079D
:103A6000EC01E881F9810680F781E02D09958F3F0F
:103A7000DFEF9D0771F48091DE079091DF07DC0195
:103A8000ED91FC910480F581E02D0995892B21F7BA
:103A90001EC1382F20912608222309F467C0873FD2
:103AA00009F055C0109226088091E607813751F041
:103AB000893709F03EC08091E0078823E1F20E9437
:103AC000B418D9CFE0910909F0910A09309799F219
:103AD0002091270830912808C901019797FDC90155
:103AE00095958795F82EA6EEB7E040E050E030E0DF
:103AF0004E5F5F4F3F1570F4BA016252784FEB0191
:103B00002F812C936885D0E86D9F201911242D9367
:103B10003F5FEECF9927DC01A252B84F17968C91E8
:103B20001797882311F018961C9286EE97E0099556
:103B3000A2CFE0910B09F0910C09309709F49BCFCB
:103B400060912708615047EE57E0099594CF209186
:103B5000270830912808F901E252F84F80872F5F3B
:103B60003F4F309328082093270885CF2091E30703
:103B7000222309F469C087FD67C09FEF920F9093DD
:103B8000E307E92FF0E0E252F84F8087911173CFFD
:103B90008091E407882309F46ECF803D09F445C085
:103BA00050F4803901F1803C09F04BC0E091FF08EE
:103BB000F09100093EC0843F39F1853F51F1803ECC
:103BC00009F03FC0E091FB08F091FC083097C9F183
:103BD0008091E6076091E70770E020E8829F600D22
:103BE000711D11242BC0E091FD08F091FE08309763
:103BF00041F18091E6076091E70770E090E8899FC6
:103C0000600D711D11241AC0E0910309F09104099F
:103C100004C0E0910509F0910609309791F0609198
:103C2000E60770E08091E7070BC0E0910109F09191
:103C30000209309731F06091E60770E08091E50766
:103C400009951092E40717CF303F38F4282F207FD2
:103C500030E08F708093E50702C09C013327203F3E
:103C6000310559F17CF4203C310511F124F420395F
:103C70003105D9F000CF203D3105D1F0203E31058E
:103C8000A1F0F9CE293F3105F9F034F4C901845F80
:103C90009109029750F0EFCE2F3F310509F0EBCE9E
:103CA0008EED97E00E942210E6CE0093E30702C05B
:103CB000A092E3072093E407DECEA092260810929C
:103CC000280810922708D7CE0E949018D4CE8FB71C
:103CD000F894C0906E03D0906F03E0907003F09062
:103CE00071038FBFC092A203D092A303E092A403FA
:103CF000F092A50380919E0390919F03A091A00351
:103D0000B091A103409101025091020260E070E085
:103D1000C81AD90AEA0AFB0A4C155D056E057F052B
:103D200030F080915D0A87FD7DC0B12C65C0840FA5
:103D3000951FA61FB71F80939E0390939F03A09388
:103D4000A003B093A10399E2E92E98E0F92ECAEC02
:103D5000C031B8F4F7018081823099F480919C03DE
:103D600090919D030C2E02C0959587950A94E2F7D9
:103D700080FF07C08C2F0E94EE15BC018C2F0E9483
:103D8000CA17CF5FFFEFEF1AFF0AC03109F7809122
:103D9000000287FDC6CFC0E02C2F30E080910002EA
:103DA000082E000C990B821793070CF4BACF129FC0
:103DB000F001139FF00D1124EC58FC4F61817281CA
:103DC0002481438180810E942F0ACF5FE5CFFC01CF
:103DD000E55CF54FC281EC2FF0E0EE0FFF1FEB5BCF
:103DE000F54FC080D1806C2F8BE39AE00E94630D69
:103DF0007C01892B61F4B3948B2D90E020915D0AB6
:103E0000022E000C330B281739070CF70BC0C830F3
:103E100008F493C08091720390917303E816F90639
:103E200051F78BC00E94BB1282CBC0E08FCBC86021
:103E300095CBC0619BCBC062A1CBC064A7CBC0684F
:103E4000ADCBC0E0C0CBC260C6CBC460CCCBC86039
:103E5000D2CBC061D8CBC062DECBC064E4CBC0683B
:103E6000EACBC0E0FDCBC26003CCC46009CCC86023
:103E70000FCCC06115CCC0621BCCC06421CCC06823
:103E800027CCC0E03ACCC26040CCC46046CCC8600D
:103E90004CCCC06152CCC06258CCC0645ECCC0680F
:103EA00064CCC0E077CCC2607DCCC46083CCC860F9
:103EB00089CCC0618FCCC06295CCC0649BCCC068FB
:103EC000A1CCC0E0B4CCC260BACCC460C0CCC860E5
:103ED000C6CCC061CCCCC062D2CCC064D8CCC068E7
:103EE000DECCC0E0F1CCC260F7CCC460FDCCC860D1
:103EF00003CDC06109CDC0620FCDC06415CDC068CF
:103F00001BCDC0E02ECDC26034CDC4603ACDC860B8
:103F100040CDC06146CDC0624CCDC06452CDC068BA
:103F200058CDC0E06BCDC26071CDC46077CDC860A4
:103F30007DCDC06183CDC06289CDD701ED91FC916B
:103F40000480F581E02DC7010995181619060CF0BB
:103F500052CF80EF0E94831880E60E9483188C2F36
:103F600080640E948318C114D10459F0D701ED91E7
:103F7000FC910480F581E02DC7010995C816D9068A
:103F80004CF0E701E881F9810480F581E02DC7015B
:103F900009956C011C141D04B4F4E701E881F98152
:103FA0000680F781E02DC7010995C82F8F770E9401
:103FB00083188C2F881F8827881F0E948318D1E0C0
:103FC000CD1AD108E7CF87EF0E94831814CFCF9284
:103FD000DF92EF92FF9210926D0510926C0578EED1
:103FE000C72E73E0D72EE12CF12CC0926E05D09233
:103FF0006F05E0927005F092710587E292E0909370
:104000006B0580936A0525E331E0309377052093B3
:10401000760524E331E0309379052093780520E399
:1040200031E030937B0520937A0521E331E0309332
:104030007D0520937C0522E331E030937F052093BA
:104040007E0526E331E030938105209380051092B0
:1040500083051092840510928505109286051092B2
:104060000A0610920906C0920B06D0920C06E09246
:104070000D06F0920E06909308068093070625ED34
:1040800030E0309314062093130624ED30E0309393
:1040900016062093150620ED30E030931806209385
:1040A000170621ED30E030931A062093190622ED11
:1040B00030E030931C0620931B0626ED30E0309351
:1040C0001E0620931D0610922006109221061092C3
:1040D0002206109223061092A7061092A606C092FE
:1040E000A806D092A906E092AA06F092AB06909399
:1040F000A5068093A4062DEC30E03093B106209302
:10410000B0062CEC30E03093B3062093B20628ECD6
:1041100030E03093B5062093B40629EC30E03093BC
:10412000B7062093B6062AEC30E03093B906209308
:10413000B8062EEC30E03093BB062093BA061092FE
:10414000BD061092BE061092BF061092C0061092D5
:10415000440710924307C0924507D0924607E09269
:104160004707F0924807909342078093410785ECF8
:1041700090E090934E0780934D0784EC90E09093ED
:10418000500780934F0780EC90E090935207809304
:10419000510781EC90E0909354078093530782EC91
:1041A00090E0909356078093550786EC90E09093AB
:1041B00058078093570710925A0710925B07109286
:1041C0005C0710925D071092E0071092E2071092D0
:1041D000E10710920D098EED97E00E9422101092D7
:1041E000110910921009C0921209D0921309E0929D
:1041F0001409F092150987E392E090930F098093D8
:104200000E098FE592E090933C0A80933B0A10924E
:104210005F0A10925E0A1092610A1092600A109270
:10422000630A1092620A1092650A1092640A8FEF74
:1042300080935D0A8091AA09ABEAB9E09FEF48EB51
:104240005BE0803378F48C93282F30E0F901EE0F97
:10425000FF1F2E0F3F1FF901E65EF64F5283418389
:104260008F5F01C09C9313962AE0AB33B20749F7E6
:104270008093AA09FF90EF90DF90CF900895991B4B
:1042800079E004C0991F961708F0961B881F7A954D
:10429000C9F78095089597FB072E16F4009407D070
:1042A00077FD09D00E94682107FC05D03EF4909567
:1042B00081959F4F0895709561957F4F0895EE0FFA
:1042C000FF1F0024001C0BBE0790F691E02D0994FF
:1042D000AA1BBB1B51E107C0AA1FBB1FA617B7072C
:1042E00010F0A61BB70B881F991F5A95A9F7809548
:1042F0009095BC01CD010895CF93DF938230910555
:1043000010F482E090E0E091680AF091690A20E000
:1043100030E0C0E0D0E0309711F140815181481782
:104320005907C0F04817590761F48281938120979B
:1043300019F09B838A832BC09093690A8093680A43
:1043400026C02115310519F04217530718F49A01B8
:10435000BE01DF01EF010280F381E02DDCCF2115EA
:10436000310509F1281B390B2430310590F41296E0
:104370008D919C9113976115710521F0FB01938339
:10438000828304C09093690A8093680AFD01329683
:1043900044C0FD01E20FF31F819391932250310934
:1043A0002D933C933AC02091660A3091670A232BE3
:1043B00041F420910502309106023093670A209360
:1043C000660A20910302309104022115310541F45F
:1043D0002DB73EB74091070250910802241B350BC0
:1043E000E091660AF091670AE217F307A0F42E1B2A
:1043F0003F0B2817390778F0AC014E5F5F4F241749
:10440000350748F04E0F5F1F5093670A4093660AC6
:104410008193919302C0E0E0F0E0CF01DF91CF9172
:1044200008950F931F93CF93DF93009709F48CC0E7
:10443000FC013297138212820091680A1091690A76
:104440000115110581F420813181820F931F209184
:10445000660A3091670A2817390779F5F093670AD9
:10446000E093660A71C0D80140E050E0AE17BF0784
:1044700050F412962D913C911397AD012115310501
:1044800009F1D901F3CF9D01DA01338322836081E1
:104490007181860F971F8217930769F4EC012881B9
:1044A0003981260F371F2E5F3F4F318320838A814A
:1044B0009B8193838283452B29F4F093690AE093CF
:1044C000680A42C01396FC93EE931297ED0149914E
:1044D00059919E01240F351FE217F30771F4808173
:1044E0009181840F951F029611969C938E938281E1
:1044F000938113969C938E931297E0E0F0E0D8019D
:1045000012968D919C911397009719F0F8018C01E8
:10451000F6CF8D919C9198012E5F3F4F820F931F94
:104520002091660A3091670A2817390769F4309795
:1045300029F41092690A1092680A02C0138212824A
:104540001093670A0093660ADF91CF911F910F9134
:10455000089581E090E0F8940C942023FB01DC01A5
:104560004150504048F001900D920020C9F701C021
:104570001D9241505040E0F70895052E97FB1EF420
:1045800000940E94D42257FD07D00E94EF2207FC1E
:1045900003D04EF40C94D42250954095309521953B
:1045A0003F4F4F4F5F4F089590958095709561955F
:1045B0007F4F8F4F9F4F08950E941123A59F900D0D
:1045C000B49F900DA49F800D911D11240895B7FFF5
:1045D0000C94DC220E94DC22821B930B0895A1E242
:1045E0001A2EAA1BBB1BFD010DC0AA1FBB1FEE1F6D
:1045F000FF1FA217B307E407F50720F0A21BB30BB8
:10460000E40BF50B661F771F881F991F1A9469F733
:1046100060957095809590959B01AC01BD01CF018F
:104620000895A29FB001B39FC001A39F700D811D8B
:104630001124911DB29F700D811D1124911D0895AB
:04464000F894FFCF1C
:10464400FF130000006A0A80000100000012100E2F
:1046540013110F000000007A139711CE13E61361B3
:104664001379130000000052129711FD11DB11EFB2
:1046740011991200000000BD018D018501030DF4A4
:104684000CF30C000000000714971107140714071B
:1046940014071400000000071497110000000040E4
:1046A4000DD80CAD0D8F0D433A5C55736572735C78
:1046B4004A6F6F785C4465736B746F705C5374619C
:1046C4006E646172644669726D617461506C757375
:1046D4005C41726475696E6F5F4E616E6F5C4172AE
:1046E4006475696E6F5F4E616E6F2E696E6F003117
:1046F400302D6269742061646472657373696E67D6
:10470400206E6F7420737570706F727465640074BA
:104714006F6F206D616E79207175657269657300C4
:104724004932433A20546F6F206D616E792062796B
:104734007465732072656365697665640049324304
:104744003A20546F6F206665772062797465732010
:104754007265636569766564004D6178207365727E
:10476400766F7320617474616368656400556E6B61
:104774006E6F776E2070696E206D6F646500537084
:1047840065636966792073657269616C205258208B
:0C479400616E642054582070696E730040
:00000001FF
