:1000000058C1000087C1000085C1000083C1000005
:1000100081C100007FC100007DC100007BC10000E4
:1000200079C100000C94CC160C94CC160C94CC1610
:1000300071C100006FC100006DC100006BC1000004
:1000400069C10000EEC7000065C1000063C1000087
:1000500061C100005FC100005DC100000C9420166A
:1000600059C100000C940D150C94E41453C1000008
:1000700051C100004FC100004DC100004BC1000044
:10008000A3C7000047C1000045C1000043C10000F4
:100090000C94BB140C9492143DC100000C942C10D1
:1000A00039C1000037C1000062C7000033C1000041
:1000B00031C100002FC100002DC100002BC700007E
:1000C00029C1000027C1000025C100000C9469145B
:1000D0000C9440141FC100000C9417140C94EE13E0
:1000E00019C100000D061C061C061C061C061C0679
:1000F0001C061C061C06FB051C0660051C06BA0532
:100100001C063F05E9041C061C061C061C061C06F2
:10011000C6031C06A1041C062B05310936093B0940
:1001200045094F09C80959096109690973097D0918
:1001300087099609A009C809AA09B409BE09FA0BDA
:10014000210CE80B3B0C570C950C800C950C950C76
:10015000950C8C0C0A0C690D6C0D6F0D860D860DBF
:10016000860D860D720D770D7C0D810DE712EA125A
:10017000D912DD12E3122113EE12F212F812FC1260
:10018000001306130A130E132113141318131C1350
:1001900000002100240027002A002D003000330039
:1001A00001010000040107010A01000022002500EE
:1001B00028002B002E003100340002010000050150
:1001C00008010B01000020002300260029002C005C
:1001D0002F0032000001000003010601090105059E
:1001E0000505070508080808020202020A0A0808AD
:1001F00004040404010101010101010103030303DB
:1002000003030303040707070C0C0C0C0C0C0C0C69
:100210000202020206060606060606060B0B0B0B7A
:100220000B0B0B0B0102102020080810204010209F
:1002300040800201020108040201010204081020AA
:1002400040808040201008040201800402018040A8
:100250002010080402010804020101020408102011
:100260004080010204081020408000000A0B0209AF
:100270000C0D0E0807030401000000000000000040
:10028000000000000000000000000000000000006E
:10029000000000000000121110000000000000002B
:1002A000000000000000000000000000000000004E
:1002B000521F11241FBECFEFD1E2DEBFCDBF00E041
:1002C0000CBF2AE0ACE5B3E001C01D92AA36B2072C
:1002D000E1F713E0A0E0B2E0E8E0F5E400E00BBFF6
:1002E00002C007900D92AC35B107D9F711E0C9E50E
:1002F000D1E000E006C021970109802FFE010E9495
:10030000C920C835D10780E00807A9F70E942B193A
:100310000C94822275CE80918F0490E020919004FD
:10032000821B91090895CF92DF92EF92FF920F9373
:100330001F93CF93DF937C01262F972F8A01809103
:100340004605882391F0C62FD72F6E01C40ED51E07
:10035000CC15DD0571F06991D701ED91FC9101900B
:10036000F081E02DC7011995F3CF642F822F0E94F1
:100370005D11C801DF91CF911F910F91FF90EF9018
:10038000DF90CF900895CF93DF931F92CDB7DEB764
:100390006983209146052223D1F0209169052032FE
:1003A00040F021E030E0FC013383228380E090E0E4
:1003B00015C080914705E82FF0E0E85BFA4F99817E
:1003C00090838F5F809347058093690505C061E046
:1003D000CE0101960E945D1181E090E00F90DF91C7
:1003E000CF910895CF92DF92EF92FF920F931F93D8
:1003F000CF93DF936C018B017A01EC01C550DC4F88
:10040000888187FF04C0FB011182108224C08CE028
:100410008C9D90018D9D300D11248881A901480F7C
:10042000511D87FD5A958091AA0990E048175907F8
:1004300094F48881A901480F511D87FD5A95CA017E
:10044000FA01EE0FFF1F8E0F9F1FFC01E65EF64FB5
:10045000808186FD19C088818F5F88838CE08C9DA8
:1004600090018D9D300D11248881A901480F511DE7
:1004700087FD5A958091AA0990E048175907BCF466
:1004800088818C3044F113C08881280F311D87FD8D
:100490003A95F901EE0FFF1F2E0F3F1FF901E65E9F
:1004A000F64F808160E08F730E945E15D4CFF80113
:1004B00080819181049680349C4918F480E49CE901
:1004C00004C0F801808191810496F70191838083B3
:1004D0008FEF888345C0F801408151818881B9013F
:1004E000680F711D87FD7A95CB01FB01EE0FFF1F91
:1004F0008E0F9F1FFC01E65EF64F81819281840F73
:10050000951FF701918380838881A901480F511DB0
:1005100087FD5A95CA01FA01EE0FFF1F8E0F9F1F2C
:10052000FC01E65EF64F808186FF1AC08881280FA5
:10053000311D87FD3A95F901EE0FFF1F2E0F3F1F6A
:10054000F901E65EF64F808161E08F73DF91CF9114
:100550001F910F91FF90EF90DF90CF900C945E155C
:10056000DF91CF911F910F91FF90EF90DF90CF908F
:100570000895AF92BF92CF92DF92EF92FF920F93C6
:100580001F93CF93DF931F92CDB7DEB7893008F06A
:1005900092C0982F990F990F990F985F973408F090
:1005A00096E4D62EB82EBB0CBB0CBB0CFB2CA12C9E
:1005B000CC24C394F91610F58EEF8F0D8434D8F443
:1005C0000F2D10E0F801E75DF74F2081223098F4FD
:1005D000EE24E3948C2D8D2109F4E12C000F111FE2
:1005E000213009F055C0AC28F801E159F74F2E2D04
:1005F00030E031832083CC0CF394DCCFA0FE05C027
:100600006D2D61708B2D0E945E15A1FE06C06D2DB3
:10061000627081E08B0D0E945E15A2FE06C06D2DFA
:10062000647082E08B0D0E945E15A3FE06C06D2DE6
:10063000687083E08B0D0E945E15A4FE06C06D2DD0
:10064000607184E08B0D0E945E15A5FE06C06D2DC5
:10065000607285E08B0D0E945E15A6FE06C06D2DB2
:10066000607486E08B0D0E945E15A7FE24C06D2D80
:10067000607887E08B0D0F90DF91CF911F910F91E4
:10068000FF90EF90DF90CF90BF90AF900C945E15ED
:10069000EE2009F4A9CFF801E159F74F208131810B
:1006A0002130310509F4A0CF62E08F2D99830E949B
:1006B0008D15998199CF0F90DF91CF911F910F9157
:1006C000FF90EF90DF90CF90BF90AF9008950F9381
:1006D0001F93CF93DF9381E08093FA038BE39AE03B
:1006E0000E94890D8091F903882329F01092F90363
:1006F0008FEF80930002CCE5D3E0A0EFB3E0E5E616
:10070000F3E089E08E0F119219921D928E13FBCFA8
:100710000AEA13E0C0E0DFEF8AEC8C0F803118F4B6
:1007200062E070E006C08EEF8C0F843420F461E04C
:1007300070E08C2FB9D7F801D1938F01CF5FC63409
:1007400059F710929D0310929C031092A9031092E6
:10075000A8031092FA03DF91CF911F910F91089592
:10076000EF92FF920F931F93CF93DF9390E0FC01E2
:10077000E056F109EB31F10508F05EC2EA01162FEF
:100780008827EE58FF4F8F4F0C94C9202981922F54
:10079000987125FF03C08FEA92E058C0888131E04C
:1007A00026FB222720F92327983061F160F491116C
:1007B00043C2309346058093680510924705109216
:1007C000690502E007C0903109F43AC0983109F494
:1007D0006BC032C2011770F4FE01E00FF11D818180
:1007E000608120E8829F601911248EE099E0CBDDC2
:1007F0000E5FF0CF81E00E94F51783E191E0019751
:10080000F1F71AC24A816B81163069F430E8639FB0
:10081000B0011124640F711D9D814C81E0E89E9F01
:100820004019112406C0F0E86F9F401911246FEFA2
:100830007FEFDF91CF911F910F91FF90EF900AC64C
:10084000E0910002E73054F08FEC92E0DF91CF911D
:100850001F910F91FF90EF900C94EA179A814B81B2
:10086000663069F430E8439FA0011124490F511DFF
:100870003D819C8160E8369F9019112406C0F0E804
:100880004F9F901911244FEF5FEFEF5FE09300024D
:1008900035E0E302F0011124EC58FC4F80835283D1
:1008A000418393832483C8C120910002121614F05F
:1008B0008FEF44C090E0622F022E000C770B35E0E2
:1008C000492F50E06417750774F0349FF001359F8D
:1008D000F00D1124EC58FC4F4081481302C085E014
:1008E00026C09F5FEDCF90E0FACF9830F8F4FA0180
:1008F00031968E9FD0018F9FB00D1124AC58BC4F04
:100900003C91849FF001859FF00D1124EC58FC4F21
:10091000308311964D915C911297528341831396C7
:100920003C911397338314963C9134839F5F492FF6
:1009300050E064177507CCF68FEF820F80930002AA
:100940007BC12881898160E8869FC0011124820FC4
:10095000911D009721F09093A7038093A6038091A7
:10096000F903811169C1C0E08CEE8C0F823020F454
:1009700066E070E08C2F98D6CF5FC634A9F781E08F
:100980008093F9031092900410928F0410924705FF
:1009900010926905109245058093440510921F0539
:1009A00061E084E10E945E1561E085E10E945E15D0
:1009B0008091B9008E7F8093B9008091B9008D7FBE
:1009C0008093B90088E48093B80085E48093BC00EC
:1009D00033C1653008F430C11881F9800A81EB8099
:1009E000CC818EEF810F843408F026C1E12FF0E036
:1009F000E655FC4F20812033B0F430E0F901EE0FD2
:100A0000FF1F2E0F3F1FF901E555F64F208130E003
:100A1000F901EE0FFF1F2E0F3F1FF901E65EF64FA3
:100A2000808186FD06C180E8C89FA00111244E0D7B
:100A3000511D90E8099FB00111246F0D711D812F88
:100A4000F6D564E070E0812FDF91CF911F910F9177
:100A5000FF90EF9029C6623008F4EEC028818981AA
:100A6000E0E88E9FC0011124820F911D009711F4C0
:100A700081E090E09093020280930102DDC0623039
:100A800008F4DAC0698170E0123091F08A81F0E8F0
:100A90008F9FC0011124682B792B133049F08B8173
:100AA00090E090E4899F902D88271124682B792B62
:100AB0008881DF91CF911F910F91FF90EF90F3C24A
:100AC00080EF0E9452188CE60E945218CEEFD2E0BE
:100AD000DC0FC43490F480E00E94521881E00E9440
:100AE00052188BE00E94521881E00E94521881E057
:100AF0000E94521881E00E9452188CEC8C0F8031B9
:100B000038F482E00E9452188AE00E94521802C013
:100B1000CC3020F086ED8C0F833030F483E00E94DF
:100B2000521888E00E945218C43430F484E00E94C5
:100B300052188EE00E9452188EEE8C0F823030F4E4
:100B400086E00E94521881E00E9452186D2F8BE3BC
:100B50009AE08ED78FE70E945218CF5FC43409F015
:100B6000B6CF87EFDF91CF911F910F91FF90EF905C
:100B70000C945218662309F45FC0C88180EF0E946C
:100B800052188EE60E9452188C2F0E945218C634BA
:100B900040F7D0E0FE01E75DF74F80810E945218D8
:100BA000CC0FDD1F8E010159174FF80180818F771F
:100BB0000E945218F801808191819C012078232B9A
:100BC00039F0880F892F881F990B8F770E94521850
:100BD000C159D74F888199819C012227307C232BD2
:100BE00009F4BFCF990F880B990F982F881F8F7723
:100BF0000E945218B6CF80EF0E9452188AE60E94D7
:100C00005218CAECC03110F48C2F01C08FE70E943B
:100C10005218CF5FC031B1F7A4CF9A01462F60E6DA
:100C20008BE39AE0DF91CF911F910F91FF90EF90AE
:100C30008DC7812FC9D4F7CEDF91CF911F910F912E
:100C4000FF90EF9008950F931F93CF93DF93082F9A
:100C5000893008F077C090E0FC01EB59FC4F6083CD
:100C6000672B09F46FC0FC01E45AFC4F1081D02FB0
:100C7000DD0FDD0FDD0F8EEF8D0F843408F052C0D5
:100C800010FF50C08D2F0E943615892B09F44AC0E1
:100C9000C1E08FEF8D0F843448F411FF07C081E06D
:100CA0008D0F0E943615892B09F03EC012FF06C039
:100CB00082E08D0F0E943615892BC1F513FF06C007
:100CC00083E08D0F0E943615892B91F514FF06C025
:100CD00084E08D0F0E943615892B61F515FF06C043
:100CE00085E08D0F0E943615892B31F5D03491F0B7
:100CF00016FF06C086E08D0F0E943615892BF1F491
:100D0000DF3340F417FF06C087E08D0F0E943615D1
:100D1000892BB1F441E06C2F802FDF91CF911F918F
:100D20000F9153C3C0E0B5CFC260C0CFC460C6CF7F
:100D3000C860CCCFC061D2CFC062D8CFC064E0CF92
:100D4000C068E8CFDF91CF911F910F910895CF93A5
:100D5000803180F540919C0350919D0321E030E06B
:100D6000672B81F4B90102C0660F771F8A95E2F7FD
:100D7000CB01809590958423952390939D03809338
:100D80009C0318C0082E02C0220F331F0A94E2F7FA
:100D9000242B352B30939D0320939C039091FA03D1
:100DA000911108C0C82F0E94C915BC018C2FCF918A
:100DB0000C949F17CF910895DF92EF92FF920F93BB
:100DC0001F93CF93DF93EC01D62E7A01890188819E
:100DD000803308F06AC061E08D2D0E948D158881F6
:100DE000E82FF0E09F01220F331FE20FF31FE65EB2
:100DF000F64F9D2D9F732081207CD22ED92AD08240
:100E000060E272E0AB014E195F0957FF02C04D5F0F
:100E10005F4F5595479555954795498340E659E06D
:100E20009A01201B310B37FF02C02D5F3F4F3595D4
:100E30002795359527952A836CE00E94AA209CE08F
:100E4000899FB001112440E050E09A01260F371F1E
:100E5000F901EE0FFF1F2E0F3F1FF901E65EF64F5F
:100E6000908196FD16C04F5F5F4F4C30510569F77A
:100E7000813021F51092800082E0809381001092F1
:100E8000850010928400B19A80916F0082608093F7
:100E90006F00E881F0E0CF01880F991FE80FF91F7C
:100EA000E65EF64F8081806480838881DF91CF91F8
:100EB0001F910F91FF90EF90DF900895823061F4C1
:100EC00010929000809391001092950010929400DF
:100ED00088BB80937100DDCF833069F41092A0004D
:100EE00082E08093A1001092A5001092A40089BB1B
:100EF00080937200CECF8111CCCF1092200182E07E
:100F00008093210110922501109224018ABB8093C5
:100F10007300BFCF1F920F920FB60F9211240BB622
:100F20000F922F933F934F935F936F937F938F9382
:100F30009F93AF93BF93EF93FF9348E251E064E236
:100F400071E080E090E04EDAFF91EF91BF91AF91B8
:100F50009F918F917F916F915F914F913F912F91D1
:100F60000F900BBE0F900FBE0F901F9018951F9201
:100F70000F920FB60F9211240BB60F922F933F933F
:100F80004F935F936F937F938F939F93AF93BF9391
:100F9000EF93FF9348EA50E064EA70E083E090E06A
:100FA00021DAFF91EF91BF91AF919F918F917F9146
:100FB0006F915F914F913F912F910F900BBE0F90CA
:100FC0000FBE0F901F9018951F920F920FB60F92A1
:100FD00011240BB60F922F933F934F935F936F9310
:100FE0007F938F939F93AF93BF93EF93FF9348E9C2
:100FF00050E064E970E082E090E0F4D9FF91EF9175
:10100000BF91AF919F918F917F916F915F914F9120
:101010003F912F910F900BBE0F900FBE0F901F901E
:1010200018951F920F920FB60F9211240BB60F92C4
:101030002F933F934F935F936F937F938F939F93E0
:10104000AF93BF93EF93FF9348E850E064E870E0FC
:1010500081E090E0C7D9FF91EF91BF91AF919F914F
:101060008F917F916F915F914F913F912F910F9051
:101070000BBE0F900FBE0F901F9018959EEF980F0C
:10108000943480F4E82FF0E0DF01A75DB74F9C9126
:10109000913041F4EE0FFF1FE159F74F60837183E8
:1010A0000C945E1508956F927F928F929F92AF92EB
:1010B000BF92CF92DF92EF92FF920F931F93CF9345
:1010C000DF931F92CDB7DEB7982F3B01863408F02F
:1010D0006CC1082F10E0F801E75DF74F8081833085
:1010E00009F490C0843009F060C19250943408F043
:1010F00055C1F801E655FC4FE080F12C6701CC0C9E
:10110000DD1C603282E078070CF042C077FD05C03C
:10111000653B710524F4DB0104C0A0E001C0A4EB31
:10112000B0E0F601EE0DFF1DE555F64F818128E890
:1011300030E04901881A910887FD9394880C991C26
:10114000880C991C092C000CAA08BB08828128E590
:1011500032E0281B310987FD3395220F331F220F00
:10116000331FA901330F660B770B9A01AB012819C6
:1011700039094A095B090E944B2224EB30E040E028
:1011800050E00E942522820E931EA41EB51E01C0AF
:101190004B01F601EE0DFF1DE555F64F2081203382
:1011A00008F0FCC0318188E890E0831B910937FD8D
:1011B0009395880F991F880F991F8816990684F0B8
:1011C000828148E552E0481B510987FD5395440F41
:1011D000551F440F551FC401481559050CF4CA0189
:1011E0000297880F991F4FB7F89430E0F901EE0F7E
:1011F000FF1F2E0F3F1FF901E65EF64F928381839A
:101200004FBFCCC08EEF890F8C3028F084ED890F52
:10121000833008F0C3C061E0892F99830E948D1547
:1012200099816114710411F460E005C08FEF6816B4
:10123000710429F461E0892F0E945E15AFC0F801A6
:10124000E659FD4FE4914E2F50E0FA013197E2311B
:10125000F10508F09DC08827E357FF4F8F4F0C948E
:10126000C92084B5806884BD67BC98C084B580629D
:1012700084BD68BC93C080918000806880938000AA
:10128000709289006092880089C08091800080629D
:101290008093800070928B0060928A007FC0809162
:1012A000800088608093800070928D0060928C0036
:1012B00075C08091B00080688093B0006092B300E8
:1012C0006DC08091B00080628093B0006092B400E5
:1012D00065C0809190008068809390007092990022
:1012E000609298005BC08091900080628093900033
:1012F00070929B0060929A0051C08091900088602B
:101300008093900070929D0060929C0047C08091F5
:10131000A00080688093A0008091A0008F7B8093C4
:10132000A0007092A9006092A80038C08091A0002F
:1013300080628093A0007092AB006092AA002EC0E1
:101340008091A00088608093A0007092AD006092B0
:10135000AC0024C0809120018068809320017092AD
:101360002901609228011AC0809120018062809337
:10137000200170922B0160922A0110C080912001FF
:1013800088608093200170922D0160922C0106C02C
:1013900080E8681671040CF04DCF46CF000F111F86
:1013A000F801E159F74F718260820F90DF91CF9180
:1013B0001F910F91FF90EF90DF90CF90BF90AF9073
:1013C0009F908F907F906F9008950F931F93CF936E
:1013D000082F10E0F801E45AFC4F9081C62FC92372
:1013E00000511C4F411104C0D8019C919C1771F110
:1013F000682F8091DE079091DF07DC01ED91FC9171
:101400006F7060690190F081E02D19958091DE0781
:101410009091DF07DC01ED91FC916C2F6F770190CB
:10142000F081E02D19958091DE079091DF07DC01B6
:10143000ED91FC916C2F70E0660F672F661F770BA4
:101440000190F081E02D1995F801C083CF911F9193
:101450000F910895CF92DF92EF92FF920F931F9317
:10146000CF93DF931F92CDB7DEB7082F6B01142FF8
:101470006F3F8FEF780709F181E080934605009375
:10148000680510924705109269058EE099E029835E
:101490000E94C3012981822F0E94F517E091A603C3
:1014A000F091A703E230F10550F0EE0FFF1FEE0FB1
:1014B000FF1F35973197F1F702C0C12CD12C8091D5
:1014C00045058111FCCF212F113208F020E281E087
:1014D00080934505809344059FEF909343051092B8
:1014E0004205920F9093410580932005809120053D
:1014F000902F990F892B8093200580911F058130B3
:1015000061F410921F05809120058093BB008091AB
:10151000BC0083FDF8CF85EC01C085EE8093BC0054
:10152000809145058130E1F380914205821710F4E6
:1015300020914205A1E2B5E04FE654E0FA018E2F7A
:10154000841B821718F48D918193F9CF1092900427
:1015500020938F04E12EF12C30E0E216F3061CF408
:1015600080EE92E005C02E153F0524F48DEF92E049
:101570000E94EA1700932F04C0923004C12CD12C92
:10158000CE14DF0434F490918F048091900498136A
:1015900010C062E0610F4FE254E087E70F90DF91E7
:1015A000CF911F910F91FF90EF90DF90CF900C940F
:1015B000B5178EE099E01FD2F601E15DFB4F828303
:1015C0008FEFC81AD80ADCCFA82FB0E0A655BC4FC1
:1015D0009C91292F30E0F901EE0FFF1F2E0F3F1FC6
:1015E000F901E555F64FE081F0E09F01220F331F2E
:1015F000E20FF31FE65EF64F80818F7B8083809140
:10160000A803981306C0992379F091509093A803EA
:101610000BC0882349F0E091A903EF5FE093A90391
:10162000F0E0E250FC4F90838FEF8C930895DB0144
:101630009091A8039033A0F53091A903682F70E032
:10164000332369F0E32FF0E0E250FC4F8081FB018F
:10165000E655FC4F808331503093A90307C0FB014E
:10166000E655FC4F90839F5F9093A803FB01E655DE
:10167000FC4F808190E09C01220F331F820F931F4B
:101680001A161B0634F4141615061CF49A01AD0143
:1016900004C020E639E040E252E08555964F8CCBFD
:1016A00089E193E00C94EA178F929F92AF92BF92D8
:1016B000CF92DF92EF92FF920F931F93CF93DF931E
:1016C0001F92CDB7DEB7E82EF12C97012252384F8A
:1016D0004901F901E55BFF4F90819F3709F452C141
:1016E000963041F49091F903992321F06630710509
:1016F00009F02CC16B01182F0EEF080F0434F8F419
:1017000064307105E1F0F701E655FC4F80818033CC
:10171000B0F490E0FC01EE0FFF1F8E0F9F1FFC0145
:10172000E555F64F808190E0FC01EE0FFF1F8E0F14
:101730009F1FFC01E65EF64F808186FD0DC19AEC8D
:10174000910F903160F461E070E082E0C816D1043E
:1017500011F060E070E0892F9983F9DA99810434FF
:1017600018F5A12FA695A695A695812F8770B0E0B4
:10177000A45ABC4FC114D10421F02BE0C216D104ED
:1017800049F421E030E001C0220F8A95EAF78C91FC
:10179000282B09C021E030E001C0220F8A95EAF72A
:1017A00020958C9128232C935701AA0CBB1CF50182
:1017B000E159F74F118210823CE0C316D10408F0C2
:1017C000B4C0F6018827E156FF4F8F4F0C94C92013
:1017D000903108F0D7C0043420F460E0812F0E94DB
:1017E0008D15F401E55BFF4F80818F3709F4CAC086
:1017F00082E099C0043408F0C5C060E0812F0E94E7
:101800008D15F401E55BFF4F80818F3709F4BAC075
:101810001082B8C0043408F0B5C062E0812F0E9485
:101820008D15F401E55BFF4F80818F3711F08BE060
:101830008083F501E159F74F81E090E09183808347
:10184000A1C0043408F09EC0F401E55BFF4F808125
:10185000833021F460E0812F0E945E1561E0812FCA
:101860000E948D15F401E55BFF4F80818F3709F4ED
:1018700089C081E058C00C3028F084ED810F83309E
:1018800008F080C061E0812F0E948D1561E0812FFA
:101890000E948D1560E0812F0E945E15F401E55BCA
:1018A000FF4F80818F3709F46DC083E03CC0043462
:1018B00008F068C0F401E55BFF4F80818F3711F0BD
:1018C00084E08083F701E655FC4F80818F3F09F467
:1018D00046C090E0FC01EE0FFF1F8E0F9F1FFC0122
:1018E000E555F64F808190E0FC01EE0FFF1F8E0F53
:1018F0009F1FFC01E65EF64F808186FD43C02FC02E
:101900001451123008F03EC0F401E55BFF4F8081B6
:101910008F37C1F186E007C0F401E55BFF4F80819E
:101920008F3781F18AE080832DC08DE293E00F90A4
:10193000DF91CF911F910F91FF90EF90DF90CF90AB
:10194000BF90AF909F908F900C94EA171092F9037C
:101950009FEF90930002CECE812F36DEF0CE4FEF78
:101960005FEF6FEF7FEF812F0F90DF91CF911F918E
:101970000F91FF90EF90DF90CF90BF90AF909F902E
:101980008F9055CE0F90DF91CF911F910F91FF90C7
:10199000EF90DF90CF90BF90AF909F908F90089581
:1019A0004A30510551F4E62FF0E0E75DF74F8081B2
:1019B0008F3729F08AE0808302C080E0089581E0BB
:1019C000089585ED8093BC008091BC0084FDFCCF20
:1019D0001092450508950895E091900480918F0438
:1019E000E81730F4F0E0E159FB4F808190E0089572
:1019F0008FEF9FEF08959091900480918F04981736
:101A000050F4E92FF0E0E159FB4F208130E09F5F77
:101A10009093900402C02FEF3FEFC9010895CF9338
:101A2000DF93EC018A8D9B8D892BF1F080917203FD
:101A3000909173038C179D07B9F0009711F00E94E5
:101A40004A178E8D8E7F8E8F1092D8041092D904F3
:101A5000D0937303C0937203EB89FC8990818D89C5
:101A6000892B808381E001C080E0DF91CF910895D0
:101A7000CF9382EF860F8630E0F4C62F8AE00E9473
:101A80005218C33151F0C23151F0C13151F0C0315F
:101A900051F0CF3051F087E009C082E007C083E009
:101AA00005C084E003C085E001C086E0CF910C94BE
:101AB0005218CF910895DC01462F50E0FA0131977A
:101AC000EB30F10518F58827E555FF4F8F4F0C9443
:101AD000C92084EA96E0089587E096E008958AE6B2
:101AE00095E0089593968D919C919497089595967D
:101AF0008D919C919697089597968D919C9198972A
:101B0000089599968D919C919A97089580E090E020
:101B100008951F93CF93DF93EC0118E0612FCE015E
:101B2000CADF009711F00E947A211F5F1C30B1F7C5
:101B30008FEF8AA3FE013A96A29611921192EC17AA
:101B4000FD07D9F7DF91CF911F9108958F929F9252
:101B5000AF92BF92CF92DF92EF92FF920F931F93BB
:101B6000CF93DF93EC01042F7901603609F040C276
:101B7000D9018C91182F1F70807F803309F49FC189
:101B800030F4803171F0803209F477C133C280368D
:101B900009F418C2803709F422C2803509F02AC23C
:101BA000E6C1F9018280912CA12CB12C67E0880C50
:101BB000991CAA1CBB1C6A95D1F7838190E0A0E018
:101BC000B0E07EE0880F991FAA1FBB1F7A95D1F75E
:101BD000882A992AAA2ABB2A8181882A1830A0F546
:101BE000612FCE0168DFEC01892B09F403C211508B
:101BF000133020F5212F30E0F901E05FFD4F8081A7
:101C0000F901E35FFD4FE0818823C1F0EE23B1F0DD
:101C1000282F30E02252384FD901A55BBF4F9C914D
:101C20009F3711F09AE09C93F0E0E75DF74F9081C9
:101C30009F3711F09AE0908360E06FD7B501A4015F
:101C4000CE010E94C418D6C1453068F00481F580E9
:101C5000193001F118F4183059F04DC01A3059F10B
:101C60001B30D1F148C08EE393E00E94EA17C0C157
:101C70008BA19CA1892B09F03EC08FE190E00E94CE
:101C8000E5206C0120E04F2D602F0E946A16DCA237
:101C9000CBA231C08DA19EA1892B69F58FE190E087
:101CA0000E94E5206C0120E04F2D602F0E946A16F3
:101CB000DEA2CDA220C08FA198A5892BE1F48FE1EF
:101CC00090E00E94E5206C0120E04F2D602F0E94E3
:101CD0006A16D8A6CFA20FC089A59AA5892B59F458
:101CE0008FE190E00E94E5206C0120E04F2D602FF5
:101CF000F1D7DAA6C9A6612FCE01DDDEEC01892B72
:101D000009F478C1E02FF0E0E75DF74F80818F376D
:101D100011F08AE08083EF2DF0E0E75DF74F8081DE
:101D20008F3711F08AE080831B8E1A8E198E188EE1
:101D30001F8A1E8A60E079E08DE390E0A50194019E
:101D40000E942522F9012430310518F0C9010397BA
:101D500002C081E090E09D8F8C8F8C8516EF180F6C
:101D6000143048F09EEC980F943028F092EC980FC5
:101D7000983008F080C0B901769567956431710597
:101D800018F06351710902C061E070E07F8B6E8BC7
:101D9000369720F0B9016550710902C061E070E02A
:101DA000798F688FB901660F771F260F371F369519
:101DB0002795369527952D30310518F02C5031098F
:101DC00002C021E030E03B8F2A8F143060F09EEC9F
:101DD000980F943040F092EC980F983008F40CC1B2
:101DE000A0E0B0E00BC1A8E6B0E0E8E6F0E090814A
:101DF000143018F08E53883010F081E001C084E078
:101E0000892B8C938C8596EF980F943058F02EEC9C
:101E1000280F243038F022EC280F283030F020E052
:101E200030E005C02BE630E002C02DE630E03C8B10
:101E30002B8B943010F49AEF0BC0823381F08333F4
:101E400081F0843381F092EC980F983070F492EC2A
:101E5000980F81E001C0880F9A95EAF707C088E0E3
:101E600005C084E003C082E001C081E08D8B8C8DD1
:101E70009D8D0197F1F7CE01B9C0612FCE011BDE18
:101E80005C01892B09F4B6C01E2DCE2DDF2D2296C4
:101E90009C2F9150911B901708F0ACC0D501ED918B
:101EA000FC918881DE0111976C91B0E88B9F6019DD
:101EB00011240190F081E02DC5011995E8CFF901B9
:101EC0008181811127C02AA127300CF093C0812F76
:101ED00090E0FC013596EE0FFF1FEC0FFD1F433025
:101EE00070F0D70113968C91B0E88B9FC00111243C
:101EF000D70112963C91832B9183808302C011827B
:101F0000108281E0820F8AA3C80FD11D87FDDA9568
:101F10001A8370C0813009F06DC09AA119161CF0A7
:101F20008FEF8AA367C080E0492F092E000C550B64
:101F3000282F30E04217530744F0FE01E20FF31F51
:101F40002281211761F08F5FF3CF80E008C08830D5
:101F500028F4FE01E20FF31F238122838F5F282FD5
:101F600030E0421753079CF791509AA343C0612F6A
:101F7000CE01A1DDEC01009709F43CC01830E8F473
:101F8000E881F9810284F385E02D1995EA89FB89BE
:101F900080818F7E8083EA89FB898081877F80832F
:101FA000EA89FB8980818F778083EA89FB89808138
:101FB0008F7D80838A8D898F1DC06CD7CE010E9452
:101FC0007A2118C0612FCE0176DD009799F0DC01EF
:101FD000ED91FC910284F385E02D19950BC018302A
:101FE00048F0612FCE0167DD009721F018DD02C0B7
:101FF00080E00AC081E008C0A8E6B0E0983008F4AC
:10200000F4CEE0E0F0E0F3CEDF91CF911F910F919D
:10201000FF90EF90DF90CF90BF90AF909F908F9008
:102020000895FC01158216821782DC011896885BE0
:102030009F4F1D92A817B907E1F71C92DF01A75B1C
:10204000BF4F1D921C92E75DFE4F0190F081E02D85
:10205000309709F0199408951F920F920FB60F92BE
:1020600011240BB60F922F933F934F935F936F936F
:102070007F938F939F93AF93BF93EF93FF93809141
:10208000B900887F803609F49CC068F5883209F46D
:102090005BC090F4803109F454C038F4882309F40B
:1020A000F6C0883009F44DC0F5C0883109F44CC041
:1020B000803209F45DC0EEC0803409F468C048F491
:1020C000803309F455C0883309F0E4C08093430598
:1020D000D8C0803509F44FC0883509F45DC0883414
:1020E00009F0D8C0D6C0883909F4C7C0A8F4883729
:1020F00009F467C038F4883609F463C0803709F4FE
:1021000060C0C8C0883809F4B8C0803909F45FC01D
:10211000803809F0BFC05BC0803B09F486C038F44A
:10212000803A09F466C0883A09F47FC0B3C0803CA5
:1021300009F4A7C0883C09F4A4C0883B09F48AC00C
:10214000A9C08091200510C0909142058091410561
:10215000981770F5E091420581E08E0F809342055B
:10216000F0E0EF5DFA4F80818093BB0085EC86C084
:10217000809343058EC0E091420581E08E0F8093ED
:1021800042058091BB00F0E0EF5DFA4F80839091B3
:102190004205809141056EC0E091420581E08E0FBD
:1021A000809342058091BB00F0E0EF5DFA4F8083A1
:1021B0008091440581116DC081E080931F0584EA00
:1021C00061C083E0809345051092D704CFCF809102
:1021D000D704803208F051C0E091D70481E08E0F1F
:1021E0008093D7048091BB00F0E0E954FB4F8083DB
:1021F000BDCF85EC8093BC00109245058091D7043B
:10220000803230F4E091D704F0E0E954FB4F1082C3
:102210006091D70470E0E091B504F091B60487EBCB
:1022200094E019951092D70435C084E08093450559
:102230001092B4041092B304E091B104F091B2048E
:1022400019958091B304811105C081E08093B30496
:1022500010929104E091B40481E08E0F8093B40455
:10226000F0E0EF56FB4F80818093BB009091B40467
:102270008091B304981708F479CF85E88093BC0067
:1022800009C085EC8093BC001092450503C01092F4
:10229000430597DBFF91EF91BF91AF919F918F9194
:1022A0007F916F915F914F913F912F910F900BBE56
:1022B0000F900FBE0F901F9018954091B304262FDA
:1022C00030E0240F311D21323105DCF42091450529
:1022D0002430C9F4FC0180E090E0861758F4309176
:1022E000B3042191DC01AF56BB4FA30FB11D2C935A
:1022F0000196F3CF8091B304680F6093B30480E03C
:10230000089581E0089582E00895CF92DF92EF92E0
:10231000FF920F931F93CF93DF936C017A018B0190
:10232000C0E0D0E0CE15DF0589F0D8016D918D01B8
:10233000D601ED91FC910190F081E02DC601199537
:10234000892B11F47E0102C02196ECCFC701DF91E9
:10235000CF911F910F91FF90EF90DF90CF90089554
:10236000FC01A089B1898C91A689B78982FD0FC033
:102370009C91818D8F5F8F73228D821749F0218D03
:10238000DF01A20FB11D5D969C93818F08958C9102
:102390000895FC01918D828D981761F0828DDF0187
:1023A000A80FB11D5D968C91928D9F5F9F73928F48
:1023B00090E008958FEF9FEF0895FC01918D828D3D
:1023C000981731F0828DE80FF11D858D90E008950A
:1023D0008FEF9FEF0895FC01918D228D892F90E062
:1023E000805C9F4F821B91098F73992708958AE61D
:1023F00095E0F1DF21E0892B09F420E0822F089598
:1024000087E096E0E8DF21E0892B09F420E0822FC5
:10241000089584EA96E0DFDF21E0892B09F420E0CB
:10242000822F089581E497E0D6DF21E0892B09F41B
:1024300020E0822F0895FC01848DDF01A80FB11DDB
:10244000A35ABF4F2C91848D90E001968F739927EA
:10245000848FA689B7892C93A089B1898C918064D7
:102460008C93938D848D981306C00288F389E02D98
:1024700080818F7D80830895EF92FF920F931F9349
:10248000CF93DF93EC0181E0888F9B8D8C8D981327
:1024900005C0E889F989808185FD23C0F62E0B8D62
:1024A00010E00F5F1F4F0F731127E02E8C8DE81285
:1024B0000BC00FB607FCFACFE889F989808185FF48
:1024C000F5CFCE01B8DFF2CF8B8DFE01E80FF11D05
:1024D000E35AFF4FF0820B8FEA89FB89808180628B
:1024E00007C0EE89FF896083E889F989808180646B
:1024F000808381E090E0DF91CF911F910F91FF9059
:10250000EF900895CF93DF93EC01888D8823C1F07D
:10251000EA89FB89808185FD05C0A889B9898C91EC
:1025200086FD0EC00FB607FCF5CF808185FFF2CF88
:10253000A889B9898C9185FFEDCFCE017CDFE8CFEA
:10254000DF91CF91089580E090E0892B19F06ADF48
:10255000811116C080E090E0892B19F05ADF8111BB
:1025600012C080E090E0892B19F04ADF81110EC083
:1025700080E090E0892B79F03ADF81110AC008955C
:102580000E940000E7CF0E940000EBCF0E940000F5
:10259000EFCF0C940000089590E0FC013197E231F8
:1025A000F10508F04EC08827EA54FF4F8F4F0C9476
:1025B000C920809180008F7703C0809180008F7D3B
:1025C00080938000089580918000877FF9CF84B543
:1025D0008F7702C084B58F7D84BD08958091B0004F
:1025E0008F7703C08091B0008F7D8093B0000895F5
:1025F000809190008F7707C0809190008F7D03C0FD
:1026000080919000877F8093900008958091A00032
:102610008F7707C08091A0008F7D03C08091A000BC
:10262000877F8093A0000895809120018F7707C055
:10263000809120018F7D03C080912001877F80934E
:10264000200108953FB7F89480911B0590911C05D7
:10265000A0911D05B0911E0526B5A89B05C02F3F72
:1026600019F00196A11DB11D3FBFBA2FA92F982FB8
:102670008827820F911DA11DB11DBC01CD0142E033
:10268000660F771F881F991F4A95D1F708952091EB
:102690007203309173032817390771F49091D904AC
:1026A0008091D804981741F0E091D904F0E0E65207
:1026B000FB4F808190E008958FEF9FEF089508957C
:1026C0001F93CF93DF93DC015C962D913C915D9736
:1026D0002115310539F481E090E013969C938E9397
:1026E00012973DC05196ED91FC91529750969C9156
:1026F0005097892F80951FB75E964C915E9741FB4E
:10270000772770F941FD6095F8944081772311F0A7
:10271000492B01C048234083E9012197F1F748E0A4
:10272000508160FF02C0592B01C058235083E9013A
:102730002197F1F76695415099F7772321F0908121
:102740008923808303C08081982B90831FBF5C9670
:102750008D919C915D970197F1F721E030E0C901DF
:10276000DF91CF911F9108952091720330917303EF
:102770002817390769F48091D8042091D90490E092
:10278000805C9F4F821B910960E470E00C94B6203E
:1027900080E090E008952091720330917303281730
:1027A0003907B9F49091D9048091D804981789F029
:1027B000E091D904F0E0E652FB4F80812091D904EA
:1027C00030E02F5F3F4F2F7333272093D90490E0E1
:1027D00008958FEF9FEF08950E9412221F920F928B
:1027E0000FB60F9211240BB60F922F933F934F9376
:1027F0005F936F937F938F939F93AF93BF93EF9369
:10280000FF938AE695E017DEFF91EF91BF91AF91BC
:102810009F918F917F916F915F914F913F912F91F8
:102820000F900BBE0F900FBE0F901F9018951F9228
:102830000F920FB60F9211240BB60F922F933F9366
:102840004F935F936F937F938F939F93AF93BF93B8
:10285000EF93FF938AE695E083DDFF91EF91BF91BF
:10286000AF919F918F917F916F915F914F913F9128
:102870002F910F900BBE0F900FBE0F901F901895C9
:102880001F920F920FB60F9211240BB60F922F9337
:102890003F934F935F936F937F938F939F93AF93E8
:1028A000BF93EF93FF9387E096E0C5DDFF91EF9133
:1028B000BF91AF919F918F917F916F915F914F9158
:1028C0003F912F910F900BBE0F900FBE0F901F9056
:1028D00018951F920F920FB60F9211240BB60F92FC
:1028E0002F933F934F935F936F937F938F939F9318
:1028F000AF93BF93EF93FF9387E096E031DDFF91B5
:10290000EF91BF91AF919F918F917F916F915F9167
:102910004F913F912F910F900BBE0F900FBE0F90D4
:102920001F9018951F920F920FB60F9211240BB69D
:102930000F922F933F934F935F936F937F938F9358
:102940009F93AF93BF93EF93FF9384EA96E073DD79
:10295000FF91EF91BF91AF919F918F917F916F9177
:102960005F914F913F912F910F900BBE0F900FBE33
:102970000F901F9018951F920F920FB60F9211246F
:102980000BB60F922F933F934F935F936F937F9369
:102990008F939F93AF93BF93EF93FF9384EA96E057
:1029A000DFDCFF91EF91BF91AF919F918F917F916C
:1029B0006F915F914F913F912F910F900BBE0F90B0
:1029C0000FBE0F901F9018951F920F920FB60F9287
:1029D00011240BB60F922F933F934F935F936F93F6
:1029E0007F938F939F93AF93BF93EF93FF9381E474
:1029F00097E021DDFF91EF91BF91AF919F918F9172
:102A00007F916F915F914F913F912F910F900BBEEE
:102A10000F900FBE0F901F9018951F920F920FB638
:102A20000F9211240BB60F922F933F934F935F9306
:102A30006F937F938F939F93AF93BF93EF93FF9386
:102A400081E497E08DDCFF91EF91BF91AF919F9171
:102A50008F917F916F915F914F913F912F910F9047
:102A60000BBE0F900FBE0F901F901895CF93DF9362
:102A7000282F30E0F901E659FD4F8491F901EC5D12
:102A8000FD4FD491F901E252FE4FC491CC2389F05D
:102A9000811182DDEC2FF0E0EE0FFF1FEC53FE4FB3
:102AA000A591B491EC91ED2381E090E021F480E0D8
:102AB00002C080E090E0DF91CF9108951F93CF9303
:102AC000DF93282F30E0F901E659FD4F8491F90199
:102AD000EC5DFD4FD491F901E252FE4FC491CC233D
:102AE000C1F0162F811158DDEC2FF0E0EE0FFF1F23
:102AF000E655FE4FA591B4918FB7F894111105C01A
:102B00009C91ED2FE095E92302C0EC91ED2BEC9325
:102B10008FBFDF91CF911F910895CF93DF9390E006
:102B2000FC01EC5DFD4F2491FC01E252FE4F8491CB
:102B3000882361F190E0880F991FFC01E057FE4F58
:102B4000C591D491FC01E655FE4FA591B491611158
:102B500009C09FB7F8948881209582238883EC91DF
:102B60002E230BC0623061F49FB7F8943881822F16
:102B7000809583238883EC912E2B2C939FBF06C0D6
:102B80008FB7F894E8812E2B28838FBFDF91CF91E8
:102B90000895863308F0865390917B00282F287083
:102BA000977F922B90937B008770806480937C004A
:102BB00080917A00806480937A0080917A0086FD0B
:102BC000FCCF809178002091790090E0922B0895BD
:102BD0008F929F92AF92BF92CF92DF92EF92FF922D
:102BE0006B017C012FDD4B015C01C114D104E104B8
:102BF000F104E9F027DDDC01CB0188199909AA0964
:102C0000BB09883E9340A105B10578F321E0C21AC3
:102C1000D108E108F10888EE880E83E0981EA11C17
:102C2000B11CC114D104E104F10421F7DECFFF90FF
:102C3000EF90DF90CF90BF90AF909F908F900895CE
:102C40001F920F920FB60F9211242F933F938F93E1
:102C50009F93AF93BF9380916E0390916F03A09168
:102C60007003B091710330911A0523E0230F2D37C3
:102C700020F40196A11DB11D05C026E8230F029680
:102C8000A11DB11D20931A0580936E0390936F03CD
:102C9000A0937003B093710380911B0590911C0564
:102CA000A0911D05B0911E050196A11DB11D809337
:102CB0001B0590931C05A0931D05B0931E05BF91A5
:102CC000AF919F918F913F912F910F900FBE0F90D9
:102CD0001F9018950F931F93CF93DF93EC01162F3E
:102CE000042F1B821A8288EE93E0A0E0B0E08C8370
:102CF0009D83AE83BF8387E192E0998388831F8A97
:102D00001E8A198E188E1B8E1A8E1D8E1C8E6E8D2D
:102D10006E7F20FB61F96E8F6695617081E0682798
:102D2000842FCCDE61E0802FF8DE402F50E0FA01E6
:102D3000EC5DFD4FE491E88BFA01E252FE4FE49125
:102D4000F0E0EE0FFF1FE655FE4F859194919A8BB0
:102D5000898B60E0812FE1DE8E8D81FD03C061E013
:102D6000812FACDE1C87612F70E0FB01EC5DFD4F15
:102D7000E491ED87FB01E252FE4FE491F0E0EE0FAB
:102D8000FF1FEC53FE4F859194919F878E87DF91B3
:102D9000CF911F910F9108951F920F920FB60F922E
:102DA00011240BB60F922F933F934F935F936F9322
:102DB0007F938F939F93AF93BF93EF93FF93E09194
:102DC0007203F0917303309709F451C0968DA68574
:102DD000B785858591FF04C09C91892329F447C05C
:102DE0009C91892309F043C0A389B4899C9185896A
:102DF000809589238C93868997890197F1F7608D57
:102E0000718DA685B785558538E020E0CB01019707
:102E1000F1F7822F90E095958795282F4C914523C7
:102E200009F02068315091F7868D81FD20958091C1
:102E3000D80490E001968F7399273091D904381700
:102E400049F0A091D804B0E0A652BB4F2C938093D8
:102E5000D80403C0868D8160868F828D938D019703
:102E6000F1F7A389B4899C918589892B8C93FF9173
:102E7000EF91BF91AF919F918F917F916F915F91F2
:102E80004F913F912F910F900BBE0F900FBE0F905F
:102E90001F901895E0917203F0917303E817F907FA
:102EA00069F4A389B4899C918589809589238C9341
:102EB000109273031092720381E0089580E00895E8
:102EC0000F931F93CF93DF93EC010EED17E0D80122
:102ED0008D919C91DC01ED91FC916C2F6F770190AD
:102EE000F081E02D1995F80180819181DC01ED914F
:102EF000FC91CC0FCD2FCC1FDD0B6C2F6F77019089
:102F0000F081E02DDF91CF911F910F911994809165
:102F1000DE079091DF07DC01ED91FC910190F081DB
:102F2000E02D67EF19948091DE079091DF07DC01B7
:102F3000ED91FC910190F081E02D60EF1994CF9319
:102F4000DF93EB01A091DE07B091DF07ED91FC91DB
:102F500011978F70682F606E0190F081E02DCD0188
:102F60001995CE01DF91CF91ABCFEF92FF920F93E6
:102F70001F93CF93DF9300D0CDB7DEB7162F4A83D0
:102F80005B838983D0DFA091DE07B091DF07ED91ED
:102F9000FC9111970190F081E02D8981682FCD017E
:102FA00019954A81042FE42E5B81F52E8E2D801B0E
:102FB000811730F4F70181917F0190E081DFF6CF36
:102FC0000F900F900F90DF91CF911F910F91FF9075
:102FD000EF909DCFFC0101900020E9F73197BF01F0
:102FE000681B790BAC0181E7C0CF382F20916905B0
:102FF00090916805213208F049C080914505811102
:10300000FCCF42E040934505309344053FEF3093B9
:1030100043051092420520934105A8E4B5E041E242
:1030200055E0FA013E2F341B321718F43D913193CD
:10303000F9CF1092200520912005990F922B9093A3
:10304000200590911F05913061F410921F05909119
:1030500020059093BB009091BC0093FDF8CF95ECB8
:1030600001C095EE9093BC00909145059230E1F33C
:10307000909143059F3F79F080914305803241F064
:1030800080914305803331F084E005C081E003C0C6
:1030900082E001C083E0109247051092690510920A
:1030A00046050895A091DE07B091DF07ED91FC91F0
:1030B00011970190F081E02D682FCD011994CF93E5
:1030C000DF93CEEDD7E088819981DC01ED91FC9111
:1030D0000190F081E02D69EF199588819981DC01DB
:1030E000ED91FC910190F081E02D62E019958881CD
:1030F0009981DC01ED91FC910190F081E02D65E07A
:10310000DF91CF911994CF930EDF8091DE079091DC
:10311000DF07DC01ED91FC910190F081E02D69E782
:1031200019958091DE079091DF07DC01ED91FC910C
:10313000A091E107B091E2070190F081E02D6C9140
:1031400019958091DE079091DF07DC01ED91FC91EC
:10315000A091E107B091E2070190F081E02D119676
:103160006C911995C2E08091E007C81758F4E0917E
:10317000E107F091E207EC0FF11D808190E0A0DE05
:10318000CF5FF1CFCF91C3CECF92DF92EF92FF927C
:103190000F931F93CF93DF93EC016A017B01E889C2
:1031A000F98982E080834115514E61057105B1F0C6
:1031B00060E079E08DE390E0A70196010E94512242
:1031C00089019A0101501109210931093695279584
:1031D00017950795980101151041A8F0E889F9891C
:1031E000108260E874E88EE190E0A70196010E94E9
:1031F0005122DA01C9010197A109B109B695A79534
:10320000979587959C01EC85FD853083EE85FF853C
:103210002083188EEC89FD8986E08083EA89FB890A
:10322000808180618083EA89FB89808188608083D6
:10323000EA89FB89808180688083EA89FB898081B3
:103240008F7D8083DF91CF911F910F91FF90EF9041
:10325000DF90CF900895789484B5826084BD84B562
:10326000816084BD85B5826085BD85B5816085BD81
:1032700080916E00816080936E0010928100809139
:1032800081008260809381008091810081608093C1
:103290008100809180008160809380008091B100E6
:1032A00084608093B1008091B00081608093B00011
:1032B0008091910082608093910080919100816063
:1032C0008093910080919000816080939000809124
:1032D000A10082608093A1008091A1008160809311
:1032E000A1008091A00081608093A00080912101C5
:1032F000826080932101809121018160809321016E
:103300008091200181608093200180917A00846007
:1033100080937A0080917A00826080937A00809115
:103320007A00816080937A0080917A00806880932F
:103330007A001092C10082E18093E0078091E1075A
:103340009091E207D7D7C091E007D0E0CE01019677
:103350003CD79093E2078093E107FC01EC0FFD1F3F
:10336000108222E0DC012C9325E011962C93AE0113
:10337000425051096EE972E002960E94162283E5DE
:1033800098E09093FC088093FB0889EB92E090937F
:10339000FE088093FD0887EA96E0909300098093E9
:1033A000FF0883E296E0909302098093010984E587
:1033B0009BE090930409809303098EE398E0909337
:1033C00006098093050980EB93E090930C098093A4
:1033D0000B0987E693E0909308098093070981E041
:1033E00080930D0940E051EE60E070E081E497E0E9
:1033F000CBDE81E497E09093DF078093DE07809136
:103400000D09811141C061E08DE087DB62ED70E064
:1034100080E090E0DDDB61E08DE050DB68E270E0B1
:1034200080E090E0D5DB60E08DE048DB62ED70E0AD
:1034300080E090E0CDDB61E08DE040DB68E270E0B1
:1034400080E090E0C5DB60E08DE038DB6AEF70E0A3
:1034500080E090E0BDDBC0E062ED70E080E090E0F5
:10346000B7DB61E08DE02ADB68E270E080E090E0AD
:10347000AFDB60E08DE022DBCF5FC53069F76DE741
:1034800070E080E090E0A4DB1ADE8091E00781111B
:103490003ADE0E94670315E0AA24A39402E080911B
:1034A0006503882391F1F0905C03F2FE2FC482E063
:1034B000DDDA892B09F42AC4C4E0F3FE05C083E0F9
:1034C000D5DA892B09F024C4F4FE05C084E0CEDAF5
:1034D000892B09F01FC4F5FE05C085E0C7DA892BEA
:1034E00009F01AC4F6FE05C086E0C0DA892B09F09F
:1034F00015C4F7FE05C087E0B9DA892B09F010C4BE
:1035000040E06C2F80E00E94E509809166038823EB
:1035100009F440C0F0905D03F0FE04C488E0A6DA30
:10352000892B09F4FFC3C1E0F1FE05C089E09EDAF2
:10353000892B09F0F9C3F2FE05C08AE097DA892BDE
:1035400009F0F4C3F3FE05C08BE090DA892B09F093
:10355000EFC3F4FE05C08CE089DA892B09F0EAC3D9
:10356000F5FE05C08DE082DA892B09F0E5C3F6FE91
:1035700005C08EE07BDA892B09F0E0C3F7FE05C0B9
:103580008FE074DA892B09F0DBC340E06C2F81E017
:103590000E94E50980916703882309F440C0F090F8
:1035A0005E03F0FECFC380E161DA892B09F4CAC360
:1035B000C1E0F1FE05C081E159DA892B09F0C4C3ED
:1035C000F2FE05C082E152DA892B09F0BFC3F3FE97
:1035D00005C083E14BDA892B09F0BAC3F4FE05C0BC
:1035E00084E144DA892B09F0B5C3F5FE05C085E115
:1035F0003DDA892B09F0B0C3F6FE05C086E136DA64
:10360000892B09F0ABC3F7FE05C087E12FDA892BC0
:1036100009F0A6C340E06C2F82E00E94E50980918A
:103620006803882309F440C0F0905F03F0FE9AC35A
:1036300088E11CDA892B09F495C3C1E0F1FE05C0CD
:1036400089E114DA892B09F08FC3F2FE05C08AE103
:103650000DDA892B09F08AC3F3FE05C08BE106DA87
:10366000892B09F085C3F4FE05C08CE1FFD9892BB5
:1036700009F080C3F5FE05C08DE1F8D9892B09F06A
:103680007BC3F6FE05C08EE1F1D9892B09F076C324
:10369000F7FE05C08FE1EAD9892B09F071C340E03C
:1036A0006C2F83E00E94E50980916903882309F467
:1036B00040C0F0906003F0FE65C380E2D7D9892B4B
:1036C00009F460C3C1E0F1FE05C081E2CFD9892BC6
:1036D00009F05AC3F2FE05C082E2C8D9892B09F06D
:1036E00055C3F3FE05C083E2C1D9892B09F050C34D
:1036F000F4FE05C084E2BAD9892B09F04BC3F5FE6C
:1037000005C085E2B3D9892B09F046C3F6FE05C092
:1037100086E2ACD9892B09F041C3F7FE05C087E2E8
:10372000A5D9892B09F03CC340E06C2F84E00E94AE
:10373000E50980916A03882309F440C0F090610391
:10374000F0FE30C388E292D9892B09F42BC3C1E083
:10375000F1FE05C089E28AD9892B09F025C3F2FE62
:1037600005C08AE283D9892B09F020C3F3FE05C086
:103770008BE27CD9892B09F01BC3F4FE05C08CE2D7
:1037800075D9892B09F016C3F5FE05C08DE26ED9F7
:10379000892B09F011C3F6FE05C08EE267D9892B8B
:1037A00009F00CC3F7FE05C08FE260D9892B09F040
:1037B00007C340E06C2F85E00E94E50980916B0310
:1037C000882309F440C0F0906203F0FEFBC280E35E
:1037D0004DD9892B09F4F6C2C1E0F1FE05C081E3A1
:1037E00045D9892B09F0F0C2F2FE05C082E33ED92B
:1037F000892B09F0EBC2F3FE05C083E337D9892B8F
:1038000009F0E6C2F4FE05C084E330D9892B09F043
:10381000E1C2F5FE05C085E329D9892B09F0DCC298
:10382000F6FE05C086E322D9892B09F0D7C2F7FE40
:1038300005C087E31BD9892B09F0D2C240E06C2F69
:1038400086E00E94E50980916C03882309F440C05A
:10385000F0906303F0FEC6C288E308D9892B09F40F
:10386000C1C2C1E0F1FE05C089E300D9892B09F08E
:10387000BBC2F2FE05C08AE3F9D8892B09F0B6C2B3
:10388000F3FE05C08BE3F2D8892B09F0B1C2F4FE38
:1038900005C08CE3EBD8892B09F0ACC2F5FE05C05E
:1038A0008DE3E4D8892B09F0A7C2F6FE05C08EE3AC
:1038B000DDD8892B09F0A2C2F7FE05C08FE3D6D868
:1038C000892B09F09DC240E06C2F87E00E94E5093A
:1038D00080916D03882309F442C0F0906403F0FEE8
:1038E00091C280E4C3D8892B09F48CC2C1E0F1FEF7
:1038F00005C081E4BBD8892B09F086C2F2FE05C061
:1039000082E4B4D8892B09F081C2F3FE05C083E4B8
:10391000ADD8892B09F07CC2F4FE05C084E4A6D89A
:10392000892B09F077C2F5FE05C085E49FD8892B65
:1039300009F072C240E06C2F88E00E94E5090FC0D8
:103940008091DE079091DF07EC01E881F981068024
:10395000F781E02D19958F3FDFEF9D0771F480917E
:10396000DE079091DF07DC01ED91FC910480F58189
:10397000E02D1995892B21F71CC1382F209126089D
:10398000222309F466C0873F09F054C0109226082C
:103990008091E607813749F0893709F03DC0809171
:1039A000E0078823E1F2AFDBDACFE0910909F0917B
:1039B0000A093097A1F22091270830912808C901FF
:1039C000019797FDC90195958795F82EA6EEB7E06A
:1039D00040E050E030E04E5F5F4F3F1570F4BA01B9
:1039E0006252784FEB012F812C936885D0E86D9F50
:1039F000201911242D933F5FEECF9927DC01A252AD
:103A0000B84F17968C911797882311F018961C922F
:103A100086EE97E01995A3CFE0910B09F0910C0980
:103A2000309709F49CCF60912708615047EE57E02A
:103A3000199595CF2091270830912808F901E25275
:103A4000F84F80872F5F3F4F309328082093270837
:103A500086CF2091E307222309F469C087FD67C060
:103A60009FEF920F9093E307E92FF0E0E252F84FB7
:103A70008087911174CF8091E407882309F46FCF78
:103A8000803D09F445C050F4803901F1803C09F0D3
:103A90004BC0E091FF08F09100093EC0843F39F12E
:103AA000853F51F1803E09F03FC0E091FB08F09165
:103AB000FC083097C9F18091E6076091E70770E054
:103AC00020E8829F600D711D11242BC0E091FD083C
:103AD000F091FE08309741F18091E6076091E70789
:103AE00070E090E8899F600D711D11241AC0E0916B
:103AF0000309F091040904C0E0910509F091060959
:103B0000309791F06091E60770E08091E7070BC075
:103B1000E0910109F0910209309731F06091E607D8
:103B200070E08091E50719951092E40718CF303FB7
:103B300038F4282F207F30E08F708093E50702C093
:103B40009C013327203F310559F17CF4203C31059D
:103B500011F124F420393105D9F001CF203D310590
:103B6000D1F0203E3105A1F0FACE293F3105F9F020
:103B700034F4C901845F9109029750F0F0CE2F3FD1
:103B8000310509F0ECCE8EED97E00E941110E7CEE2
:103B90000093E30702C0A092E3072093E407DFCE7F
:103BA000A09226081092280810922708D8CE87DA0B
:103BB000D6CE8FB7F894C0906E03D0906F03E0908C
:103BC0007003F09071038FBFC092A203D092A30341
:103BD000E092A403F092A50380919E0390919F032D
:103BE000A091A003B091A103409101025091020263
:103BF00060E070E0C81AD90AEA0AFB0A4C155D05B4
:103C00006E057F0530F080915D0A87FD7CC0B12C88
:103C100064C0840F951FA61FB71F80939E039093C7
:103C20009F03A093A003B093A10399E2E92E98E02B
:103C3000F92ECAECC031B0F4F7018081823091F4E2
:103C400080919C0390919D030C2E02C095958795C1
:103C50000A94E2F780FF06C08C2F0E94C915BC01B0
:103C60008C2F6DD9CF5FFFEFEF1AFF0AC03111F72C
:103C70008091000287FDC7CFC0E02C2F30E08091FB
:103C80000002082E000C990B821793070CF4BBCF8F
:103C9000129FF001139FF00D1124EC58FC4F61812D
:103CA00072812481438180810E942A0ACF5FE5CFFF
:103CB000FC01E55CF54FC281EC2FF0E0EE0FFF1F39
:103CC000EB5BF54FC080D1806C2F8BE39AE00E94B4
:103CD0005B0D7C01892B61F4B3948B2D90E02091D6
:103CE0005D0A022E000C330B281739070CF70BC0A6
:103CF000C83008F493C08091720390917303E81662
:103D0000F90651F78BC00E94A312C9CBC0E0D5CBF6
:103D1000C860DACBC061DFCBC062E4CBC064E9CB62
:103D2000C068EECBC0E000CCC26005CCC4600ACC59
:103D3000C8600FCCC06114CCC06219CCC0641ECC6A
:103D4000C06823CCC0E035CCC2603ACCC4603FCC64
:103D5000C86044CCC06149CCC0624ECCC06453CC76
:103D6000C06858CCC0E06ACCC2606FCCC46074CC70
:103D7000C86079CCC0617ECCC06283CCC06488CC82
:103D8000C0688DCCC0E09FCCC260A4CCC460A9CC7C
:103D9000C860AECCC061B3CCC062B8CCC064BDCC8E
:103DA000C068C2CCC0E0D4CCC260D9CCC460DECC88
:103DB000C860E3CCC061E8CCC062EDCCC064F2CC9A
:103DC000C068F7CCC0E009CDC2600ECDC46013CD91
:103DD000C86018CDC0611DCDC06222CDC06427CDA2
:103DE000C0682CCDC0E03ECDC26043CDC46048CD9C
:103DF000C8604DCDC06152CDC06257CDC0645CCDAE
:103E0000C06861CDC0E073CDC26078CDC4607DCDA7
:103E1000C86082CDC06187CDC0628CCDD701ED91E5
:103E2000FC910480F581E02DC7011995181619063B
:103E30000CF052CF80EF36D980E634D98C2F8064D5
:103E400031D9C114D10459F0D701ED91FC9104800E
:103E5000F581E02DC7011995C816D9064CF0E70188
:103E6000E881F9810480F581E02DC70119956C0185
:103E70001C141D04A4F4E701E881F9810680F78190
:103E8000E02DC7011995C82F8F770CD98C2F881F6B
:103E90008827881F07D9D1E0CD1AD108E9CF87EF4D
:103EA00001D91ACFCF92DF92EF92FF9210926D0557
:103EB00010926C0578EEC72E73E0D72EE12CF12C12
:103EC000C0926E05D0926F05E0927005F092710578
:103ED00087E292E090936B0580936A0525E331E0D9
:103EE000309377052093760524E331E0309379050C
:103EF0002093780520E331E030937B0520937A0509
:103F000021E331E030937D0520937C0522E331E00D
:103F100030937F0520937E0526E331E030938105C1
:103F200020938005109283051092840510928505D8
:103F30001092860510920A0610920906C0920B068E
:103F4000D0920C06E0920D06F0920E0690930806B1
:103F50008093070625ED30E0309314062093130676
:103F600024ED30E0309316062093150620ED30E066
:103F7000309318062093170621ED30E030931A068F
:103F80002093190622ED30E030931C0620931B0687
:103F900026ED30E030931E0620931D061092200679
:103FA0001092210610922206109223061092A70664
:103FB0001092A606C092A806D092A906E092AA0680
:103FC000F092AB069093A5068093A4062DEC30E00A
:103FD0003093B1062093B0062CEC30E03093B3065A
:103FE0002093B20628EC30E03093B5062093B40657
:103FF00029EC30E03093B7062093B6062AEC30E087
:104000003093B9062093B8062EEC30E03093BB060F
:104010002093BA061092BD061092BE061092BF06FB
:104020001092C0061092440710924307C0924507B1
:10403000D0924607E0924707F092480790934207D4
:104040008093410785EC90E090934E0780934D0755
:1040500084EC90E09093500780934F0780EC90E0C1
:10406000909352078093510781EC90E0909354070E
:104070008093530782EC90E0909356078093550706
:1040800086EC90E0909358078093570710925A0758
:1040900010925B0710925C0710925D071092E00788
:1040A0001092E2071092E10710920D098EED97E051
:1040B0000E9411101092110910921009C092120959
:1040C000D0921309E0921409F092150987E392E067
:1040D00090930F0980930E098FE592E090933C0A2C
:1040E00080933B0A10925F0A10925E0A1092610A56
:1040F0001092600A1092630A1092620A1092650A86
:104100001092640A8FEF80935D0A8091AA09ABEA4E
:10411000B9E09FEF48EB5BE0803378F48C93282F75
:1041200030E0F901EE0FFF1F2E0F3F1FF901E65E91
:10413000F64F528341838F5F01C09C9313962AE010
:10414000AB33B20749F78093AA09FF90EF90DF9055
:10415000CF900895991B79E004C0991F961708F035
:10416000961B881F7A95C9F78095089597FB072EAF
:1041700016F4009406D077FD08D013D007FC05D0C4
:104180003EF4909581959F4F0895709561957F4F6E
:104190000895EE0FFF1F881F8BBF0790F691E02D4B
:1041A0001994AA1BBB1B51E107C0AA1FBB1FA6176E
:1041B000B70710F0A61BB70B881F991F5A95A9F7D0
:1041C00080959095BC01CD010895CF93DF93823007
:1041D000910510F482E090E0E091680AF091690A9C
:1041E00020E030E0C0E0D0E0309711F14081518113
:1041F00048175907C0F04817590761F48281938125
:10420000209719F09B838A832BC09093690A80932F
:10421000680A26C02115310519F04217530718F412
:104220009A01BE01DF01EF010280F381E02DDCCFB6
:104230002115310509F1281B390B2430310590F483
:1042400012968D919C9113976115710521F0FB01D8
:104250009383828304C09093690A8093680AFD0166
:10426000329644C0FD01E20FF31F819391932250D7
:1042700031092D933C933AC02091660A3091670A28
:10428000232B41F420910502309106023093670AF6
:104290002093660A20910302309104022115310512
:1042A00041F42DB73EB74091070250910802241BFC
:1042B000350BE091660AF091670AE217F307A0F464
:1042C0002E1B3F0B2817390778F0AC014E5F5F4F6C
:1042D0002417350748F04E0F5F1F5093670A40932D
:1042E000660A8193919302C0E0E0F0E0CF01DF9194
:1042F000CF9108950F931F93CF93DF93009709F405
:104300008CC0FC013297138212820091680A1091CE
:10431000690A0115110581F420813181820F931FF3
:104320002091660A3091670A2817390779F5F093CA
:10433000670AE093660A71C0D80140E050E0AE170A
:10434000BF0750F412962D913C911397AD012115A2
:10435000310509F1D901F3CF9D01DA0133832283BD
:1043600060817181860F971F8217930769F4EC01B2
:1043700028813981260F371F2E5F3F4F31832083DD
:104380008A819B8193838283452B29F4F093690A68
:10439000E093680A42C01396FC93EE931297ED01E6
:1043A000499159919E01240F351FE217F30771F4CB
:1043B00080819181840F951F029611969C938E9314
:1043C0008281938113969C938E931297E0E0F0E0A4
:1043D000D80112968D919C911397009719F0F801CE
:1043E0008C01F6CF8D919C9198012E5F3F4F820FEB
:1043F000931F2091660A3091670A2817390769F4DC
:10440000309729F41092690A1092680A02C0138248
:1044100012821093670A0093660ADF91CF911F9171
:104420000F91089581E090E0F8946CC0FB01DC01ED
:104430004150504048F001900D920020C9F701C052
:104440001D9241505040E0F70895052E97FB16F459
:1044500000940FD057FD05D024D007FC02D046F4BD
:1044600008C050954095309521953F4F4F4F5F4F75
:10447000089590958095709561957F4F8F4F9F4FD0
:10448000089531D0A59F900DB49F900DA49F800DED
:10449000911D11240895B7FFF4CFF3DF821B930B16
:1044A0000895A1E21A2EAA1BBB1BFD010DC0AA1F75
:1044B000BB1FEE1FFF1FA217B307E407F50720F08D
:1044C000A21BB30BE40BF50B661F771F881F991F08
:1044D0001A9469F760957095809590959B01AC0151
:1044E000BD01CF010895A29FB001B39FC001A39F5A
:1044F000700D811D1124911DB29F700D811D11241D
:08450000911D0895F894FFCF0E
:10450800FF130000006A0A80000100000012100E6C
:1045180013110F0000000060138511B413CB13476B
:10452800135F13000000003C128511EB11C911DD67
:1045380011821200000000C30193018B01FB0CECF7
:104548000CEB0C00000000EC138511EC13EC13ECE1
:1045580013EC1300000000EC138511000000003874
:104568000DD00CA60D890D433A5C55736572735CCA
:104578004A6F6F785C4465736B746F705C537461D9
:104588006E646172644669726D617461506C7573B2
:104598005C41726475696E6F5F4E616E6F5C4172EB
:1045A8006475696E6F5F4E616E6F2E696E6F003154
:1045B800302D6269742061646472657373696E6713
:1045C800206E6F7420737570706F727465640074F8
:1045D8006F6F206D616E7920717565726965730002
:1045E8004932433A20546F6F206D616E79206279A9
:1045F8007465732072656365697665640049324342
:104608003A20546F6F20666577206279746573204D
:104618007265636569766564004D617820736572BB
:10462800766F7320617474616368656400556E6B9E
:104638006E6F776E2070696E206D6F6465005370C1
:1046480065636966792073657269616C20525820C8
:0C465800616E642054582070696E73007D
:00000001FF
