:100000000C9429010C9451010C9451010C94510150
:100010000C9451010C9451010C9451010C94510118
:100020000C9451010C949E130C9430160C94A2164F
:100030000C9451010C9451010C9451010C945101F8
:100040000C9451010C94F70E0C9451010C94510135
:100050000C9451010C9451010C9451010C94EE122A
:100060000C9451010C9405190C94DF180C94510157
:100070000C9451010C9451010C9451010C945101B8
:100080000C9451010C9451010C9451010C945101A8
:100090000C94470D0C9451010C9451010C94510196
:1000A0000C9451010C9451010C94510154035903C7
:1000B0005E0368037203BC03BC03BC037C038603BA
:1000C00090039A03A703BC03AF03B704DC04A8049E
:1000D000F50416054F053D054F054F054F0547052E
:1000E000C604A409B509B509B509B509B509B50925
:1000F000B509B5099209B509F508B5095109B50958
:10010000D3087D08B509B509B509B509B50957077B
:10011000B5093408B509BF081510181007100B10E1
:1001200011103910391039101C10201024102A1009
:100130002E1039103410070605040100080A0B0CB4
:100140000D0900000000240027002A002D003000C7
:1001500000000000250028002B002E0031000000C8
:1001600000002300260029002C002F0004040404B2
:10017000040304050202020204030202020206064C
:100180000606060604040202020404040802011022
:1001900040804010204080408008020401804020C0
:1001A00010020110801020404020000000020009D1
:1001B0000F0000030401000C00000000000000001C
:1001C000000000000000000000080B000202020115
:1001D00000090400000102020000052400100105CE
:1001E00024010101042402060524060001070581FB
:1001F0000310004009040100020A00000007050284
:100200000240000007058302400000040309044186
:10021000726475696E6F204C4C430041726475695D
:100220006E6F204C656F6E6172646F001201000288
:100230000000004041233680000101020301120149
:100240000002EF0201404123368000010102030158
:10025000921F11241FBECFEFDAE0DEBFCDBF26E034
:10026000A8E8B2E001C01D92A837B207E1F712E09A
:10027000A0E0B1E0ECE5F4E402C005900D92A838EE
:10028000B107D9F711E0C9E2D1E004C02197FE011E
:100290000E946E20C832D107C9F70E94E21A0C945E
:1002A0002C220C940000A82FB0E0A852BD4F9C91C6
:1002B000292F30E0F901EE0FFF1F2E0F3F1FF9012C
:1002C000E75EF94FE081F0E09F01220F331FE20F5C
:1002D000F31FEC50FA4F80818F7B80838091D60290
:1002E000981306C0992379F091509093D6020BC0D1
:1002F000882349F0E091D702EF5FE093D702F0E066
:10030000E957FD4F90838FEF8C9308958E3180F4E1
:10031000E82FF0E0DF01A558BA4F9C91913041F4ED
:10032000EE0FFF1FE756FA4F608371830C94911113
:100330000895CF938C3080F540913503509136036A
:1003400021E030E0672B81F4B90102C0660F771F0E
:100350008A95E2F7CB01809590958423952390931D
:1003600036038093350318C0082E02C0220F331FB6
:100370000A94E2F7242B352B309336032093350370
:100380009091FB02911108C0C82F0E94FD11BC0181
:100390008C2FCF910C947619CF910895AF92BF9284
:1003A000CF92DF92EF92FF920F931F93CF93DF9341
:1003B0001F92CDB7DEB7843008F08EC0982F990F0A
:1003C000990F990F985F9F3108F09EE1D62EB82EB5
:1003D000BB0CBB0CBB0CFB2CA12CCC24C394F9167E
:1003E000F0F40F2D10E0F801E558FA4F208122308B
:1003F00098F4EE24E3948C2D8D2109F4E12C000F68
:10040000111F213009F055C0AC28F801E756FA4F0A
:100410002E2D30E031832083CC0CF394E0CFA0FE6E
:1004200005C06D2D61708B2D0E949111A1FE06C03B
:100430006D2D627081E08B0D0E949111A2FE06C0AD
:100440006D2D647082E08B0D0E949111A3FE06C099
:100450006D2D687083E08B0D0E949111A4FE06C083
:100460006D2D607184E08B0D0E949111A5FE06C078
:100470006D2D607285E08B0D0E949111A6FE06C065
:100480006D2D607486E08B0D0E949111A7FE24C033
:100490006D2D607887E08B0D0F90DF91CF911F91CC
:1004A0000F91FF90EF90DF90CF90BF90AF900C94A2
:1004B0009111EE2009F4A9CFF801E756FA4F2081F7
:1004C00031812130310509F4A0CF62E08F2D99836D
:1004D0000E94C111998199CF0F90DF91CF911F9107
:1004E0000F91FF90EF90DF90CF90BF90AF90089565
:1004F0006F927F928F929F92AF92BF92CF92DF9234
:10050000EF92FF920F931F93CF93DF931F92CDB77C
:10051000DEB7982F3B018E3108F03BC1082F10E069
:10052000F801E558FA4F8081833009F48CC084309B
:1005300009F02FC1F801E852FD4FE080F12C67016E
:10054000CC0CDD1C603282E078070CF042C077FDF5
:1005500005C0653B710524F4DB0104C0A0E001C0C7
:10056000A4EBB0E0F601EE0DFF1DE75EF94F8181CF
:1005700028E830E04901881A910887FD9394880C97
:10058000991C880C991C092C000CAA08BB088281B4
:1005900028E532E0281B310987FD3395220F331FF0
:1005A000220F331FA901330F660B770B9A01AB01A2
:1005B000281939094A095B090E94F32124EB30E02C
:1005C00040E050E00E94C921820E931EA41EB51E79
:1005D00001C04B01F601EE0DFF1DE75EF94F2081D2
:1005E0002C3008F0CFC0318188E890E0831B91095E
:1005F00037FD9395880F991F880F991F88169906C4
:1006000084F0828148E552E0481B510987FD5395EB
:10061000440F551F440F551FC401481559050CF4CC
:10062000CA010297880F991F4FB7F89430E0F9017B
:10063000EE0FFF1F2E0F3F1FF901EC50FA4F928370
:1006400081834FBF9FC0933059F08BEF890F823069
:1006500038F087EF890F833018F09D3009F092C091
:1006600061E0892F99830E94C111998161147104FD
:1006700011F460E005C08FEF6816710429F461E0A1
:10068000892F0E9491117EC0F801E655FE4FE4913A
:100690004E2F50E0FA013197EF30F10508F06CC0B1
:1006A000EA5AFF4F0C946E2084B5806884BD67BC05
:1006B00069C084B5806284BD68BC64C080918000DC
:1006C00080688093800070928900609288005AC090
:1006D0008091800080628093800070928B00609295
:1006E0008A0050C080918000886080938000709262
:1006F0008D0060928C0046C080919000806880934D
:10070000900070929900609298003CC08091900097
:1007100080628093900070929B0060929A0032C039
:100720008091900088608093900070929D0060920C
:100730009C0028C08091C00080688093C000809198
:10074000C0008F7B8093C0006092CF001BC080915F
:10075000C00080628093C0006092D00013C080917E
:10076000C20088608093C2008091C2008B7F80931A
:10077000C2006092D20006C080E8681671040CF0D6
:100780007ECF77CF000F111FF801E756FA4F718225
:1007900060820F90DF91CF911F910F91FF90EF90AA
:1007A000DF90CF90BF90AF909F908F907F906F9091
:1007B0000895DB019091D6029C30A8F53091D702C4
:1007C000682F70E0332369F0E32FF0E0E957FD4F25
:1007D0008081FB01E852FD4F808331503093D70276
:1007E00007C0FB01E852FD4F90839F5F9093D602B4
:1007F000FB01E852FD4F808190E09C01220F331FE6
:10080000820F931F1A161B0634F4141615061CF4D7
:100810009A01AD0104C020E639E040E252E0875E73
:10082000994F0C94750E84E891E00C94C619AF9220
:10083000BF92CF92DF92EF92FF920F931F93CF93CD
:10084000DF93C82ED12CE601C05DDA4FFE01E55BD7
:10085000FF4F90819F3709F449C17B01182F9630D3
:1008600069F48091FA02882349F06630710509F431
:1008700039C11092FA028FEF809308011E3100F502
:1008800084E0E816F104E1F0F601E852FD4F8081C2
:100890008C30B0F490E0FC01EE0FFF1F8E0F9F1F15
:1008A000FC01E75EF94F808190E0FC01EE0FFF1F35
:1008B0008E0F9F1FFC01EC50FA4F808186FDFDC01A
:1008C0000EEE010F0C3060F461E070E082E0E8169B
:1008D000F10411F060E070E0802F0E94990102C0E5
:1008E0001E3120F5E12FE695E695E695412F4770FC
:1008F000F0E0E150FD4FE114F10421F08BE0E81647
:10090000F10451F481E090E001C0880F4A95EAF7C4
:100910009081892B80830AC021E030E001C0220F42
:100920004A95EAF720958081282320835601AA0C56
:10093000BB1CF501E756FA4F118210828CE0E816D5
:10094000F10408F0ACC0F701EB59FF4F0C946E2096
:100950000C3008F0CBC060E0812F0E94C111C55B54
:10096000DF4F88818F3709F4C1C082E096C01E3105
:1009700008F0BCC060E0812F0E94C111C55BDF4F51
:1009800088818F3709F4B2C01882B0C01E3108F0D8
:10099000ADC062E0812F0E94C111C55BDF4F88812D
:1009A0008F3711F08BE08883F501E756FA4F81E02D
:1009B00090E0918380839AC01E3108F097C0FE01B9
:1009C000E55BFF4F8081833021F460E0812F0E943E
:1009D000911161E0812F0E94C111C55BDF4F8881B9
:1009E0008F3709F483C081E058C0133059F08BEF82
:1009F000810F823038F087EF810F833018F01D307F
:100A000009F074C061E0812F0E94C11161E0812F63
:100A10000E94C11160E0812F0E949111C55BDF4FE0
:100A200088818F3709F462C083E037C01E3108F037
:100A30005DC0C55BDF4F88818F3711F084E088830C
:100A4000F601E852FD4F80818F3FD9F190E0FC0123
:100A5000EE0FFF1F8E0F9F1FFC01E75EF94F808195
:100A600090E0FC01EE0FFF1F8E0F9F1FFC01EC506A
:100A7000FA4F808186FD3AC024C012501230B0F582
:100A8000C55BDF4F88818F3789F186E006C0C55B83
:100A9000DF4F88818F3751F18AE0888327C088E94A
:100AA00091E0DF91CF911F910F91FF90EF90DF9038
:100AB000CF90BF90AF900C94C619812F0E94530124
:100AC000FFCE4FEF5FEF6FEF7FEF812FDF91CF9181
:100AD0001F910F91FF90EF90DF90CF90BF90AF905C
:100AE0000C94D9031E3108F4CFCEEACEDF91CF911A
:100AF0001F910F91FF90EF90DF90CF90BF90AF903C
:100B000008950F931F93CF93DF9381E08093FB02AF
:100B10008DE396E00E9475148091FA02882329F0F3
:100B20001092FA028FEF80930801CFEFD2E0A6EF88
:100B3000B2E0E3E0F3E084E08E0F119219921D928F
:100B40008E13FBCF08ED12E0C0E0DFEF8EEE8C0FCE
:100B50008C3018F462E070E002C061E070E08C2F2D
:100B60000E941704F801D1938F01CF5FCE3171F746
:100B700010923603109235031092D7021092D602CB
:100B80001092FB02DF91CF911F910F9108950F9367
:100B90001F93CF93082F10E0F801E150FD4F908193
:100BA000C62FC9230A501D4F411104C0D8019C9182
:100BB0009C1771F1682F8091300590913105DC010F
:100BC000ED91FC916F7060690190F081E02D0995C5
:100BD0008091300590913105DC01ED91FC916C2FF5
:100BE0006F770190F081E02D09958091300590910B
:100BF0003105DC01ED91FC916C2F70E0660F672FE1
:100C0000661F770B0190F081E02D0995F801C083F4
:100C1000CF911F910F9108950F931F93CF93DF935F
:100C2000082F843008F06FC090E0FC01ED5FFC4FAE
:100C30006083672B09F467C0FC01E150FD4F108110
:100C4000D02FDD0FDD0FDD0F10FF4DC08D2F0E9467
:100C50006811892B09F447C0C1E011FF07C081E08A
:100C60008D0F0E946811892B09F03FC012FF06C04A
:100C700082E08D0F0E946811892BC9F513FF06C011
:100C800083E08D0F0E946811892B99F514FF06C02F
:100C900084E08D0F0E946811892B69F515FF06C04D
:100CA00085E08D0F0E946811892B39F5D83191F0BC
:100CB00016FF06C086E08D0F0E946811892BF9F49B
:100CC000D73140F417FF06C087E08D0F0E946811EE
:100CD000892BB9F441E06C2F802FDF91CF911F91C8
:100CE0000F910C94C705C0E0B8CFC260BFCFC460FD
:100CF000C5CFC860CBCFC061D1CFC062D7CFC064F1
:100D0000DFCFC068E7CFDF91CF911F910F9108959A
:100D1000CF92DF92EF92FF920F931F93CF93DF93C7
:100D20001F92CDB7DEB7082F6B01142F6F3F8FEFE7
:100D3000780709F181E080931F0400934104109229
:100D400020041092420488EE95E029830E945D0AF7
:100D50002981822F0E94D219E091D402F091D5020C
:100D6000E230F10550F0EE0FFF1FEE0FFF1F359739
:100D70003197F1F702C0C12CD12C80911E04811152
:100D8000FCCF212F113208F020E281E080931E0475
:100D900080931D049FEF90931C0410921B04920FEC
:100DA00090931A048093F9038091F903902F990F7F
:100DB000892B8093F9038091F803813061F41092BC
:100DC000F8038091F9038093BB008091BC0083FD00
:100DD000F8CF85EC01C085EE8093BC0080911E04A5
:100DE0008130E1F380911B04821710F420911B04E1
:100DF000AAEFB3E04FE353E0FA018E2F841B821772
:100E000018F48D918193F9CF1092600320935F03C2
:100E1000E12EF12C30E0E216F3061CF489EA91E0B1
:100E200005C02E153F0524F486EC91E00E94C619FA
:100E300000939402C0929502C12CD12CCE14DF04F1
:100E400034F490915F0380916003981310C062E0C6
:100E5000610F44E952E087E70F90DF91CF911F9136
:100E60000F91FF90EF90DF90CF900C948D1988EE4A
:100E700095E00E94110AF601EC56FD4F82838FEF38
:100E8000C81AD80ADBCFEF92FF920F931F93CF932C
:100E9000DF9390E0FC01E056F109EB31F10508F039
:100EA00064C2EA01162FEF58FF4F0C946E2029817F
:100EB000922F987125FF03C082EE91E05AC088817D
:100EC00031E026FB222720F92327983069F160F4CE
:100ED00091114BC230931F0480934104109220045F
:100EE0001092420402E007C0903109F43CC09831EE
:100EF00009F46DC03AC2011778F4FE01E00FF11D4C
:100F00008181608120E8829F6019112488EE95E03C
:100F10000E945D0A0E5FEFCF81E00E94D21983E14B
:100F200091E00197F1F721C24A816B81163069F493
:100F300030E8639FB0011124640F711D9D814C81C5
:100F4000E0E89E9F4019112406C0F0E86F9F401909
:100F500011246FEF7FEFDF91CF911F910F91FF90E1
:100F6000EF900C948806E0910801E73054F082E09D
:100F700092E0DF91CF911F910F91FF90EF900C9431
:100F8000C6199A814B81663069F430E8439FA0010D
:100F90001124490F511D3D819C8160E8369F9019B5
:100FA000112406C0F0E84F9F901911244FEF5FEF16
:100FB000EF5FE093080135E0E302F0011124E35F05
:100FC000FC4F80835283418393832483CEC120913D
:100FD0000801121614F08FEF44C090E0622F022E29
:100FE000000C770B35E0492F50E06417750774F05B
:100FF000349FF001359FF00D1124E35FFC4F4081D9
:10100000481302C085E026C09F5FEDCF90E0FACF85
:101010009830F8F4FA0131968E9FD0018F9FB00D71
:101020001124A35FBC4F3C91849FF001859FF00D7C
:101030001124E35FFC4F308311964D915C91129720
:101040005283418313963C911397338314963C91BA
:1010500034839F5F492F50E064177507CCF68FEFFC
:10106000820F8093080181C12881898160E8869F71
:10107000C0011124820F911D009721F09093D50299
:101080008093D4028091FA0281116FC1C0E08EEF8B
:101090008C0F823028F466E070E08C2F0E941704D9
:1010A000CF5FCE31A1F781E08093FA021092600306
:1010B00010925F03109220041092420410921E04BA
:1010C00080931D041092F80361E082E00E94911168
:1010D00061E083E00E9491118091B9008E7F80933E
:1010E000B9008091B9008D7F8093B90088E4809326
:1010F000B80085E48093BC0038C1653008F435C180
:101100001881F9800A81EB80CC811E3108F02DC155
:10111000E12FF0E0E852FD4F20812C30B0F430E0B8
:10112000F901EE0FFF1F2E0F3F1FF901E75EF94F88
:10113000208130E0F901EE0FFF1F2E0F3F1FF90154
:10114000EC50FA4F808186FD0CC180E8C89FA00159
:1011500011244E0D511D90E8099FB00111246F0D0F
:10116000711D812F0E94D90364E070E0812FDF910F
:10117000CF911F910F91FF90EF900C941704623064
:1011800008F4F3C028818981E0E88E9FC001112412
:10119000820F911D009711F481E090E090930A0175
:1011A00080930901E2C0623008F4DFC0698170E019
:1011B000123091F08A81F0E88F9FC0011124682BD2
:1011C000792B133049F08B8190E090E4899F902D2A
:1011D00088271124682B792B8881DF91CF911F916B
:1011E0000F91FF90EF900C94780280EF0E942F1ADD
:1011F0008CE60E942F1AC0E080E00E942F1A81E046
:101200000E942F1A8BE00E942F1A81E00E942F1A51
:1012100081E00E942F1A81E00E942F1A8EEE8C0F1F
:101220008C3038F482E00E942F1A8AE00E942F1A34
:1012300009C0C33039F483E00E942F1A88E00E946D
:101240002F1A0AC08BEF8C0F8230A8F387EF8C0F18
:10125000833088F3CD3079F384E00E942F1A8EE03A
:101260000E942F1A8EEF8C0F823030F486E00E949D
:101270002F1A81E00E942F1A6C2F8DE396E00E94B6
:101280001B0D8FE70E942F1ACF5FCE3109F0B4CF2C
:1012900087EFDF91CF911F910F91FF90EF900C940A
:1012A0002F1A662309F461C0C88180EF0E942F1AAB
:1012B0008EE60E942F1A8C2F0E942F1ACE3140F7F3
:1012C000D0E0FE01E558FA4F80810E942F1ACC0F22
:1012D000DD1F8E0107561A4FF80180818F770E941B
:1012E0002F1AF801808191819C012078232B39F0FD
:1012F000880F892F881F990B8F770E942F1AC75646
:10130000DA4F888199819C012227307C232B09F4B4
:10131000BFCF990F880B990F982F881F8F770E9446
:101320002F1AB6CF80EF0E942F1A8AE60E942F1A3A
:10133000CEEECC3010F48C2F01C08FE70E942F1A14
:10134000CF5FCC30B1F7A4CF9A01462F60E68DE392
:1013500096E0DF91CF911F910F91FF90EF900C9449
:101360008C0A812F0E945301F0CEDF91CF911F9103
:101370000F91FF90EF9008950E94B5214A305105DA
:1013800051F4E62FF0E0E558FA4F80818F3729F0CD
:101390008AE0808302C080E0089581E0089585EDB1
:1013A0008093BC008091BC0084FDFCCF10921E0491
:1013B000089540918403262F30E0240F311D2132FF
:1013C0003105DCF420911E042430C9F4FC0180E0D6
:1013D00090E0861758F4309184032191DC01AE59D6
:1013E000BC4FA30FB11D2C930196F3CF80918403C2
:1013F000680F6093840380E0089581E0089582E09F
:1014000008950895E091600380915F03E81730F438
:10141000F0E0E15CFC4F808190E008958FEF9FEF5A
:1014200008959091600380915F03981750F4E92F1D
:10143000F0E0E15CFC4F208130E09F5F909360031F
:1014400002C02FEF3FEFC901089580915F0390E044
:1014500020916003821B91090895CF92DF92EF9251
:10146000FF920F931F93CF93DF937C01262F972F2B
:101470008A0180911F04882391F0C62FD72F6E0117
:10148000C40ED51ECC15DD0571F06991D701ED9123
:10149000FC910190F081E02DC7010995F3CF642FF5
:1014A000822F0E94D909C801DF91CF911F910F911E
:1014B000FF90EF90DF90CF900895CF93DF931F922E
:1014C000CDB7DEB7698320911F042223D1F020918C
:1014D0004204203240F021E030E0FC0133832283DB
:1014E00080E090E015C080912004E82FF0E0EF5DEF
:1014F000FB4F998190838F5F8093200480934204F7
:1015000005C061E0CE0101960E94D90981E090E01A
:101510000F90DF91CF9108958F929F92AF92BF92DB
:10152000CF92DF92EF92FF920F931F93CF93DF93AF
:10153000EC01042F5901603609F064C2D9018C9185
:10154000182F1F70807F803309F4BEC130F48031C2
:1015500071F0803209F495C157C2803609F439C25E
:10156000803709F444C2803509F04EC205C2F90142
:10157000C280D12CE12CF12C87E0CC0CDD1CEE1CC0
:10158000FF1C8A95D1F7838190E0A0E0B0E02EE0C7
:10159000880F991FAA1FBB1F2A95D1F7C82AD92ADD
:1015A000EA2AFB2A8181C82A183008F05DC0612F21
:1015B000CE010E945714EC01892B09F425C2E88959
:1015C000F98982E08083C114F1EEDF06E104F104C1
:1015D000B1F060E079E08DE390E0A70196010E9410
:1015E000FB21BA01A90141505109610971097695A0
:1015F0006795579547959A0141155041A8F0E8899C
:10160000F989108260E874E88EE190E0A701960104
:101610000E94FB21DA01C9010197A109B109B69520
:10162000A795979587959C01EC85FD853083EE8580
:10163000FF852083188EEC89FD8986E08083EA8906
:10164000FB89808180618083EA89FB898081886051
:101650008083EA89FB89808180688083EA89FB89AD
:1016600080818F7D8083D0C1453068F00481B58052
:10167000193001F118F4183059F04EC01A3059F1F0
:101680001B30D1F149C089E692E00E94C619BAC167
:101690008BA19CA1892B09F03FC08FE190E00E94B3
:1016A00088204C0120E04B2D602F0E9438139CA213
:1016B0008BA232C08DA19EA1892B71F58FE190E0A4
:1016C0000E9488204C0120E04B2D602F0E9438138F
:1016D0009EA28DA221C08FA198A5892BE9F48FE14C
:1016E00090E00E9488204C0120E04B2D602F0E944A
:1016F000381398A68FA210C089A59AA5892B61F4EA
:101700008FE190E00E9488204C0120E04B2D602F5B
:101710000E9438139AA689A6612FCE010E94571401
:10172000EC01892B09F470C1E02FF0E0E558FA4F85
:1017300080818F3711F08AE08083EB2DF0E0E5584F
:10174000FA4F80818F3711F08AE080831B8E1A8ECA
:10175000198E188E1F8A1E8A60E079E08DE390E072
:10176000A70196010E94C921F9012430310518F022
:10177000C901039702C081E090E09D8F8C8F8C851A
:1017800098EF980F943048F062EF680F643028F0BB
:1017900066EE680F633008F072C0B9017695679500
:1017A0006431710518F06351710902C061E070E0A5
:1017B0007F8B6E8B369720F0B9016550710902C09E
:1017C00061E070E0798F688FB901660F771F260F8F
:1017D000371F36952795369527952D30310518F00A
:1017E0002C50310902C021E030E03B8F2A8F943029
:1017F00058F092EF980F943038F08A51833008F403
:1018000005C1A0E0B0E004C1A8E6B0E0E8E6F0E081
:10181000808181608C938C8598EF980F943058F07C
:1018200022EF280F243038F026EE280F233018F04E
:1018300020E030E002C02BE630E03C8B2B8B943074
:1018400010F49CEF09C08E3071F08F3071F0803150
:1018500071F0813171F09AEE980F81E001C0880F2C
:101860009A95EAF707C088E005C082E003C084E0EB
:1018700001C081E08D8B8C8D9D8D0197F1F7CE019C
:10188000BEC0612FCE010E9457147C01892B09F440
:10189000BBC01A2DCA2DDB2D22969C2F9150911B77
:1018A000901708F0B1C0D701ED91FC918881DE015D
:1018B00011976C91B0E88B9F601911240190F08111
:1018C000E02DC7010995E8CFF9018181811127C079
:1018D0002AA127300CF098C0812F90E0FC013596AA
:1018E000EE0FFF1FEC0FFD1F433070F0D501139674
:1018F0008C91B0E88B9FC0011124D50112963C91C8
:10190000832B9183808302C01182108281E0820F39
:101910008AA3C80FD11D87FDDA951A8375C081305F
:1019200009F072C09AA119161CF08FEF8AA36CC03F
:1019300080E0492F092E000C550B282F30E042176C
:10194000530744F0FE01E20FF31F2281211761F0DB
:101950008F5FF3CF80E008C0883028F4FE01E20FEB
:10196000F31F238122838F5F282F30E04217530714
:101970009CF791509AA348C0612FCE010E94571442
:10198000EC01009709F440C01830E8F4E881F981CF
:101990000284F385E02D0995EA89FB8980818F7E99
:1019A0008083EA89FB898081877F8083EA89FB893C
:1019B00080818F778083EA89FB8980818F7D808316
:1019C0008A8D898F21C00E941814CE010E941D218A
:1019D0001BC0612FCE010E9457140097A9F0DC01B3
:1019E000ED91FC910284F385E02D09950DC018302E
:1019F00058F0612FCE010E945714009729F00E94E1
:101A00002E1402C080E00AC081E008C0A8E6B0E061
:101A1000833008F4FBCEE0E0F0E0FACEDF91CF9126
:101A20001F910F91FF90EF90DF90CF90BF90AF90FC
:101A30009F908F900895CF93623060F4C62F8AE014
:101A40000E942F1ACC2311F083E001C082E0CF91D5
:101A50000C942F1ACF910895FC01158216821782DB
:101A6000DC011896885B9F4F1D92A817B907E1F714
:101A70001C92DF01A75BBF4F1D921C92EF54FF4FDA
:101A80000190F081E02D309709F0099408951F929C
:101A90000F920FB60F9211242F933F934F935F93A2
:101AA0006F937F938F939F93AF93BF93EF93FF9326
:101AB0008091B900887F803609F49CC068F588322F
:101AC00009F45BC090F4803109F454C038F48823E1
:101AD00009F4F6C0883009F44DC0F6C0883109F425
:101AE0004CC0803209F45DC0EFC0803409F468C096
:101AF00048F4803309F455C0883309F0E5C0809379
:101B00001C04D8C0803509F44FC0883509F45DC085
:101B1000883409F0D9C0D6C0883909F4C7C0A8F400
:101B2000883709F467C038F4883609F463C0803711
:101B300009F460C0C9C0883809F4B8C0803909F414
:101B40005FC0803809F0C0C05BC0803B09F486C02C
:101B500038F4803A09F466C0883A09F47FC0B4C00A
:101B6000803C09F4A7C0883C09F4A4C0883B09F470
:101B70008AC0AAC08091F90310C090911B04809183
:101B80001A04981770F5E0911B0481E08E0F809382
:101B90001B04F0E0E650FC4F80818093BB0085EC95
:101BA00086C080931C048EC0E0911B0481E08E0FE0
:101BB00080931B048091BB00F0E0E650FC4F8083D3
:101BC00090911B0480911A046EC0E0911B0481E087
:101BD0008E0F80931B048091BB00F0E0E650FC4F19
:101BE000808380911D0481116DC081E08093F80392
:101BF00084EA61C083E080931E041092A803CFCFD3
:101C00008091A803803208F051C0E091A80381E0E0
:101C10008E0F8093A8038091BB00F0E0E857FC4F43
:101C20008083BDCF85EC8093BC0010921E04809110
:101C3000A803803230F4E091A803F0E0E857FC4FAD
:101C400010826091A80370E0E0918603F091870311
:101C500088E893E009951092A80336C084E0809349
:101C60001E041092850310928403E0918203F09188
:101C70008303099580918403811105C081E08093DD
:101C8000840310926203E091850381E08E0F8093BC
:101C90008503F0E0EE59FC4F80818093BB0090916A
:101CA000850380918403981708F479CF85E88093A1
:101CB000BC000AC085EC8093BC0010921E0404C0D6
:101CC00010921C040E94CF09FF91EF91BF91AF9138
:101CD0009F918F917F916F915F914F913F912F9144
:101CE0000F900FBE0F901F901895DF92EF92FF920A
:101CF0000F931F93CF93DF93EC01D62E7A018901C6
:101D000088818C3008F06AC061E08D2D0E94C1117D
:101D10008881E82FF0E09F01220F331FE20FF31FAD
:101D2000EC50FA4F9D2D9F732081207CD22ED92A12
:101D3000D08260E272E0AB014E195F0957FF02C02A
:101D40004D5F5F4F5595479555954795498340E6BB
:101D500059E09A01201B310B37FF02C02D5F3F4F26
:101D600035952795359527952A836CE00E944E205E
:101D70009CE0899FB001112440E050E09A01260FB9
:101D8000371FF901EE0FFF1F2E0F3F1FF901EC5017
:101D9000FA4F908196FD16C04F5F5F4F4C30510552
:101DA00069F781110FC01092800082E0809381005A
:101DB0001092850010928400B19A80916F00826029
:101DC00080936F00E881F0E0CF01880F991FE80F42
:101DD000F91FEC50FA4F8081806480838881DF9105
:101DE000CF911F910F91FF90EF90DF9008951F9278
:101DF0000F920FB60F9211242F933F934F935F933F
:101E00006F937F938F939F93AF93BF93EF93FF93C2
:101E10008091610387FF05C01092850010928400B5
:101E20001BC020916103022E000C330B8091180619
:101E300090E02817390784F480916103082E000C84
:101E4000990BFC01EE0FFF1F8E0F9F1FFC01EC5042
:101E5000FA4F808186FD15C0809161038F5F80936A
:101E6000610320916103022E000C330B8091180650
:101E700090E028173907C4F4809161038C3064F135
:101E800013C080916103082E000C990BFC01EE0F2A
:101E9000FF1F8E0F9F1FFC01EC50FA4F808160E006
:101EA0008F730E949111D8CF80918400909185000A
:101EB000049680349C4918F480E49CE905C0809124
:101EC0008400909185000496909389008093880007
:101ED0008FEF809361033BC0209184003091850097
:101EE00080916103082E000C990BFC01EE0FFF1F7F
:101EF0008E0F9F1FFC01EC50FA4F81819281820F5F
:101F0000931F909389008093880080916103082E2D
:101F1000000C990BFC01EE0FFF1F8E0F9F1FFC01A1
:101F2000EC50FA4F808186FF12C080916103082E29
:101F3000000C990BFC01EE0FFF1F8E0F9F1FFC0181
:101F4000EC50FA4F808161E08F730E949111FF91F4
:101F5000EF91BF91AF919F918F917F916F915F9121
:101F60004F913F912F910F900FBE0F901F9018959A
:101F700080E090E0892B29F00E948B1581110C9450
:101F800000000895CF93DF931F92CDB7DEB769832A
:101F9000DC01ED91FC910280F381E02D41E050E005
:101FA000BE016F5F7F4F09950F90DF91CF9108952C
:101FB00083E08093E9008091F200882319F08AE39E
:101FC0008093E8000895FC018485958597FD0BC0FA
:101FD0009FB7F89482E08093E9008091F2009FBF60
:101FE00090E0019608959FB7F89482E08093E9000D
:101FF0008091F2009FBF90E0089590E0FC0131973E
:10200000EF30F105B0F5E457FF4F0C946E2080914E
:1020100080008F7703C0809180008F7D8093800047
:10202000089580918000877FF9CF84B58F7702C0B3
:1020300084B58F7D84BD0895809190008F7707C00F
:10204000809190008F7D03C080919000877F809366
:10205000900008958091C0008F7703C08091C000E8
:102060008F7D8093C00008958091C200877F809308
:10207000C20008953FB7F8948091EC039091ED036E
:10208000A091EE03B091EF0326B5A89B05C02F3FAA
:1020900019F00196A11DB11D3FBFBA2FA92F982F8E
:1020A0008827820F911DA11DB11DBC01CD0142E009
:1020B000660F771F881F991F4A95D1F708952091C1
:1020C0000B0330910C032817390771F49091EA0340
:1020D0008091E903981741F0E091EA03F0E0E755B9
:1020E000FC4F808190E008958FEF9FEF0895089551
:1020F0001F93CF93DF93DC015C962D913C915D970C
:102100002115310539F481E090E013969C938E936C
:1021100012973DC05196ED91FC91529750969C912B
:102120005097892F80951FB75E964C915E9741FB23
:10213000772770F941FD6095F8944081772311F07D
:10214000492B01C048234083E9012197F1F748E07A
:10215000508160FF02C0592B01C058235083E90110
:102160002197F1F76695415099F7772321F09081F7
:102170008923808303C08081982B90831FBF5C9646
:102180008D919C915D970197F1F721E030E0C901B5
:10219000DF91CF911F91089520910B0330910C0393
:1021A0002817390771F48091E9032091EA0390E040
:1021B000805C9F4F821B910960E470E00E945A206E
:1021C000089580E090E0089520910B0330910C0376
:1021D00028173907B9F49091EA038091E903981719
:1021E00089F0E091EA03F0E0E755FC4F808120910F
:1021F000EA0330E02F5F3F4F2F7333272093EA032A
:1022000090E008958FEF9FEF08950F931F93CF9362
:10221000DF931F92CDB7DEB78C01FC0184859585D5
:1022200097FF0EC0CE0101960E94A41A019719F4DF
:10223000298130E002C02FEF3FEFF8013587248776
:10224000F801848595850F90DF91CF911F910F91B3
:102250000895CF93DF931F92CDB7DEB7FC0184853D
:10226000958597FD05C02FEF3FEF358724870BC07D
:10227000CE0101960E94A41A019719F4898190E079
:1022800002C08FEF9FEF0F90DF91CF910895FC0177
:10229000848DDF01A80FB11DA35ABF4F2C91848DEF
:1022A00090E001968F739927848FA689B7892C9324
:1022B000A089B1898C9180648C93938D848D9813BF
:1022C00006C00288F389E02D80818F7D8083089588
:1022D000CF93DF93282F30E0F901E655FE4F84912C
:1022E000F901E557FE4FD491F901E459FE4FC4912D
:1022F000CC2391F081110E94FD0FEC2FF0E0EE0F46
:10230000FF1FE25AFE4FA591B491EC91ED2381E0BD
:1023100090E021F480E002C080E090E0DF91CF9176
:1023200008951F93CF93DF93282F30E0F901E655EE
:10233000FE4F8491F901E557FE4FD491F901E4591C
:10234000FE4FC491CC23C9F0162F81110E94FD0FBE
:10235000EC2FF0E0EE0FFF1FE05BFE4FA591B49174
:102360008FB7F894111105C09C91ED2FE095E923EA
:1023700002C0EC91ED2BEC938FBFDF91CF911F91B9
:102380000895CF93DF9390E0FC01E557FE4F249131
:10239000FC01E459FE4F8491882361F190E0880F9D
:1023A000991FFC01EE5BFE4FC591D491FC01E05BEF
:1023B000FE4FA591B491611109C09FB7F89488812F
:1023C000209582238883EC912E230BC0623061F428
:1023D0009FB7F8943881822F809583238883EC916E
:1023E0002E2B2C939FBF06C08FB7F894E8812E2B1D
:1023F00028838FBFDF91CF910895823108F08251F9
:10240000E82FF0E0EA5CFE4FE49180917B00E3FB73
:10241000222720F930E095E0220F331F9A95E1F74B
:102420008F7D282B20937B00E770E064E0937C0095
:1024300080917A00806480937A0080917A0086FD92
:10244000FCCF809178002091790090E0922B089544
:102450008F929F92AF92BF92CF92DF92EF92FF92B4
:102460006B017C010E943A104B015C01C114D10444
:10247000E104F104F1F00E943A10DC01CB0188196B
:102480009909AA09BB09883E9340A105B10570F3DB
:1024900021E0C21AD108E108F10888EE880E83E035
:1024A000981EA11CB11CC114D104E104F10419F758
:1024B000DDCFFF90EF90DF90CF90BF90AF909F90D7
:1024C0008F9008958F929F92AF92BF92CF92DF929A
:1024D000EF92FF920F931F93CF93DF935C016B01F9
:1024E0008A0180910701882309F45EC08091F70377
:1024F000882309F459C08091FD0280FF05C08091B6
:10250000E00082608093E000E8018AEFF82E93E01B
:10251000E92E2FE3822E3AE3932E209709F43DC053
:102520008FB7F894E092E9009091E80095FF06C01B
:102530009091F200282D291B922F01C090E08FBFAF
:1025400091110AC0FA94FF2079F161E070E080E017
:1025500090E00E942812E1CF292F30E0C217D30764
:102560000CF49C2F8FB7F894E092E9002091E800DA
:1025700025FF11C0292F30E0C21BD30BF60191506B
:1025800020F041914093F100FACFC20ED31E9091FA
:10259000E80095FF13C08FBFC0CF5D9884E680939D
:1025A000F0031016110644F081E090E0F5019383EA
:1025B000828380E090E005C0C80103C09092E800EB
:1025C000EACFDF91CF911F910F91FF90EF90DF90B5
:1025D000CF90BF90AF909F908F9008951F920F92D1
:1025E0000FB60F9211242F933F938F939F93AF9326
:1025F000BF938091070390910803A0910903B091C4
:102600000A033091EB0323E0230F2D3720F40196CA
:10261000A11DB11D05C026E8230F0296A11DB11D05
:102620002093EB038093070390930803A09309037F
:10263000B0930A038091EC039091ED03A091EE0317
:10264000B091EF030196A11DB11D8093EC0390930F
:10265000ED03A093EE03B093EF03BF91AF919F9171
:102660008F913F912F910F900FBE0F901F90189553
:102670000F931F93CF93DF93EC01162F042F1B8230
:102680001A8288EE93E0A0E0B0E08C839D83AE8355
:10269000BF838DE191E0998388831F8A1E8A198EFA
:1026A000188E1B8E1A8E1D8E1C8E6E8D6E7F20FBDB
:1026B00061F96E8F6695617081E06827842F0E94B2
:1026C000911161E0802F0E94C111402F50E0FA016A
:1026D000E557FE4FE491E88BFA01E459FE4FE4918F
:1026E000F0E0EE0FFF1FE05BFE4F859194919A8B17
:1026F000898B60E0812F0E94C1118E8D81FD04C005
:1027000061E0812F0E9491111C87612F70E0FB0115
:10271000E557FE4FE491ED87FB01E459FE4FE4914C
:10272000F0E0EE0FFF1FE25AFE4F859194919F87D4
:102730008E87DF91CF911F910F9108951F920F9275
:102740000FB60F9211242F933F934F935F936F9384
:102750007F938F939F93AF93BF93EF93FF93E091FA
:102760000B03F0910C03309709F451C0968DA685A8
:10277000B785858591FF04C09C91892329F447C0C2
:102780009C91892309F043C0A389B4899C918589D0
:10279000809589238C93868997890197F1F7608DBD
:1027A000718DA685B785558538E020E0CB0101976E
:1027B000F1F7822F90E095958795282F4C9145232E
:1027C00009F02068315091F7868D81FD2095809128
:1027D000E90390E001968F7399273091EA03381747
:1027E00049F0A091E903B0E0A755BC4F2C9380932A
:1027F000E90303C0868D8160868F828D938D01975A
:10280000F1F7A389B4899C918589892B8C93FF91D9
:10281000EF91BF91AF919F918F917F916F915F9158
:102820004F913F912F910F900FBE0F901F901895D1
:10283000E0910B03F0910C03E817F90769F4A38901
:10284000B4899C918589809589238C9310920C037F
:1028500010920B0381E0089580E00895CF93DF93F9
:10286000EC018A8D9B8D892BF1F080910B03909167
:102870000C038C179D07B9F0009711F00E941814F3
:102880008E8D8E7F8E8F1092E9031092EA03D09383
:102890000C03C0930B03EB89FC8990818D89892BF4
:1028A000808381E001C080E0DF91CF910895FC0139
:1028B000693091F038F4613061F0683099F483A1A7
:1028C00094A108956A3059F06B3061F481A592A506
:1028D000089583E494E0089585A196A1089587A1C1
:1028E00090A5089580E090E008951F93CF93DF9323
:1028F000EC0118E0612FCE010E945714009711F0EF
:102900000E941D211F5F1C30A9F78FEF8AA3FE01D3
:102910003A96A29611921192EC17FD07D9F7DF9122
:10292000CF911F9108954091F4035091F5032091A8
:10293000F2033091F30342175307B4F49091E80087
:102940009570E1F39091E80092FD19C08093F10039
:102950008091F4039091F50301968F739927892B49
:1029600019F48EEF8093E8008091F4039091F503C1
:1029700001969093F5038093F40381E0089580E03D
:102980000895CF92DF92EF92FF920F931F93CF9310
:10299000DF931F92CDB7DEB7182F062FE42E862FB8
:1029A000880F8E5F99830E94931483E00E94931492
:1029B000F12EC12E9981D92E8C2D8F19801798F464
:1029C000F601E7FE02C0849101C080810E94931449
:1029D000182F80E00E9493148123FFEFCF1ADF0AA3
:1029E0008111EACF01C081E00F90DF91CF911F915B
:1029F0000F91FF90EF90DF90CF900895DF92EF92CC
:102A0000FF920F931F93CF93DF93D82E8A017B0100
:102A1000E40EF51EEB01CE15DF0571F0D7FE03C005
:102A2000FE01849101C088810E9493142196811136
:102A3000F2CF8FEF9FEF01C0C801DF91CF911F91BF
:102A40000F91FF90EF90DF900895615030F020914A
:102A5000F100FC0120830196F8CF289884E680934A
:102A6000F6030895CF92DF92EF92FF920F931F9398
:102A7000CF93DF936C017A018B01C0E0D0E0CE15DB
:102A8000DF0589F0D8016D918D01D601ED91FC91A2
:102A90000190F081E02DC6010995892B11F47E018A
:102AA00002C02196ECCFC701DF91CF911F910F910A
:102AB000FF90EF90DF90CF900895FC01918D828D73
:102AC000981761F0828DDF01A80FB11D5D968C9182
:102AD000928D9F5F9F73928F90E008958FEF9FEF8D
:102AE0000895FC01918D828D981731F0828DE80F49
:102AF000F11D858D90E008958FEF9FEF0895FC0103
:102B0000918D228D892F90E0805C9F4F821B9109CF
:102B10008F739927089583E494E00E947F1521E044
:102B2000892B09F420E0822F08950F931F93CF93F0
:102B3000DF931F92CDB7DEB782E0898342E450E095
:102B400069EC71E080E80E94FE140E94CE1ADC015C
:102B500012960D911C9113970115110569F0D8017A
:102B6000ED91FC910280F381E02DBE016F5F7F4FFC
:102B7000C801099597FF07C089810F90DF91CF9118
:102B80001F910F910895F80100851185E5CFEF920F
:102B9000FF920F931F93CF93DF93EC0181E0888F17
:102BA0009B8D8C8D981305C0E889F989808185FDFE
:102BB00024C0F62E0B8D10E00F5F1F4F0F731127EF
:102BC000E02E8C8DE8120CC00FB607FCFACFE88916
:102BD000F989808185FFF5CFCE010E944711F1CFA1
:102BE0008B8DFE01E80FF11DE35AFF4FF0820B8F32
:102BF000EA89FB898081806207C0EE89FF89608352
:102C0000E889F98980818064808381E090E0DF91A8
:102C1000CF911F910F91FF90EF900895CF93DF9385
:102C2000EC01888D8823C9F0EA89FB89808185FDC4
:102C300005C0A889B9898C9186FD0FC00FB607FC25
:102C4000F5CF808185FFF2CFA889B9898C9185FF66
:102C5000EDCFCE010E944711E7CFDF91CF910895CC
:102C60001F920F920FB60F9211248F939F93809112
:102C7000E1009091E100937F9093E10083FF0FC00A
:102C80001092E90091E09093EB001092EC0092E337
:102C90009093ED001092F70398E09093F00082FF7C
:102CA00020C093E09093E9009091F200992319F0ED
:102CB0009AE39093E8009091F003992339F0909172
:102CC000F00391509093F003992389F19091F603CA
:102CD000992339F09091F60391509093F60399233C
:102CE00041F184FF10C08091E2008E7E816080936C
:102CF000E2008091E1008F7E8093E1008091FD02EF
:102D00008E7E806111C080FF16C08091E2008E7EB1
:102D100080618093E2008091E1008E7E8093E100EB
:102D20008091FD028E7E81608093FD0204C05D9AD9
:102D3000CDCF289AD6CF9F918F910F900FBE0F9035
:102D40001F9018951F920F920FB60F921124CF92D9
:102D5000DF92EF92FF920F931F932F933F934F9326
:102D60005F936F937F938F939F93AF93BF93EF93F3
:102D7000FF93CF93DF93CDB7DEB76C97DEBFCDBFA8
:102D80001092E9008091E80083FFFAC168E0CE016B
:102D900045960E94251582EF8093E8008D8987FF74
:102DA00005C09091E80090FFFCCF03C09EEF909388
:102DB000E800982F907609F0C6C09E892F89188D5B
:102DC00091110CC0803829F48091FE028093F100AB
:102DD00002C01092F1001092F10047C1422F50E062
:102DE000512B913051F4811140C14130510509F00E
:102DF0003CC18091FE028D7F0BC0933061F4811144
:102E000034C14130510509F030C18091FE02826029
:102E10008093FE022AC1953041F48091E80080FF42
:102E2000FCCF20682093E30020C1963009F05FC0FA
:102E3000EB8CFC8C1092E9001092F5031092F403D5
:102E4000123091F51092F3031092F2030E9495153F
:102E500099E0BE016F5F7F4FDB01E92F1D92EA957C
:102E6000E9F799831A8391E09E8390EA98879AEF15
:102E700099872091F4033091F503275F3F4F3C83FE
:102E80002B838D831092E9001092F5031092F403C6
:102E9000F092F303E092F20349E050E080E00E94F8
:102EA000FE140E949515E1C0F092F303E092F20344
:102EB0000E94CE1ADC011296ED90FC901397E1145B
:102EC000F10409F4C0C0D701ED91FC910480F581B3
:102ED000E02DBE016B5E7F4FC7010995009719F089
:102EE0000CF0C3C0C6C0F701E084F184E8CF97308E
:102EF00009F4BFC0983021F481E08093F100B5C09F
:102F0000993009F0B2C0837009F0B3C0EAE2F1E091
:102F100081E021E036E39081992361F08093E9001C
:102F20002093EB0091919093EC003093ED008F5F34
:102F3000873089F78EE78093EA001092EA008F8944
:102F40008093F70392C08B8D9C8D1092E9001092B4
:102F5000F5031092F4039093F3038093F203898DA9
:102F6000811156C08E899D89913A59F4813209F0B8
:102F700080C047E050E060E071E080E00E94FE1415
:102F800074C0913209F075C0833289F4888D90E065
:102F9000982F88272F89822BA0E0B0E080930B0127
:102FA00090930C01A0930D01B0930E015EC080328E
:102FB00069F48091E80082FFFCCF67E080E091E057
:102FC0000E9425158BEF8093E80006C0823209F03D
:102FD0004CC08F89809307018091FC02882319F0EF
:102FE000EEEFFAE002C0E0E0F8E08091000190919D
:102FF0000101A0910201B0910301803B9440A10521
:10300000B10509F088C08091070180FFA0C083C08E
:103010000E94CE1ADC0112960D911C911397011596
:10302000110539F1D801ED91FC910190F081E02D6D
:10303000BE016B5E7F4FC8010995811116C0F80172
:1030400000851185ECCF1130C1F0133091F48F89D8
:10305000882309F455C08230E9F440E860E18BE14F
:1030600092E00E94C114882321F08EEF8093E80043
:1030700087C081E28093EB0083C08B8D9C8D089785
:1030800011F41093F1038091F103811136C06CE2C9
:1030900072E038C0813029F440E86BE08FE092E0C4
:1030A000E0CF833031F70E94CE1ADC011296ED900A
:1030B000FC9013978E010F5F1F4F6801E114F1041C
:1030C00079F0D701ED91FC910680F781E02DB801F0
:1030D000C7010995080F111DF701E084F184EECFB7
:1030E000D8011C92F60101900020E9F73197BF0149
:1030F0006C197D0940E0C601B4CF6EE372E002C0F6
:103100006BE072E06115710509F4B3CFFB014491E6
:1031100050E080E833CF0FB6F894A8958091600016
:10312000886180936000109260000FBEA895EE3F0A
:103130002AE0F20739F08091FE0A9091FF0A91830C
:10314000808393CF1092FF0A1092FE0A8ECFEE3F3B
:103150008AE0F80731F0808191819093FF0A809393
:10316000FE0A87E797E7918380839BE088E10FB6AB
:10317000F894A895809360000FBE9093600075CF7F
:103180006C960FB6F894DEBF0FBECDBFDF91CF9126
:10319000FF91EF91BF91AF919F918F917F916F912F
:1031A0005F914F913F912F911F910F91FF90EF9061
:1031B000DF90CF900F900FBE0F901F9018951F9229
:1031C0000F920FB60F9211242F933F934F935F935B
:1031D0006F937F938F939F93AF93BF93EF93FF93DF
:1031E00083E494E00E944711FF91EF91BF91AF916A
:1031F0009F918F917F916F915F914F913F912F910F
:103200000F900FBE0F901F9018951F920F920FB640
:103210000F9211242F938F939F93EF93FF93E0913D
:103220005304F09154048081E0915904F0915A04C0
:1032300082FD12C0908180915C048F5F8F7320911A
:103240005D04821751F0E0915C04F0E0ED5BFB4F10
:10325000958F80935C0401C08081FF91EF919F91D5
:103260008F912F910F900FBE0F901F9018950F9375
:103270001F93CF93DF93EC0100E315E0D8018D910C
:103280009C91DC01ED91FC916C2F6F770190F081A6
:10329000E02D0995F80180819181DC01ED91FC918F
:1032A000CC0FCD2FCC1FDD0B6C2F6F770190F081F1
:1032B000E02DDF91CF911F910F91099480913005FE
:1032C00090913105DC01ED91FC910190F081E02DB0
:1032D00067EF09948091300590913105DC01ED9103
:1032E000FC910190F081E02D60EF0994CF93DF9382
:1032F000EB01A0913005B0913105ED91FC91119752
:103300008F70682F606E0190F081E02DCD010995DE
:10331000CE01DF91CF910C943719EF92FF920F936A
:103320001F93CF93DF9300D01F92CDB7DEB7162F38
:103330004A835B8389830E946A19A0913005B0910A
:103340003105ED91FC9111970190F081E02D89817B
:10335000682FCD0109954A81042FE42E5B81F52E5B
:103360008E2D801B811738F4F70181917F0190E049
:103370000E943719F5CF0F900F900F90DF91CF91EA
:103380001F910F91FF90EF900C945E19FC0101903A
:103390000020E9F73197BF01681B790BAC0181E789
:1033A0000C948D19382F20914204909141042132C0
:1033B00008F049C080911E048111FCCF42E0409387
:1033C0001E0430931D043FEF30931C0410921B0425
:1033D00020931A04A1E2B4E04AEF53E0FA013E2F31
:1033E000341B321718F43D913193F9CF1092F90341
:1033F0002091F903990F922B9093F9039091F80380
:10340000913061F41092F8039091F9039093BB000E
:103410009091BC0093FDF8CF95EC01C095EE909390
:10342000BC0090911E049230E1F390911C049F3FE8
:1034300079F080911C04803241F080911C0480332B
:1034400031F084E005C081E003C082E001C083E088
:10345000109220041092420410921F040895A0912B
:103460003005B0913105ED91FC9111970190F081FB
:10347000E02D682FCD010994CF93DF93C0E3D5E011
:1034800088819981DC01ED91FC910190F081E02D22
:1034900069EF099588819981DC01ED91FC9101909A
:1034A000F081E02D62E0099588819981DC01ED9140
:1034B000FC910190F081E02D65E0DF91CF910994BE
:1034C000CF930E946A198091300590913105DC01FB
:1034D000ED91FC910190F081E02D69E709958091D3
:1034E000300590913105DC01ED91FC91A0913305FF
:1034F000B09134050190F081E02D6C910995809197
:10350000300590913105DC01ED91FC91A0913305DE
:10351000B09134050190F081E02D11966C910995E0
:10352000C2E080913205C81760F4E0913305F09154
:103530003405EC0FF11D808190E00E943719CF5FB8
:10354000F0CFCF910C945E19FC018091F7038111AB
:1035500003C08FEF9FEF08959FB7F89482E08093A8
:10356000E9002091F20030E01216130614F421E075
:1035700030E02115310559F0289884E68093F60350
:103580008091F10080838091F200882319F09FBF21
:10359000C90108958BE68093E800F9CF80916C060D
:1035A00081110DC082E08093680684E080936906F3
:1035B00010926B0610926A0681E080936C0688E692
:1035C00096E00895789484B5826084BD84B5816066
:1035D00084BD85B5826085BD85B5816085BD8091DE
:1035E0006E00816080936E00109281008091810056
:1035F000826080938100809181008160809381004E
:103600008091800081608093800080919100826031
:1036100080939100809191008160809391008091CE
:1036200090008160809390008091C10084608093BD
:10363000C1008091C10082608093C1008091C1006F
:1036400081608093C1008091C30081608093C3003A
:103650008091C00082608093C0008091C200816030
:103660008093C20080917A00846080937A00809178
:103670007A00826080937A0080917A0081608093E2
:103680007A0080917A00806880937A001092F70324
:103690001092FE021092FD028091D700816080930B
:1036A000D70080EA8093D80089B5806189BD89B54B
:1036B000826089BD09B400FEFDCF61E070E080E06A
:1036C00090E00E9428128091D8008F7C80618093C6
:1036D000D8008091E000807F8093E0008091E1003D
:1036E0008E7E8093E1008DE08093E200559A209ACF
:1036F000EEEFFFE7859194918B3F9C4D19F481E0AB
:103700008093FC0289E1809332058091330590918A
:1037100034050E941D21C0913205D0E0CE010196F2
:103720000E9488209093340580933305FC01EC0FB0
:10373000FD1F108222E0DC012C9325E011962C93D2
:10374000AE014250510961E572E002960E94BA2131
:1037500088E792E09093D6058093D5058EEC91E0B2
:103760009093D8058093D70589E991E09093DA0585
:103770008093D9058CE096E09093DC058093DB057F
:1037800087E194E09093DE058093DD0586E891E083
:103790009093E0058093DF0583E497E09093E6053E
:1037A0008093E50581E895E09093E2058093E1053B
:1037B00081E08093E7058FEF9FEF9093ED04809376
:1037C000EC0480EE94E090933105809330050E94E4
:1037D0003C1A8091320581110E94601AC091070144
:1037E0006AE070E080E090E00E942812CC23B1F300
:1037F0000E94810515E0AA24A39402E080910303AE
:10380000882309F448C0F090FF02F0FE05C380E071
:103810000E946811892B09F4FFC2C1E0F1FE06C0C5
:1038200081E00E946811892B09F0F8C2F2FE06C0FF
:1038300082E00E946811892B09F0F2C2F3FE06C0F3
:1038400083E00E946811892B09F0ECC2F4FE06C0E7
:1038500084E00E946811892B09F0E6C2F5FE06C0DB
:1038600085E00E946811892B09F0E0C2F6FE06C0CF
:1038700086E00E946811892B09F0DAC2F7FE06C0C3
:1038800087E00E946811892B09F0D4C240E06C2FB8
:1038900080E00E94C70580910403882309F448C092
:1038A000F0900003F0FEC8C288E00E946811892BE6
:1038B00009F4C2C2C1E0F1FE06C089E00E946811AD
:1038C000892B09F0BBC2F2FE06C08AE00E94681193
:1038D000892B09F0B5C2F3FE06C08BE00E94681187
:1038E000892B09F0AFC2F4FE06C08CE00E9468117B
:1038F000892B09F0A9C2F5FE06C08DE00E9468116F
:10390000892B09F0A3C2F6FE06C08EE00E94681162
:10391000892B09F09DC2F7FE06C08FE00E94681156
:10392000892B09F097C240E06C2F81E00E94C70507
:1039300080910503882309F448C0F0900103F0FE4C
:103940008BC280E10E946811892B09F485C2C1E015
:10395000F1FE06C081E10E946811892B09F07EC248
:10396000F2FE06C082E10E946811892B09F078C23C
:10397000F3FE06C083E10E946811892B09F072C230
:10398000F4FE06C084E10E946811892B09F06CC224
:10399000F5FE06C085E10E946811892B09F066C218
:1039A000F6FE06C086E10E946811892B09F060C20C
:1039B000F7FE06C087E10E946811892B09F05AC200
:1039C00040E06C2F82E00E94C705809106038823A7
:1039D00009F448C0F0900203F0FE4EC288E10E9454
:1039E0006811892B09F448C2C1E0F1FE06C089E1E3
:1039F0000E946811892B09F041C2F2FE06C08AE1DB
:103A00000E946811892B09F03BC2F3FE06C08BE1CE
:103A10000E946811892B09F035C2F4FE06C08CE1C2
:103A20000E946811892B09F02FC2F5FE06C08DE1B6
:103A30000E946811892B09F029C240E06C2F83E0B5
:103A40000E94C7050FC08091300590913105EC01AF
:103A5000E881F9810680F781E02D09958F3FDFEF3E
:103A60009D0771F48091300590913105DC01ED9155
:103A7000FC910480F581E02D0995892B21F71EC169
:103A8000382F20917805222309F467C0873F09F079
:103A900055C01092780580913805813751F08937EB
:103AA00009F03EC0809132058823E1F20E94601A3D
:103AB000D9CFE091E305F091E405309799F2209198
:103AC000790530917A05C901019797FDC90195954E
:103AD0008795F82EA8E3B5E040E050E030E04E5F77
:103AE0005F4F3F1570F4BA01605D7A4FEB012F8193
:103AF0002C936885D0E86D9F201911242D933F5F8A
:103B0000EECF9927DC01A05DBA4F17968C911797DD
:103B1000882311F018961C9288E395E00995A2CFAE
:103B2000E091E505F091E605309709F49BCF6091AF
:103B30007905615049E355E0099594CF20917905C5
:103B400030917A05F901E05DFA4F80872F5F3F4F92
:103B500030937A052093790585CF2091350522236E
:103B600009F469C087FD67C09FEF920F90933505F8
:103B7000E92FF0E0E05DFA4F8087911173CF8091DB
:103B80003605882309F46ECF803D09F445C050F412
:103B9000803901F1803C09F04BC0E091D905F091EA
:103BA000DA053EC0843F39F1853F51F1803E09F08E
:103BB0003FC0E091D505F091D6053097C9F18091CD
:103BC00038056091390570E020E8829F600D711D15
:103BD00011242BC0E091D705F091D805309741F121
:103BE000809138056091390570E090E8899F600DFB
:103BF000711D11241AC0E091DD05F091DE0504C0AD
:103C0000E091DF05F091E005309791F06091380583
:103C100070E0809139050BC0E091DB05F091DC0587
:103C2000309731F06091380570E080913705099543
:103C30001092360517CF303F38F4282F207F30E020
:103C40008F708093370502C09C013327203F3105D8
:103C500059F17CF4203C310511F124F4203931056F
:103C6000D9F000CF203D3105D1F0203E3105A1F043
:103C7000F9CE293F3105F9F034F4C901845F910987
:103C8000029750F0EFCE2F3F310509F0EBCE80E3E5
:103C900095E00E942C0DE6CE0093350502C0A0925F
:103CA000350520933605DECEA092780510927A0570
:103CB00010927905D7CE0E943C1AD4CE8FB7F894D3
:103CC000C0900703D0900803E0900903F0900A0326
:103CD0008FBFC0923B03D0923C03E0923D03F09231
:103CE0003E038091370390913803A0913903B0913E
:103CF0003A034091090150910A0160E070E0C81A4E
:103D0000D90AEA0AFB0A4C155D056E057F0530F0FD
:103D100080915F0687FD7DC0B12C65C0840F951F23
:103D2000A61FB71F8093370390933803A0933903DE
:103D3000B0933A039BE7E92E95E0F92ECEEECC3016
:103D4000B8F4F7018081823099F480913503909125
:103D500036030C2E02C0959587950A94E2F780FFF2
:103D600007C08C2F0E94FD11BC018C2F0E94761978
:103D7000CF5FFFEFEF1AFF0ACC3009F780910801FF
:103D800087FDC6CFC0E02C2F30E080910801082EBF
:103D9000000C990B821793070CF4BACF129FF00115
:103DA000139FF00D1124E35FFC4F61817281248128
:103DB000438180810E948806CF5FE5CFFC01E35CF0
:103DC000F94FC281EC2FF0E0EE0FFF1FE95BF94FD6
:103DD000C080D1806C2F8DE396E00E9457147C0147
:103DE000892B61F4B3948B2D90E020915F06022E15
:103DF000000C330B281739070CF70BC0C83008F438
:103E000047C080910B0390910C03E816F90651F717
:103E10003FC00E94B80FF2CCC0E000CDC26006CD1A
:103E2000C4600CCDC86012CDC06118CDC0621ECD7B
:103E3000C06424CDC0682ACDC0E03DCDC26043CD72
:103E4000C46049CDC8604FCDC06155CDC0625BCD67
:103E5000C06461CDC06867CDC0E07ACDC26080CD5E
:103E6000C46086CDC8608CCDC06192CDC06298CD53
:103E7000C0649ECDC068A4CDC0E0B7CDC260BDCD4A
:103E8000C460C3CDC860C9CDC061CFCDC062D5CD3F
:103E9000D701ED91FC910480F581E02DC7010995D2
:103EA000181619060CF09ECF80EF0E942F1A80E69C
:103EB0000E942F1A8C2F80640E942F1AC114D104E3
:103EC00059F0D701ED91FC910480F581E02DC701F7
:103ED0000995C816D9064CF0E701E881F9810480FC
:103EE000F581E02DC70109956C011C141D04B4F483
:103EF000E701E881F9810680F781E02DC701099586
:103F0000C82F8F770E942F1A8C2F881F8827881F11
:103F10000E942F1AD1E0CD1AD108E7CF87EF0E9477
:103F20002F1A60CFCF92DF92EF92FF921092460449
:103F30001092450478EEC72E73E0D72EE12CF12CB9
:103F4000C0924704D0924804E0924904F0924A0497
:103F500084E391E090934404809343048DEC90E0DB
:103F60009093500480934F048CEC90E09093520413
:103F70008093510488EC90E0909354048093530410
:103F800089EC90E090935604809355048AEC90E07D
:103F900090935804809357048EEC90E090935A04C9
:103FA0008093590410925C0410925D0410925E0498
:103FB00010925F041092E3041092E204C092E404B1
:103FC000D092E504E092E604F092E70484E491E004
:103FD0009093E1048093E0048FEF9FEF9093ED04C2
:103FE0008093EC0410923205109234051092330540
:103FF0001092E70580E395E00E942C0D1092EB05EE
:104000001092EA05C092EC05D092ED05E092EE0523
:10401000F092EF0584E591E09093E9058093E8053F
:104020008CE791E090933E0680933D0610926106E6
:104030001092600610926306109262061092650656
:104040001092640610926706109266068FEF8093B6
:104050005F0680911806A9E1B6E09FEF48EB5BE0B0
:104060008C3078F48C93282F30E0F901EE0FFF1F8D
:104070002E0F3F1FF901EC50FA4F528341838F5F9F
:1040800001C09C93139626E0AD33B20749F78093A5
:104090001806FF90EF90DF90CF900895991B79E07C
:1040A00004C0991F961708F0961B881F7A95C9F7C8
:1040B0008095089597FB072E16F4009407D077FD9E
:1040C00009D00E94742007FC05D03EF4909581959C
:1040D0009F4F0895709561957F4F0895EE0FFF1FD4
:1040E0000590F491E02D0994AA1BBB1B51E107C078
:1040F000AA1FBB1FA617B70710F0A61BB70B881F78
:10410000991F5A95A9F780959095BC01CD01089506
:10411000CF93DF938230910510F482E090E0E0913C
:104120007606F091770620E030E0C0E0D0E03097EE
:1041300011F14081518148175907C0F048175907BC
:1041400061F482819381209719F09B838A832BC02D
:10415000909377068093760626C02115310519F0D5
:104160004217530718F49A01BE01DF01EF010280E4
:10417000F381E02DDCCF2115310509F1281B390B26
:104180002430310590F412968D919C91139761150E
:10419000710521F0FB019383828304C0909377061D
:1041A00080937606FD01329644C0FD01E20FF31FB5
:1041B00081939193225031092D933C933AC02091E1
:1041C000740630917506232B41F420911101309132
:1041D0001201309375062093740620910F013091DF
:1041E00010012115310541F42DB73EB7409113015F
:1041F00050911401241B350BE0917406F091750663
:10420000E217F307A0F42E1B3F0B2817390778F0AD
:10421000AC014E5F5F4F2417350748F04E0F5F1F0C
:1042200050937506409374068193919302C0E0E029
:10423000F0E0CF01DF91CF9108950F931F93CF93BB
:10424000DF93009709F48CC0FC013297138212822D
:1042500000917606109177060115110581F42081F1
:104260003181820F931F20917406309175062817B3
:10427000390779F5F0937506E093740671C0D8019B
:1042800040E050E0AE17BF0750F412962D913C91DC
:104290001397AD012115310509F1D901F3CF9D0126
:1042A000DA013383228360817181860F971F821721
:1042B000930769F4EC0128813981260F371F2E5F9F
:1042C0003F4F318320838A819B8193838283452B57
:1042D00029F4F0937706E093760642C01396FC9398
:1042E000EE931297ED01499159919E01240F351FCC
:1042F000E217F30771F480819181840F951F029674
:1043000011969C938E938281938113969C938E93A6
:104310001297E0E0F0E0D80112968D919C911397EE
:10432000009719F0F8018C01F6CF8D919C919801BE
:104330002E5F3F4F820F931F2091740630917506B8
:104340002817390769F4309729F4109277061092EC
:10435000760602C0138212821093750600937406CB
:10436000DF91CF911F910F91089581E090E0F89433
:104370000C942C22FB01DC014150504048F001908C
:104380000D920020C9F701C01D9241505040E0F746
:104390000895052E97FB1EF400940E94E02157FD1E
:1043A00007D00E94FB2107FC03D04EF40C94E021BF
:1043B00050954095309521953F4F4F4F5F4F089551
:1043C00090958095709561957F4F8F4F9F4F089581
:1043D0000E941D22A59F900DB49F900DA49F800D5B
:1043E000911D11240895B7FF0C94E8210E94E82143
:1043F000821B930B0895A1E21A2EAA1BBB1BFD0181
:104400000DC0AA1FBB1FEE1FFF1FA217B307E407B3
:10441000F50720F0A21BB30BE40BF50B661F771F0B
:10442000881F991F1A9469F76095709580959095EB
:104430009B01AC01BD01CF010895A29FB001B39FC4
:10444000C001A39F700D811D1124911DB29F700D9D
:0C445000811D1124911D0895F894FFCFE8
:10445C0000E1000000000000FF1300FFFFFFFF0061
:10446C000078068000010000000000000078103287
:10447C0015CC10E4105F10771000C1808100000093
:10448C0000000000C71532157F155D1571150E164D
:10449C0000000000C20F6212E30F29110511D80FA2
:1044AC00000000005D0A2D0A250A110A020A010A01
:1044BC0000000000BC093215BC09BC09BC09BC09D0
:1044CC0000000000BC093215000000001B0DBE09E5
:1044DC008C0A75144D617820736572766F73206148
:1044EC007474616368656400556E6B6E6F776E20D3
:1044FC0070696E206D6F6465004932433A20546FC9
:10450C006F206D616E7920627974657320726563BA
:10451C006569766564004932433A20546F6F2066B2
:10452C006577206279746573207265636569766559
:10453C00640031302D626974206164647265737338
:10454C00696E67206E6F7420737570706F7274650E
:10455C006400746F6F206D616E792071756572697E
:10456C00657300433A5C55736572735C4A6F6F7880
:10457C005C4465736B746F705C5374616E646172D0
:10458C00644669726D617461506C75735C537461CF
:10459C006E646172644669726D617461506C75739E
:1045AC005C5374616E646172644669726D617461AE
:1045BC00506C75732E696E6F005370656369667904
:1045CC002073657269616C20525820616E642054AE
:0845DC00582070696E730000A5
:00000001FF
